{
	"syntax/function.sol": {
		"Demo": {
			"abi": [
				{
					"inputs": [],
					"name": "balance",
					"outputs": [
						{
							"internalType": "uint256",
							"name": "",
							"type": "uint256"
						}
					],
					"stateMutability": "view",
					"type": "function"
				},
				{
					"inputs": [],
					"name": "getBalance",
					"outputs": [
						{
							"internalType": "uint256",
							"name": "",
							"type": "uint256"
						}
					],
					"stateMutability": "view",
					"type": "function"
				},
				{
					"inputs": [],
					"name": "getBalance2",
					"outputs": [
						{
							"internalType": "uint256",
							"name": "balance",
							"type": "uint256"
						}
					],
					"stateMutability": "view",
					"type": "function"
				},
				{
					"inputs": [],
					"name": "pay",
					"outputs": [],
					"stateMutability": "payable",
					"type": "function"
				},
				{
					"inputs": [
						{
							"internalType": "string",
							"name": "newMessage",
							"type": "string"
						}
					],
					"name": "setMessage",
					"outputs": [],
					"stateMutability": "nonpayable",
					"type": "function"
				}
			],
			"devdoc": {
				"kind": "dev",
				"methods": {},
				"version": 1
			},
			"evm": {
				"assembly": "    /* \"syntax/function.sol\":58:941  contract Demo {... */\n  mstore(0x40, 0x80)\n    /* \"syntax/function.sol\":232:254  string message = \"Yo!\" */\n  mload(0x40)\n  dup1\n  0x40\n  add\n  0x40\n  mstore\n  dup1\n  0x03\n  dup2\n  mstore\n  0x20\n  add\n  0x596f210000000000000000000000000000000000000000000000000000000000\n  dup2\n  mstore\n  pop\n  0x00\n  swap1\n  dup2\n  tag_1\n  swap2\n  swap1\n  tag_2\n  jump\t// in\ntag_1:\n  pop\n    /* \"syntax/function.sol\":58:941  contract Demo {... */\n  callvalue\n  dup1\n  iszero\n  tag_3\n  jumpi\n  0x00\n  dup1\n  revert\ntag_3:\n  pop\n  jump(tag_4)\n    /* \"#utility.yul\":7:106   */\ntag_5:\n    /* \"#utility.yul\":59:65   */\n  0x00\n    /* \"#utility.yul\":93:98   */\n  dup2\n    /* \"#utility.yul\":87:99   */\n  mload\n    /* \"#utility.yul\":77:99   */\n  swap1\n  pop\n    /* \"#utility.yul\":7:106   */\n  swap2\n  swap1\n  pop\n  jump\t// out\n    /* \"#utility.yul\":112:292   */\ntag_6:\n    /* \"#utility.yul\":160:237   */\n  0x4e487b7100000000000000000000000000000000000000000000000000000000\n    /* \"#utility.yul\":157:158   */\n  0x00\n    /* \"#utility.yul\":150:238   */\n  mstore\n    /* \"#utility.yul\":257:261   */\n  0x41\n    /* \"#utility.yul\":254:255   */\n  0x04\n    /* \"#utility.yul\":247:262   */\n  mstore\n    /* \"#utility.yul\":281:285   */\n  0x24\n    /* \"#utility.yul\":278:279   */\n  0x00\n    /* \"#utility.yul\":271:286   */\n  revert\n    /* \"#utility.yul\":298:478   */\ntag_7:\n    /* \"#utility.yul\":346:423   */\n  0x4e487b7100000000000000000000000000000000000000000000000000000000\n    /* \"#utility.yul\":343:344   */\n  0x00\n    /* \"#utility.yul\":336:424   */\n  mstore\n    /* \"#utility.yul\":443:447   */\n  0x22\n    /* \"#utility.yul\":440:441   */\n  0x04\n    /* \"#utility.yul\":433:448   */\n  mstore\n    /* \"#utility.yul\":467:471   */\n  0x24\n    /* \"#utility.yul\":464:465   */\n  0x00\n    /* \"#utility.yul\":457:472   */\n  revert\n    /* \"#utility.yul\":484:804   */\ntag_8:\n    /* \"#utility.yul\":528:534   */\n  0x00\n    /* \"#utility.yul\":565:566   */\n  0x02\n    /* \"#utility.yul\":559:563   */\n  dup3\n    /* \"#utility.yul\":555:567   */\n  div\n    /* \"#utility.yul\":545:567   */\n  swap1\n  pop\n    /* \"#utility.yul\":612:613   */\n  0x01\n    /* \"#utility.yul\":606:610   */\n  dup3\n    /* \"#utility.yul\":602:614   */\n  and\n    /* \"#utility.yul\":633:651   */\n  dup1\n    /* \"#utility.yul\":623:704   */\n  tag_30\n  jumpi\n    /* \"#utility.yul\":689:693   */\n  0x7f\n    /* \"#utility.yul\":681:687   */\n  dup3\n    /* \"#utility.yul\":677:694   */\n  and\n    /* \"#utility.yul\":667:694   */\n  swap2\n  pop\n    /* \"#utility.yul\":623:704   */\ntag_30:\n    /* \"#utility.yul\":751:753   */\n  0x20\n    /* \"#utility.yul\":743:749   */\n  dup3\n    /* \"#utility.yul\":740:754   */\n  lt\n    /* \"#utility.yul\":720:738   */\n  dup2\n    /* \"#utility.yul\":717:755   */\n  sub\n    /* \"#utility.yul\":714:798   */\n  tag_31\n  jumpi\n    /* \"#utility.yul\":770:788   */\n  tag_32\n  tag_7\n  jump\t// in\ntag_32:\n    /* \"#utility.yul\":714:798   */\ntag_31:\n    /* \"#utility.yul\":535:804   */\n  pop\n    /* \"#utility.yul\":484:804   */\n  swap2\n  swap1\n  pop\n  jump\t// out\n    /* \"#utility.yul\":810:951   */\ntag_9:\n    /* \"#utility.yul\":859:863   */\n  0x00\n    /* \"#utility.yul\":882:885   */\n  dup2\n    /* \"#utility.yul\":874:885   */\n  swap1\n  pop\n    /* \"#utility.yul\":905:908   */\n  dup2\n    /* \"#utility.yul\":902:903   */\n  0x00\n    /* \"#utility.yul\":895:909   */\n  mstore\n    /* \"#utility.yul\":939:943   */\n  0x20\n    /* \"#utility.yul\":936:937   */\n  0x00\n    /* \"#utility.yul\":926:944   */\n  keccak256\n    /* \"#utility.yul\":918:944   */\n  swap1\n  pop\n    /* \"#utility.yul\":810:951   */\n  swap2\n  swap1\n  pop\n  jump\t// out\n    /* \"#utility.yul\":957:1050   */\ntag_10:\n    /* \"#utility.yul\":994:1000   */\n  0x00\n    /* \"#utility.yul\":1041:1043   */\n  0x20\n    /* \"#utility.yul\":1036:1038   */\n  0x1f\n    /* \"#utility.yul\":1029:1034   */\n  dup4\n    /* \"#utility.yul\":1025:1039   */\n  add\n    /* \"#utility.yul\":1021:1044   */\n  div\n    /* \"#utility.yul\":1011:1044   */\n  swap1\n  pop\n    /* \"#utility.yul\":957:1050   */\n  swap2\n  swap1\n  pop\n  jump\t// out\n    /* \"#utility.yul\":1056:1163   */\ntag_11:\n    /* \"#utility.yul\":1100:1108   */\n  0x00\n    /* \"#utility.yul\":1150:1155   */\n  dup3\n    /* \"#utility.yul\":1144:1148   */\n  dup3\n    /* \"#utility.yul\":1140:1156   */\n  shl\n    /* \"#utility.yul\":1119:1156   */\n  swap1\n  pop\n    /* \"#utility.yul\":1056:1163   */\n  swap3\n  swap2\n  pop\n  pop\n  jump\t// out\n    /* \"#utility.yul\":1169:1562   */\ntag_12:\n    /* \"#utility.yul\":1238:1244   */\n  0x00\n    /* \"#utility.yul\":1288:1289   */\n  0x08\n    /* \"#utility.yul\":1276:1286   */\n  dup4\n    /* \"#utility.yul\":1272:1290   */\n  mul\n    /* \"#utility.yul\":1311:1408   */\n  tag_37\n    /* \"#utility.yul\":1341:1407   */\n  0xffffffffffffffffffffffffffffffffffffffffffffffffffffffffffffffff\n    /* \"#utility.yul\":1330:1339   */\n  dup3\n    /* \"#utility.yul\":1311:1408   */\n  tag_11\n  jump\t// in\ntag_37:\n    /* \"#utility.yul\":1429:1468   */\n  tag_38\n    /* \"#utility.yul\":1459:1467   */\n  dup7\n    /* \"#utility.yul\":1448:1457   */\n  dup4\n    /* \"#utility.yul\":1429:1468   */\n  tag_11\n  jump\t// in\ntag_38:\n    /* \"#utility.yul\":1417:1468   */\n  swap6\n  pop\n    /* \"#utility.yul\":1501:1505   */\n  dup1\n    /* \"#utility.yul\":1497:1506   */\n  not\n    /* \"#utility.yul\":1490:1495   */\n  dup5\n    /* \"#utility.yul\":1486:1507   */\n  and\n    /* \"#utility.yul\":1477:1507   */\n  swap4\n  pop\n    /* \"#utility.yul\":1550:1554   */\n  dup1\n    /* \"#utility.yul\":1540:1548   */\n  dup7\n    /* \"#utility.yul\":1536:1555   */\n  and\n    /* \"#utility.yul\":1529:1534   */\n  dup5\n    /* \"#utility.yul\":1526:1556   */\n  or\n    /* \"#utility.yul\":1516:1556   */\n  swap3\n  pop\n    /* \"#utility.yul\":1245:1562   */\n  pop\n  pop\n    /* \"#utility.yul\":1169:1562   */\n  swap4\n  swap3\n  pop\n  pop\n  pop\n  jump\t// out\n    /* \"#utility.yul\":1568:1645   */\ntag_13:\n    /* \"#utility.yul\":1605:1612   */\n  0x00\n    /* \"#utility.yul\":1634:1639   */\n  dup2\n    /* \"#utility.yul\":1623:1639   */\n  swap1\n  pop\n    /* \"#utility.yul\":1568:1645   */\n  swap2\n  swap1\n  pop\n  jump\t// out\n    /* \"#utility.yul\":1651:1711   */\ntag_14:\n    /* \"#utility.yul\":1679:1682   */\n  0x00\n    /* \"#utility.yul\":1700:1705   */\n  dup2\n    /* \"#utility.yul\":1693:1705   */\n  swap1\n  pop\n    /* \"#utility.yul\":1651:1711   */\n  swap2\n  swap1\n  pop\n  jump\t// out\n    /* \"#utility.yul\":1717:1859   */\ntag_15:\n    /* \"#utility.yul\":1767:1776   */\n  0x00\n    /* \"#utility.yul\":1800:1853   */\n  tag_42\n    /* \"#utility.yul\":1818:1852   */\n  tag_43\n    /* \"#utility.yul\":1827:1851   */\n  tag_44\n    /* \"#utility.yul\":1845:1850   */\n  dup5\n    /* \"#utility.yul\":1827:1851   */\n  tag_13\n  jump\t// in\ntag_44:\n    /* \"#utility.yul\":1818:1852   */\n  tag_14\n  jump\t// in\ntag_43:\n    /* \"#utility.yul\":1800:1853   */\n  tag_13\n  jump\t// in\ntag_42:\n    /* \"#utility.yul\":1787:1853   */\n  swap1\n  pop\n    /* \"#utility.yul\":1717:1859   */\n  swap2\n  swap1\n  pop\n  jump\t// out\n    /* \"#utility.yul\":1865:1940   */\ntag_16:\n    /* \"#utility.yul\":1908:1911   */\n  0x00\n    /* \"#utility.yul\":1929:1934   */\n  dup2\n    /* \"#utility.yul\":1922:1934   */\n  swap1\n  pop\n    /* \"#utility.yul\":1865:1940   */\n  swap2\n  swap1\n  pop\n  jump\t// out\n    /* \"#utility.yul\":1946:2215   */\ntag_17:\n    /* \"#utility.yul\":2056:2095   */\n  tag_47\n    /* \"#utility.yul\":2087:2094   */\n  dup4\n    /* \"#utility.yul\":2056:2095   */\n  tag_15\n  jump\t// in\ntag_47:\n    /* \"#utility.yul\":2117:2208   */\n  tag_48\n    /* \"#utility.yul\":2166:2207   */\n  tag_49\n    /* \"#utility.yul\":2190:2206   */\n  dup3\n    /* \"#utility.yul\":2166:2207   */\n  tag_16\n  jump\t// in\ntag_49:\n    /* \"#utility.yul\":2158:2164   */\n  dup5\n    /* \"#utility.yul\":2151:2155   */\n  dup5\n    /* \"#utility.yul\":2145:2156   */\n  sload\n    /* \"#utility.yul\":2117:2208   */\n  tag_12\n  jump\t// in\ntag_48:\n    /* \"#utility.yul\":2111:2115   */\n  dup3\n    /* \"#utility.yul\":2104:2209   */\n  sstore\n    /* \"#utility.yul\":2022:2215   */\n  pop\n    /* \"#utility.yul\":1946:2215   */\n  pop\n  pop\n  pop\n  jump\t// out\n    /* \"#utility.yul\":2221:2294   */\ntag_18:\n    /* \"#utility.yul\":2266:2269   */\n  0x00\n    /* \"#utility.yul\":2221:2294   */\n  swap1\n  jump\t// out\n    /* \"#utility.yul\":2300:2489   */\ntag_19:\n    /* \"#utility.yul\":2377:2409   */\n  tag_52\n  tag_18\n  jump\t// in\ntag_52:\n    /* \"#utility.yul\":2418:2483   */\n  tag_53\n    /* \"#utility.yul\":2476:2482   */\n  dup2\n    /* \"#utility.yul\":2468:2474   */\n  dup5\n    /* \"#utility.yul\":2462:2466   */\n  dup5\n    /* \"#utility.yul\":2418:2483   */\n  tag_17\n  jump\t// in\ntag_53:\n    /* \"#utility.yul\":2353:2489   */\n  pop\n    /* \"#utility.yul\":2300:2489   */\n  pop\n  pop\n  jump\t// out\n    /* \"#utility.yul\":2495:2681   */\ntag_20:\n    /* \"#utility.yul\":2555:2675   */\ntag_55:\n    /* \"#utility.yul\":2572:2575   */\n  dup2\n    /* \"#utility.yul\":2565:2570   */\n  dup2\n    /* \"#utility.yul\":2562:2576   */\n  lt\n    /* \"#utility.yul\":2555:2675   */\n  iszero\n  tag_57\n  jumpi\n    /* \"#utility.yul\":2626:2665   */\n  tag_58\n    /* \"#utility.yul\":2663:2664   */\n  0x00\n    /* \"#utility.yul\":2656:2661   */\n  dup3\n    /* \"#utility.yul\":2626:2665   */\n  tag_19\n  jump\t// in\ntag_58:\n    /* \"#utility.yul\":2599:2600   */\n  0x01\n    /* \"#utility.yul\":2592:2597   */\n  dup2\n    /* \"#utility.yul\":2588:2601   */\n  add\n    /* \"#utility.yul\":2579:2601   */\n  swap1\n  pop\n    /* \"#utility.yul\":2555:2675   */\n  jump(tag_55)\ntag_57:\n    /* \"#utility.yul\":2495:2681   */\n  pop\n  pop\n  jump\t// out\n    /* \"#utility.yul\":2687:3230   */\ntag_21:\n    /* \"#utility.yul\":2788:2790   */\n  0x1f\n    /* \"#utility.yul\":2783:2786   */\n  dup3\n    /* \"#utility.yul\":2780:2791   */\n  gt\n    /* \"#utility.yul\":2777:3223   */\n  iszero\n  tag_60\n  jumpi\n    /* \"#utility.yul\":2822:2860   */\n  tag_61\n    /* \"#utility.yul\":2854:2859   */\n  dup2\n    /* \"#utility.yul\":2822:2860   */\n  tag_9\n  jump\t// in\ntag_61:\n    /* \"#utility.yul\":2906:2935   */\n  tag_62\n    /* \"#utility.yul\":2924:2934   */\n  dup5\n    /* \"#utility.yul\":2906:2935   */\n  tag_10\n  jump\t// in\ntag_62:\n    /* \"#utility.yul\":2896:2904   */\n  dup2\n    /* \"#utility.yul\":2892:2936   */\n  add\n    /* \"#utility.yul\":3089:3091   */\n  0x20\n    /* \"#utility.yul\":3077:3087   */\n  dup6\n    /* \"#utility.yul\":3074:3092   */\n  lt\n    /* \"#utility.yul\":3071:3120   */\n  iszero\n  tag_63\n  jumpi\n    /* \"#utility.yul\":3110:3118   */\n  dup2\n    /* \"#utility.yul\":3095:3118   */\n  swap1\n  pop\n    /* \"#utility.yul\":3071:3120   */\ntag_63:\n    /* \"#utility.yul\":3133:3213   */\n  tag_64\n    /* \"#utility.yul\":3189:3211   */\n  tag_65\n    /* \"#utility.yul\":3207:3210   */\n  dup6\n    /* \"#utility.yul\":3189:3211   */\n  tag_10\n  jump\t// in\ntag_65:\n    /* \"#utility.yul\":3179:3187   */\n  dup4\n    /* \"#utility.yul\":3175:3212   */\n  add\n    /* \"#utility.yul\":3162:3173   */\n  dup3\n    /* \"#utility.yul\":3133:3213   */\n  tag_20\n  jump\t// in\ntag_64:\n    /* \"#utility.yul\":2792:3223   */\n  pop\n  pop\n    /* \"#utility.yul\":2777:3223   */\ntag_60:\n    /* \"#utility.yul\":2687:3230   */\n  pop\n  pop\n  pop\n  jump\t// out\n    /* \"#utility.yul\":3236:3353   */\ntag_22:\n    /* \"#utility.yul\":3290:3298   */\n  0x00\n    /* \"#utility.yul\":3340:3345   */\n  dup3\n    /* \"#utility.yul\":3334:3338   */\n  dup3\n    /* \"#utility.yul\":3330:3346   */\n  shr\n    /* \"#utility.yul\":3309:3346   */\n  swap1\n  pop\n    /* \"#utility.yul\":3236:3353   */\n  swap3\n  swap2\n  pop\n  pop\n  jump\t// out\n    /* \"#utility.yul\":3359:3528   */\ntag_23:\n    /* \"#utility.yul\":3403:3409   */\n  0x00\n    /* \"#utility.yul\":3436:3487   */\n  tag_68\n    /* \"#utility.yul\":3484:3485   */\n  0x00\n    /* \"#utility.yul\":3480:3486   */\n  not\n    /* \"#utility.yul\":3472:3477   */\n  dup5\n    /* \"#utility.yul\":3469:3470   */\n  0x08\n    /* \"#utility.yul\":3465:3478   */\n  mul\n    /* \"#utility.yul\":3436:3487   */\n  tag_22\n  jump\t// in\ntag_68:\n    /* \"#utility.yul\":3432:3488   */\n  not\n    /* \"#utility.yul\":3517:3521   */\n  dup1\n    /* \"#utility.yul\":3511:3515   */\n  dup4\n    /* \"#utility.yul\":3507:3522   */\n  and\n    /* \"#utility.yul\":3497:3522   */\n  swap2\n  pop\n    /* \"#utility.yul\":3410:3528   */\n  pop\n    /* \"#utility.yul\":3359:3528   */\n  swap3\n  swap2\n  pop\n  pop\n  jump\t// out\n    /* \"#utility.yul\":3533:3828   */\ntag_24:\n    /* \"#utility.yul\":3609:3613   */\n  0x00\n    /* \"#utility.yul\":3755:3784   */\n  tag_70\n    /* \"#utility.yul\":3780:3783   */\n  dup4\n    /* \"#utility.yul\":3774:3778   */\n  dup4\n    /* \"#utility.yul\":3755:3784   */\n  tag_23\n  jump\t// in\ntag_70:\n    /* \"#utility.yul\":3747:3784   */\n  swap2\n  pop\n    /* \"#utility.yul\":3817:3820   */\n  dup3\n    /* \"#utility.yul\":3814:3815   */\n  0x02\n    /* \"#utility.yul\":3810:3821   */\n  mul\n    /* \"#utility.yul\":3804:3808   */\n  dup3\n    /* \"#utility.yul\":3801:3822   */\n  or\n    /* \"#utility.yul\":3793:3822   */\n  swap1\n  pop\n    /* \"#utility.yul\":3533:3828   */\n  swap3\n  swap2\n  pop\n  pop\n  jump\t// out\n    /* \"#utility.yul\":3833:5228   */\ntag_2:\n    /* \"#utility.yul\":3950:3987   */\n  tag_72\n    /* \"#utility.yul\":3983:3986   */\n  dup3\n    /* \"#utility.yul\":3950:3987   */\n  tag_5\n  jump\t// in\ntag_72:\n    /* \"#utility.yul\":4052:4070   */\n  0xffffffffffffffff\n    /* \"#utility.yul\":4044:4050   */\n  dup2\n    /* \"#utility.yul\":4041:4071   */\n  gt\n    /* \"#utility.yul\":4038:4094   */\n  iszero\n  tag_73\n  jumpi\n    /* \"#utility.yul\":4074:4092   */\n  tag_74\n  tag_6\n  jump\t// in\ntag_74:\n    /* \"#utility.yul\":4038:4094   */\ntag_73:\n    /* \"#utility.yul\":4118:4156   */\n  tag_75\n    /* \"#utility.yul\":4150:4154   */\n  dup3\n    /* \"#utility.yul\":4144:4155   */\n  sload\n    /* \"#utility.yul\":4118:4156   */\n  tag_8\n  jump\t// in\ntag_75:\n    /* \"#utility.yul\":4203:4270   */\n  tag_76\n    /* \"#utility.yul\":4263:4269   */\n  dup3\n    /* \"#utility.yul\":4255:4261   */\n  dup3\n    /* \"#utility.yul\":4249:4253   */\n  dup6\n    /* \"#utility.yul\":4203:4270   */\n  tag_21\n  jump\t// in\ntag_76:\n    /* \"#utility.yul\":4297:4298   */\n  0x00\n    /* \"#utility.yul\":4321:4325   */\n  0x20\n    /* \"#utility.yul\":4308:4325   */\n  swap1\n  pop\n    /* \"#utility.yul\":4353:4355   */\n  0x1f\n    /* \"#utility.yul\":4345:4351   */\n  dup4\n    /* \"#utility.yul\":4342:4356   */\n  gt\n    /* \"#utility.yul\":4370:4371   */\n  0x01\n    /* \"#utility.yul\":4365:4983   */\n  dup2\n  eq\n  tag_78\n  jumpi\n    /* \"#utility.yul\":5027:5028   */\n  0x00\n    /* \"#utility.yul\":5044:5050   */\n  dup5\n    /* \"#utility.yul\":5041:5118   */\n  iszero\n  tag_79\n  jumpi\n    /* \"#utility.yul\":5093:5102   */\n  dup3\n    /* \"#utility.yul\":5088:5091   */\n  dup8\n    /* \"#utility.yul\":5084:5103   */\n  add\n    /* \"#utility.yul\":5078:5104   */\n  mload\n    /* \"#utility.yul\":5069:5104   */\n  swap1\n  pop\n    /* \"#utility.yul\":5041:5118   */\ntag_79:\n    /* \"#utility.yul\":5144:5211   */\n  tag_80\n    /* \"#utility.yul\":5204:5210   */\n  dup6\n    /* \"#utility.yul\":5197:5202   */\n  dup3\n    /* \"#utility.yul\":5144:5211   */\n  tag_24\n  jump\t// in\ntag_80:\n    /* \"#utility.yul\":5138:5142   */\n  dup7\n    /* \"#utility.yul\":5131:5212   */\n  sstore\n    /* \"#utility.yul\":5000:5222   */\n  pop\n    /* \"#utility.yul\":4335:5222   */\n  jump(tag_77)\n    /* \"#utility.yul\":4365:4983   */\ntag_78:\n    /* \"#utility.yul\":4417:4421   */\n  0x1f\n    /* \"#utility.yul\":4413:4422   */\n  not\n    /* \"#utility.yul\":4405:4411   */\n  dup5\n    /* \"#utility.yul\":4401:4423   */\n  and\n    /* \"#utility.yul\":4451:4488   */\n  tag_81\n    /* \"#utility.yul\":4483:4487   */\n  dup7\n    /* \"#utility.yul\":4451:4488   */\n  tag_9\n  jump\t// in\ntag_81:\n    /* \"#utility.yul\":4510:4511   */\n  0x00\n    /* \"#utility.yul\":4524:4732   */\ntag_82:\n    /* \"#utility.yul\":4538:4545   */\n  dup3\n    /* \"#utility.yul\":4535:4536   */\n  dup2\n    /* \"#utility.yul\":4532:4546   */\n  lt\n    /* \"#utility.yul\":4524:4732   */\n  iszero\n  tag_84\n  jumpi\n    /* \"#utility.yul\":4617:4626   */\n  dup5\n    /* \"#utility.yul\":4612:4615   */\n  dup10\n    /* \"#utility.yul\":4608:4627   */\n  add\n    /* \"#utility.yul\":4602:4628   */\n  mload\n    /* \"#utility.yul\":4594:4600   */\n  dup3\n    /* \"#utility.yul\":4587:4629   */\n  sstore\n    /* \"#utility.yul\":4668:4669   */\n  0x01\n    /* \"#utility.yul\":4660:4666   */\n  dup3\n    /* \"#utility.yul\":4656:4670   */\n  add\n    /* \"#utility.yul\":4646:4670   */\n  swap2\n  pop\n    /* \"#utility.yul\":4715:4717   */\n  0x20\n    /* \"#utility.yul\":4704:4713   */\n  dup6\n    /* \"#utility.yul\":4700:4718   */\n  add\n    /* \"#utility.yul\":4687:4718   */\n  swap5\n  pop\n    /* \"#utility.yul\":4561:4565   */\n  0x20\n    /* \"#utility.yul\":4558:4559   */\n  dup2\n    /* \"#utility.yul\":4554:4566   */\n  add\n    /* \"#utility.yul\":4549:4566   */\n  swap1\n  pop\n    /* \"#utility.yul\":4524:4732   */\n  jump(tag_82)\ntag_84:\n    /* \"#utility.yul\":4760:4766   */\n  dup7\n    /* \"#utility.yul\":4751:4758   */\n  dup4\n    /* \"#utility.yul\":4748:4767   */\n  lt\n    /* \"#utility.yul\":4745:4924   */\n  iszero\n  tag_85\n  jumpi\n    /* \"#utility.yul\":4818:4827   */\n  dup5\n    /* \"#utility.yul\":4813:4816   */\n  dup10\n    /* \"#utility.yul\":4809:4828   */\n  add\n    /* \"#utility.yul\":4803:4829   */\n  mload\n    /* \"#utility.yul\":4861:4909   */\n  tag_86\n    /* \"#utility.yul\":4903:4907   */\n  0x1f\n    /* \"#utility.yul\":4895:4901   */\n  dup10\n    /* \"#utility.yul\":4891:4908   */\n  and\n    /* \"#utility.yul\":4880:4889   */\n  dup3\n    /* \"#utility.yul\":4861:4909   */\n  tag_23\n  jump\t// in\ntag_86:\n    /* \"#utility.yul\":4853:4859   */\n  dup4\n    /* \"#utility.yul\":4846:4910   */\n  sstore\n    /* \"#utility.yul\":4768:4924   */\n  pop\n    /* \"#utility.yul\":4745:4924   */\ntag_85:\n    /* \"#utility.yul\":4970:4971   */\n  0x01\n    /* \"#utility.yul\":4966:4967   */\n  0x02\n    /* \"#utility.yul\":4958:4964   */\n  dup9\n    /* \"#utility.yul\":4954:4968   */\n  mul\n    /* \"#utility.yul\":4950:4972   */\n  add\n    /* \"#utility.yul\":4944:4948   */\n  dup9\n    /* \"#utility.yul\":4937:4973   */\n  sstore\n    /* \"#utility.yul\":4372:4983   */\n  pop\n  pop\n  pop\n    /* \"#utility.yul\":4335:5222   */\ntag_77:\n  pop\n    /* \"#utility.yul\":3925:5228   */\n  pop\n  pop\n  pop\n    /* \"#utility.yul\":3833:5228   */\n  pop\n  pop\n  jump\t// out\n    /* \"syntax/function.sol\":58:941  contract Demo {... */\ntag_4:\n  dataSize(sub_0)\n  dup1\n  dataOffset(sub_0)\n  0x00\n  codecopy\n  0x00\n  return\nstop\n\nsub_0: assembly {\n        /* \"syntax/function.sol\":58:941  contract Demo {... */\n      mstore(0x40, 0x80)\n      jumpi(tag_1, lt(calldatasize, 0x04))\n      shr(0xe0, calldataload(0x00))\n      dup1\n      0x0a70cae0\n      eq\n      tag_2\n      jumpi\n      dup1\n      0x12065fe0\n      eq\n      tag_3\n      jumpi\n      dup1\n      0x1b9265b8\n      eq\n      tag_4\n      jumpi\n      dup1\n      0x368b8772\n      eq\n      tag_5\n      jumpi\n      dup1\n      0xb69ef8a8\n      eq\n      tag_6\n      jumpi\n    tag_1:\n      0x00\n      dup1\n      revert\n        /* \"syntax/function.sol\":632:739  function getBalance2() public view returns(uint balance) {... */\n    tag_2:\n      callvalue\n      dup1\n      iszero\n      tag_7\n      jumpi\n      0x00\n      dup1\n      revert\n    tag_7:\n      pop\n      tag_8\n      tag_9\n      jump\t// in\n    tag_8:\n      mload(0x40)\n      tag_10\n      swap2\n      swap1\n      tag_11\n      jump\t// in\n    tag_10:\n      mload(0x40)\n      dup1\n      swap2\n      sub\n      swap1\n      return\n        /* \"syntax/function.sol\":496:624  function getBalance() public view returns(uint) {... */\n    tag_3:\n      callvalue\n      dup1\n      iszero\n      tag_12\n      jumpi\n      0x00\n      dup1\n      revert\n    tag_12:\n      pop\n      tag_13\n      tag_14\n      jump\t// in\n    tag_13:\n      mload(0x40)\n      tag_15\n      swap2\n      swap1\n      tag_11\n      jump\t// in\n    tag_15:\n      mload(0x40)\n      dup1\n      swap2\n      sub\n      swap1\n      return\n        /* \"syntax/function.sol\":419:488  function pay() public payable {... */\n    tag_4:\n      tag_16\n      tag_17\n      jump\t// in\n    tag_16:\n      stop\n        /* \"syntax/function.sol\":286:379  function setMessage(string memory newMessage) external{... */\n    tag_5:\n      callvalue\n      dup1\n      iszero\n      tag_18\n      jumpi\n      0x00\n      dup1\n      revert\n    tag_18:\n      pop\n      tag_19\n      0x04\n      dup1\n      calldatasize\n      sub\n      dup2\n      add\n      swap1\n      tag_20\n      swap2\n      swap1\n      tag_21\n      jump\t// in\n    tag_20:\n      tag_22\n      jump\t// in\n    tag_19:\n      stop\n        /* \"syntax/function.sol\":391:410  uint public balance */\n    tag_6:\n      callvalue\n      dup1\n      iszero\n      tag_23\n      jumpi\n      0x00\n      dup1\n      revert\n    tag_23:\n      pop\n      tag_24\n      tag_25\n      jump\t// in\n    tag_24:\n      mload(0x40)\n      tag_26\n      swap2\n      swap1\n      tag_11\n      jump\t// in\n    tag_26:\n      mload(0x40)\n      dup1\n      swap2\n      sub\n      swap1\n      return\n        /* \"syntax/function.sol\":632:739  function getBalance2() public view returns(uint balance) {... */\n    tag_9:\n        /* \"syntax/function.sol\":675:687  uint balance */\n      0x00\n        /* \"syntax/function.sol\":710:731  address(this).balance */\n      selfbalance\n        /* \"syntax/function.sol\":700:731  balance = address(this).balance */\n      swap1\n      pop\n        /* \"syntax/function.sol\":632:739  function getBalance2() public view returns(uint balance) {... */\n      swap1\n      jump\t// out\n        /* \"syntax/function.sol\":496:624  function getBalance() public view returns(uint) {... */\n    tag_14:\n        /* \"syntax/function.sol\":538:542  uint */\n      0x00\n        /* \"syntax/function.sol\":555:567  uint balance */\n      dup1\n        /* \"syntax/function.sol\":570:591  address(this).balance */\n      selfbalance\n        /* \"syntax/function.sol\":555:591  uint balance = address(this).balance */\n      swap1\n      pop\n        /* \"syntax/function.sol\":609:616  balance */\n      dup1\n        /* \"syntax/function.sol\":602:616  return balance */\n      swap2\n      pop\n      pop\n        /* \"syntax/function.sol\":496:624  function getBalance() public view returns(uint) {... */\n      swap1\n      jump\t// out\n        /* \"syntax/function.sol\":419:488  function pay() public payable {... */\n    tag_17:\n        /* \"syntax/function.sol\":471:480  msg.value */\n      callvalue\n        /* \"syntax/function.sol\":460:467  balance */\n      0x01\n      0x00\n        /* \"syntax/function.sol\":460:480  balance += msg.value */\n      dup3\n      dup3\n      sload\n      tag_30\n      swap2\n      swap1\n      tag_31\n      jump\t// in\n    tag_30:\n      swap3\n      pop\n      pop\n      dup2\n      swap1\n      sstore\n      pop\n        /* \"syntax/function.sol\":419:488  function pay() public payable {... */\n      jump\t// out\n        /* \"syntax/function.sol\":286:379  function setMessage(string memory newMessage) external{... */\n    tag_22:\n        /* \"syntax/function.sol\":361:371  newMessage */\n      dup1\n        /* \"syntax/function.sol\":351:358  message */\n      0x00\n        /* \"syntax/function.sol\":351:371  message = newMessage */\n      swap1\n      dup2\n      tag_33\n      swap2\n      swap1\n      tag_34\n      jump\t// in\n    tag_33:\n      pop\n        /* \"syntax/function.sol\":286:379  function setMessage(string memory newMessage) external{... */\n      pop\n      jump\t// out\n        /* \"syntax/function.sol\":391:410  uint public balance */\n    tag_25:\n      sload(0x01)\n      dup2\n      jump\t// out\n        /* \"#utility.yul\":7:84   */\n    tag_35:\n        /* \"#utility.yul\":44:51   */\n      0x00\n        /* \"#utility.yul\":73:78   */\n      dup2\n        /* \"#utility.yul\":62:78   */\n      swap1\n      pop\n        /* \"#utility.yul\":7:84   */\n      swap2\n      swap1\n      pop\n      jump\t// out\n        /* \"#utility.yul\":90:208   */\n    tag_36:\n        /* \"#utility.yul\":177:201   */\n      tag_72\n        /* \"#utility.yul\":195:200   */\n      dup2\n        /* \"#utility.yul\":177:201   */\n      tag_35\n      jump\t// in\n    tag_72:\n        /* \"#utility.yul\":172:175   */\n      dup3\n        /* \"#utility.yul\":165:202   */\n      mstore\n        /* \"#utility.yul\":90:208   */\n      pop\n      pop\n      jump\t// out\n        /* \"#utility.yul\":214:436   */\n    tag_11:\n        /* \"#utility.yul\":307:311   */\n      0x00\n        /* \"#utility.yul\":345:347   */\n      0x20\n        /* \"#utility.yul\":334:343   */\n      dup3\n        /* \"#utility.yul\":330:348   */\n      add\n        /* \"#utility.yul\":322:348   */\n      swap1\n      pop\n        /* \"#utility.yul\":358:429   */\n      tag_74\n        /* \"#utility.yul\":426:427   */\n      0x00\n        /* \"#utility.yul\":415:424   */\n      dup4\n        /* \"#utility.yul\":411:428   */\n      add\n        /* \"#utility.yul\":402:408   */\n      dup5\n        /* \"#utility.yul\":358:429   */\n      tag_36\n      jump\t// in\n    tag_74:\n        /* \"#utility.yul\":214:436   */\n      swap3\n      swap2\n      pop\n      pop\n      jump\t// out\n        /* \"#utility.yul\":442:517   */\n    tag_37:\n        /* \"#utility.yul\":475:481   */\n      0x00\n        /* \"#utility.yul\":508:510   */\n      0x40\n        /* \"#utility.yul\":502:511   */\n      mload\n        /* \"#utility.yul\":492:511   */\n      swap1\n      pop\n        /* \"#utility.yul\":442:517   */\n      swap1\n      jump\t// out\n        /* \"#utility.yul\":523:640   */\n    tag_38:\n        /* \"#utility.yul\":632:633   */\n      0x00\n        /* \"#utility.yul\":629:630   */\n      dup1\n        /* \"#utility.yul\":622:634   */\n      revert\n        /* \"#utility.yul\":646:763   */\n    tag_39:\n        /* \"#utility.yul\":755:756   */\n      0x00\n        /* \"#utility.yul\":752:753   */\n      dup1\n        /* \"#utility.yul\":745:757   */\n      revert\n        /* \"#utility.yul\":769:886   */\n    tag_40:\n        /* \"#utility.yul\":878:879   */\n      0x00\n        /* \"#utility.yul\":875:876   */\n      dup1\n        /* \"#utility.yul\":868:880   */\n      revert\n        /* \"#utility.yul\":892:1009   */\n    tag_41:\n        /* \"#utility.yul\":1001:1002   */\n      0x00\n        /* \"#utility.yul\":998:999   */\n      dup1\n        /* \"#utility.yul\":991:1003   */\n      revert\n        /* \"#utility.yul\":1015:1117   */\n    tag_42:\n        /* \"#utility.yul\":1056:1062   */\n      0x00\n        /* \"#utility.yul\":1107:1109   */\n      0x1f\n        /* \"#utility.yul\":1103:1110   */\n      not\n        /* \"#utility.yul\":1098:1100   */\n      0x1f\n        /* \"#utility.yul\":1091:1096   */\n      dup4\n        /* \"#utility.yul\":1087:1101   */\n      add\n        /* \"#utility.yul\":1083:1111   */\n      and\n        /* \"#utility.yul\":1073:1111   */\n      swap1\n      pop\n        /* \"#utility.yul\":1015:1117   */\n      swap2\n      swap1\n      pop\n      jump\t// out\n        /* \"#utility.yul\":1123:1303   */\n    tag_43:\n        /* \"#utility.yul\":1171:1248   */\n      0x4e487b7100000000000000000000000000000000000000000000000000000000\n        /* \"#utility.yul\":1168:1169   */\n      0x00\n        /* \"#utility.yul\":1161:1249   */\n      mstore\n        /* \"#utility.yul\":1268:1272   */\n      0x41\n        /* \"#utility.yul\":1265:1266   */\n      0x04\n        /* \"#utility.yul\":1258:1273   */\n      mstore\n        /* \"#utility.yul\":1292:1296   */\n      0x24\n        /* \"#utility.yul\":1289:1290   */\n      0x00\n        /* \"#utility.yul\":1282:1297   */\n      revert\n        /* \"#utility.yul\":1309:1590   */\n    tag_44:\n        /* \"#utility.yul\":1392:1419   */\n      tag_83\n        /* \"#utility.yul\":1414:1418   */\n      dup3\n        /* \"#utility.yul\":1392:1419   */\n      tag_42\n      jump\t// in\n    tag_83:\n        /* \"#utility.yul\":1384:1390   */\n      dup2\n        /* \"#utility.yul\":1380:1420   */\n      add\n        /* \"#utility.yul\":1522:1528   */\n      dup2\n        /* \"#utility.yul\":1510:1520   */\n      dup2\n        /* \"#utility.yul\":1507:1529   */\n      lt\n        /* \"#utility.yul\":1486:1504   */\n      0xffffffffffffffff\n        /* \"#utility.yul\":1474:1484   */\n      dup3\n        /* \"#utility.yul\":1471:1505   */\n      gt\n        /* \"#utility.yul\":1468:1530   */\n      or\n        /* \"#utility.yul\":1465:1553   */\n      iszero\n      tag_84\n      jumpi\n        /* \"#utility.yul\":1533:1551   */\n      tag_85\n      tag_43\n      jump\t// in\n    tag_85:\n        /* \"#utility.yul\":1465:1553   */\n    tag_84:\n        /* \"#utility.yul\":1573:1583   */\n      dup1\n        /* \"#utility.yul\":1569:1571   */\n      0x40\n        /* \"#utility.yul\":1562:1584   */\n      mstore\n        /* \"#utility.yul\":1352:1590   */\n      pop\n        /* \"#utility.yul\":1309:1590   */\n      pop\n      pop\n      jump\t// out\n        /* \"#utility.yul\":1596:1725   */\n    tag_45:\n        /* \"#utility.yul\":1630:1636   */\n      0x00\n        /* \"#utility.yul\":1657:1677   */\n      tag_87\n      tag_37\n      jump\t// in\n    tag_87:\n        /* \"#utility.yul\":1647:1677   */\n      swap1\n      pop\n        /* \"#utility.yul\":1686:1719   */\n      tag_88\n        /* \"#utility.yul\":1714:1718   */\n      dup3\n        /* \"#utility.yul\":1706:1712   */\n      dup3\n        /* \"#utility.yul\":1686:1719   */\n      tag_44\n      jump\t// in\n    tag_88:\n        /* \"#utility.yul\":1596:1725   */\n      swap2\n      swap1\n      pop\n      jump\t// out\n        /* \"#utility.yul\":1731:2039   */\n    tag_46:\n        /* \"#utility.yul\":1793:1797   */\n      0x00\n        /* \"#utility.yul\":1883:1901   */\n      0xffffffffffffffff\n        /* \"#utility.yul\":1875:1881   */\n      dup3\n        /* \"#utility.yul\":1872:1902   */\n      gt\n        /* \"#utility.yul\":1869:1925   */\n      iszero\n      tag_90\n      jumpi\n        /* \"#utility.yul\":1905:1923   */\n      tag_91\n      tag_43\n      jump\t// in\n    tag_91:\n        /* \"#utility.yul\":1869:1925   */\n    tag_90:\n        /* \"#utility.yul\":1943:1972   */\n      tag_92\n        /* \"#utility.yul\":1965:1971   */\n      dup3\n        /* \"#utility.yul\":1943:1972   */\n      tag_42\n      jump\t// in\n    tag_92:\n        /* \"#utility.yul\":1935:1972   */\n      swap1\n      pop\n        /* \"#utility.yul\":2027:2031   */\n      0x20\n        /* \"#utility.yul\":2021:2025   */\n      dup2\n        /* \"#utility.yul\":2017:2032   */\n      add\n        /* \"#utility.yul\":2009:2032   */\n      swap1\n      pop\n        /* \"#utility.yul\":1731:2039   */\n      swap2\n      swap1\n      pop\n      jump\t// out\n        /* \"#utility.yul\":2045:2191   */\n    tag_47:\n        /* \"#utility.yul\":2142:2148   */\n      dup3\n        /* \"#utility.yul\":2137:2140   */\n      dup2\n        /* \"#utility.yul\":2132:2135   */\n      dup4\n        /* \"#utility.yul\":2119:2149   */\n      calldatacopy\n        /* \"#utility.yul\":2183:2184   */\n      0x00\n        /* \"#utility.yul\":2174:2180   */\n      dup4\n        /* \"#utility.yul\":2169:2172   */\n      dup4\n        /* \"#utility.yul\":2165:2181   */\n      add\n        /* \"#utility.yul\":2158:2185   */\n      mstore\n        /* \"#utility.yul\":2045:2191   */\n      pop\n      pop\n      pop\n      jump\t// out\n        /* \"#utility.yul\":2197:2622   */\n    tag_48:\n        /* \"#utility.yul\":2275:2280   */\n      0x00\n        /* \"#utility.yul\":2300:2366   */\n      tag_95\n        /* \"#utility.yul\":2316:2365   */\n      tag_96\n        /* \"#utility.yul\":2358:2364   */\n      dup5\n        /* \"#utility.yul\":2316:2365   */\n      tag_46\n      jump\t// in\n    tag_96:\n        /* \"#utility.yul\":2300:2366   */\n      tag_45\n      jump\t// in\n    tag_95:\n        /* \"#utility.yul\":2291:2366   */\n      swap1\n      pop\n        /* \"#utility.yul\":2389:2395   */\n      dup3\n        /* \"#utility.yul\":2382:2387   */\n      dup2\n        /* \"#utility.yul\":2375:2396   */\n      mstore\n        /* \"#utility.yul\":2427:2431   */\n      0x20\n        /* \"#utility.yul\":2420:2425   */\n      dup2\n        /* \"#utility.yul\":2416:2432   */\n      add\n        /* \"#utility.yul\":2465:2468   */\n      dup5\n        /* \"#utility.yul\":2456:2462   */\n      dup5\n        /* \"#utility.yul\":2451:2454   */\n      dup5\n        /* \"#utility.yul\":2447:2463   */\n      add\n        /* \"#utility.yul\":2444:2469   */\n      gt\n        /* \"#utility.yul\":2441:2553   */\n      iszero\n      tag_97\n      jumpi\n        /* \"#utility.yul\":2472:2551   */\n      tag_98\n      tag_41\n      jump\t// in\n    tag_98:\n        /* \"#utility.yul\":2441:2553   */\n    tag_97:\n        /* \"#utility.yul\":2562:2616   */\n      tag_99\n        /* \"#utility.yul\":2609:2615   */\n      dup5\n        /* \"#utility.yul\":2604:2607   */\n      dup3\n        /* \"#utility.yul\":2599:2602   */\n      dup6\n        /* \"#utility.yul\":2562:2616   */\n      tag_47\n      jump\t// in\n    tag_99:\n        /* \"#utility.yul\":2281:2622   */\n      pop\n        /* \"#utility.yul\":2197:2622   */\n      swap4\n      swap3\n      pop\n      pop\n      pop\n      jump\t// out\n        /* \"#utility.yul\":2642:2982   */\n    tag_49:\n        /* \"#utility.yul\":2698:2703   */\n      0x00\n        /* \"#utility.yul\":2747:2750   */\n      dup3\n        /* \"#utility.yul\":2740:2744   */\n      0x1f\n        /* \"#utility.yul\":2732:2738   */\n      dup4\n        /* \"#utility.yul\":2728:2745   */\n      add\n        /* \"#utility.yul\":2724:2751   */\n      slt\n        /* \"#utility.yul\":2714:2836   */\n      tag_101\n      jumpi\n        /* \"#utility.yul\":2755:2834   */\n      tag_102\n      tag_40\n      jump\t// in\n    tag_102:\n        /* \"#utility.yul\":2714:2836   */\n    tag_101:\n        /* \"#utility.yul\":2872:2878   */\n      dup2\n        /* \"#utility.yul\":2859:2879   */\n      calldataload\n        /* \"#utility.yul\":2897:2976   */\n      tag_103\n        /* \"#utility.yul\":2972:2975   */\n      dup5\n        /* \"#utility.yul\":2964:2970   */\n      dup3\n        /* \"#utility.yul\":2957:2961   */\n      0x20\n        /* \"#utility.yul\":2949:2955   */\n      dup7\n        /* \"#utility.yul\":2945:2962   */\n      add\n        /* \"#utility.yul\":2897:2976   */\n      tag_48\n      jump\t// in\n    tag_103:\n        /* \"#utility.yul\":2888:2976   */\n      swap2\n      pop\n        /* \"#utility.yul\":2704:2982   */\n      pop\n        /* \"#utility.yul\":2642:2982   */\n      swap3\n      swap2\n      pop\n      pop\n      jump\t// out\n        /* \"#utility.yul\":2988:3497   */\n    tag_21:\n        /* \"#utility.yul\":3057:3063   */\n      0x00\n        /* \"#utility.yul\":3106:3108   */\n      0x20\n        /* \"#utility.yul\":3094:3103   */\n      dup3\n        /* \"#utility.yul\":3085:3092   */\n      dup5\n        /* \"#utility.yul\":3081:3104   */\n      sub\n        /* \"#utility.yul\":3077:3109   */\n      slt\n        /* \"#utility.yul\":3074:3193   */\n      iszero\n      tag_105\n      jumpi\n        /* \"#utility.yul\":3112:3191   */\n      tag_106\n      tag_38\n      jump\t// in\n    tag_106:\n        /* \"#utility.yul\":3074:3193   */\n    tag_105:\n        /* \"#utility.yul\":3260:3261   */\n      0x00\n        /* \"#utility.yul\":3249:3258   */\n      dup3\n        /* \"#utility.yul\":3245:3262   */\n      add\n        /* \"#utility.yul\":3232:3263   */\n      calldataload\n        /* \"#utility.yul\":3290:3308   */\n      0xffffffffffffffff\n        /* \"#utility.yul\":3282:3288   */\n      dup2\n        /* \"#utility.yul\":3279:3309   */\n      gt\n        /* \"#utility.yul\":3276:3393   */\n      iszero\n      tag_107\n      jumpi\n        /* \"#utility.yul\":3312:3391   */\n      tag_108\n      tag_39\n      jump\t// in\n    tag_108:\n        /* \"#utility.yul\":3276:3393   */\n    tag_107:\n        /* \"#utility.yul\":3417:3480   */\n      tag_109\n        /* \"#utility.yul\":3472:3479   */\n      dup5\n        /* \"#utility.yul\":3463:3469   */\n      dup3\n        /* \"#utility.yul\":3452:3461   */\n      dup6\n        /* \"#utility.yul\":3448:3470   */\n      add\n        /* \"#utility.yul\":3417:3480   */\n      tag_49\n      jump\t// in\n    tag_109:\n        /* \"#utility.yul\":3407:3480   */\n      swap2\n      pop\n        /* \"#utility.yul\":3203:3490   */\n      pop\n        /* \"#utility.yul\":2988:3497   */\n      swap3\n      swap2\n      pop\n      pop\n      jump\t// out\n        /* \"#utility.yul\":3503:3683   */\n    tag_50:\n        /* \"#utility.yul\":3551:3628   */\n      0x4e487b7100000000000000000000000000000000000000000000000000000000\n        /* \"#utility.yul\":3548:3549   */\n      0x00\n        /* \"#utility.yul\":3541:3629   */\n      mstore\n        /* \"#utility.yul\":3648:3652   */\n      0x11\n        /* \"#utility.yul\":3645:3646   */\n      0x04\n        /* \"#utility.yul\":3638:3653   */\n      mstore\n        /* \"#utility.yul\":3672:3676   */\n      0x24\n        /* \"#utility.yul\":3669:3670   */\n      0x00\n        /* \"#utility.yul\":3662:3677   */\n      revert\n        /* \"#utility.yul\":3689:3880   */\n    tag_31:\n        /* \"#utility.yul\":3729:3732   */\n      0x00\n        /* \"#utility.yul\":3748:3768   */\n      tag_112\n        /* \"#utility.yul\":3766:3767   */\n      dup3\n        /* \"#utility.yul\":3748:3768   */\n      tag_35\n      jump\t// in\n    tag_112:\n        /* \"#utility.yul\":3743:3768   */\n      swap2\n      pop\n        /* \"#utility.yul\":3782:3802   */\n      tag_113\n        /* \"#utility.yul\":3800:3801   */\n      dup4\n        /* \"#utility.yul\":3782:3802   */\n      tag_35\n      jump\t// in\n    tag_113:\n        /* \"#utility.yul\":3777:3802   */\n      swap3\n      pop\n        /* \"#utility.yul\":3825:3826   */\n      dup3\n        /* \"#utility.yul\":3822:3823   */\n      dup3\n        /* \"#utility.yul\":3818:3827   */\n      add\n        /* \"#utility.yul\":3811:3827   */\n      swap1\n      pop\n        /* \"#utility.yul\":3846:3849   */\n      dup1\n        /* \"#utility.yul\":3843:3844   */\n      dup3\n        /* \"#utility.yul\":3840:3850   */\n      gt\n        /* \"#utility.yul\":3837:3873   */\n      iszero\n      tag_114\n      jumpi\n        /* \"#utility.yul\":3853:3871   */\n      tag_115\n      tag_50\n      jump\t// in\n    tag_115:\n        /* \"#utility.yul\":3837:3873   */\n    tag_114:\n        /* \"#utility.yul\":3689:3880   */\n      swap3\n      swap2\n      pop\n      pop\n      jump\t// out\n        /* \"#utility.yul\":3886:3985   */\n    tag_51:\n        /* \"#utility.yul\":3938:3944   */\n      0x00\n        /* \"#utility.yul\":3972:3977   */\n      dup2\n        /* \"#utility.yul\":3966:3978   */\n      mload\n        /* \"#utility.yul\":3956:3978   */\n      swap1\n      pop\n        /* \"#utility.yul\":3886:3985   */\n      swap2\n      swap1\n      pop\n      jump\t// out\n        /* \"#utility.yul\":3991:4171   */\n    tag_52:\n        /* \"#utility.yul\":4039:4116   */\n      0x4e487b7100000000000000000000000000000000000000000000000000000000\n        /* \"#utility.yul\":4036:4037   */\n      0x00\n        /* \"#utility.yul\":4029:4117   */\n      mstore\n        /* \"#utility.yul\":4136:4140   */\n      0x22\n        /* \"#utility.yul\":4133:4134   */\n      0x04\n        /* \"#utility.yul\":4126:4141   */\n      mstore\n        /* \"#utility.yul\":4160:4164   */\n      0x24\n        /* \"#utility.yul\":4157:4158   */\n      0x00\n        /* \"#utility.yul\":4150:4165   */\n      revert\n        /* \"#utility.yul\":4177:4497   */\n    tag_53:\n        /* \"#utility.yul\":4221:4227   */\n      0x00\n        /* \"#utility.yul\":4258:4259   */\n      0x02\n        /* \"#utility.yul\":4252:4256   */\n      dup3\n        /* \"#utility.yul\":4248:4260   */\n      div\n        /* \"#utility.yul\":4238:4260   */\n      swap1\n      pop\n        /* \"#utility.yul\":4305:4306   */\n      0x01\n        /* \"#utility.yul\":4299:4303   */\n      dup3\n        /* \"#utility.yul\":4295:4307   */\n      and\n        /* \"#utility.yul\":4326:4344   */\n      dup1\n        /* \"#utility.yul\":4316:4397   */\n      tag_119\n      jumpi\n        /* \"#utility.yul\":4382:4386   */\n      0x7f\n        /* \"#utility.yul\":4374:4380   */\n      dup3\n        /* \"#utility.yul\":4370:4387   */\n      and\n        /* \"#utility.yul\":4360:4387   */\n      swap2\n      pop\n        /* \"#utility.yul\":4316:4397   */\n    tag_119:\n        /* \"#utility.yul\":4444:4446   */\n      0x20\n        /* \"#utility.yul\":4436:4442   */\n      dup3\n        /* \"#utility.yul\":4433:4447   */\n      lt\n        /* \"#utility.yul\":4413:4431   */\n      dup2\n        /* \"#utility.yul\":4410:4448   */\n      sub\n        /* \"#utility.yul\":4407:4491   */\n      tag_120\n      jumpi\n        /* \"#utility.yul\":4463:4481   */\n      tag_121\n      tag_52\n      jump\t// in\n    tag_121:\n        /* \"#utility.yul\":4407:4491   */\n    tag_120:\n        /* \"#utility.yul\":4228:4497   */\n      pop\n        /* \"#utility.yul\":4177:4497   */\n      swap2\n      swap1\n      pop\n      jump\t// out\n        /* \"#utility.yul\":4503:4644   */\n    tag_54:\n        /* \"#utility.yul\":4552:4556   */\n      0x00\n        /* \"#utility.yul\":4575:4578   */\n      dup2\n        /* \"#utility.yul\":4567:4578   */\n      swap1\n      pop\n        /* \"#utility.yul\":4598:4601   */\n      dup2\n        /* \"#utility.yul\":4595:4596   */\n      0x00\n        /* \"#utility.yul\":4588:4602   */\n      mstore\n        /* \"#utility.yul\":4632:4636   */\n      0x20\n        /* \"#utility.yul\":4629:4630   */\n      0x00\n        /* \"#utility.yul\":4619:4637   */\n      keccak256\n        /* \"#utility.yul\":4611:4637   */\n      swap1\n      pop\n        /* \"#utility.yul\":4503:4644   */\n      swap2\n      swap1\n      pop\n      jump\t// out\n        /* \"#utility.yul\":4650:4743   */\n    tag_55:\n        /* \"#utility.yul\":4687:4693   */\n      0x00\n        /* \"#utility.yul\":4734:4736   */\n      0x20\n        /* \"#utility.yul\":4729:4731   */\n      0x1f\n        /* \"#utility.yul\":4722:4727   */\n      dup4\n        /* \"#utility.yul\":4718:4732   */\n      add\n        /* \"#utility.yul\":4714:4737   */\n      div\n        /* \"#utility.yul\":4704:4737   */\n      swap1\n      pop\n        /* \"#utility.yul\":4650:4743   */\n      swap2\n      swap1\n      pop\n      jump\t// out\n        /* \"#utility.yul\":4749:4856   */\n    tag_56:\n        /* \"#utility.yul\":4793:4801   */\n      0x00\n        /* \"#utility.yul\":4843:4848   */\n      dup3\n        /* \"#utility.yul\":4837:4841   */\n      dup3\n        /* \"#utility.yul\":4833:4849   */\n      shl\n        /* \"#utility.yul\":4812:4849   */\n      swap1\n      pop\n        /* \"#utility.yul\":4749:4856   */\n      swap3\n      swap2\n      pop\n      pop\n      jump\t// out\n        /* \"#utility.yul\":4862:5255   */\n    tag_57:\n        /* \"#utility.yul\":4931:4937   */\n      0x00\n        /* \"#utility.yul\":4981:4982   */\n      0x08\n        /* \"#utility.yul\":4969:4979   */\n      dup4\n        /* \"#utility.yul\":4965:4983   */\n      mul\n        /* \"#utility.yul\":5004:5101   */\n      tag_126\n        /* \"#utility.yul\":5034:5100   */\n      0xffffffffffffffffffffffffffffffffffffffffffffffffffffffffffffffff\n        /* \"#utility.yul\":5023:5032   */\n      dup3\n        /* \"#utility.yul\":5004:5101   */\n      tag_56\n      jump\t// in\n    tag_126:\n        /* \"#utility.yul\":5122:5161   */\n      tag_127\n        /* \"#utility.yul\":5152:5160   */\n      dup7\n        /* \"#utility.yul\":5141:5150   */\n      dup4\n        /* \"#utility.yul\":5122:5161   */\n      tag_56\n      jump\t// in\n    tag_127:\n        /* \"#utility.yul\":5110:5161   */\n      swap6\n      pop\n        /* \"#utility.yul\":5194:5198   */\n      dup1\n        /* \"#utility.yul\":5190:5199   */\n      not\n        /* \"#utility.yul\":5183:5188   */\n      dup5\n        /* \"#utility.yul\":5179:5200   */\n      and\n        /* \"#utility.yul\":5170:5200   */\n      swap4\n      pop\n        /* \"#utility.yul\":5243:5247   */\n      dup1\n        /* \"#utility.yul\":5233:5241   */\n      dup7\n        /* \"#utility.yul\":5229:5248   */\n      and\n        /* \"#utility.yul\":5222:5227   */\n      dup5\n        /* \"#utility.yul\":5219:5249   */\n      or\n        /* \"#utility.yul\":5209:5249   */\n      swap3\n      pop\n        /* \"#utility.yul\":4938:5255   */\n      pop\n      pop\n        /* \"#utility.yul\":4862:5255   */\n      swap4\n      swap3\n      pop\n      pop\n      pop\n      jump\t// out\n        /* \"#utility.yul\":5261:5321   */\n    tag_58:\n        /* \"#utility.yul\":5289:5292   */\n      0x00\n        /* \"#utility.yul\":5310:5315   */\n      dup2\n        /* \"#utility.yul\":5303:5315   */\n      swap1\n      pop\n        /* \"#utility.yul\":5261:5321   */\n      swap2\n      swap1\n      pop\n      jump\t// out\n        /* \"#utility.yul\":5327:5469   */\n    tag_59:\n        /* \"#utility.yul\":5377:5386   */\n      0x00\n        /* \"#utility.yul\":5410:5463   */\n      tag_130\n        /* \"#utility.yul\":5428:5462   */\n      tag_131\n        /* \"#utility.yul\":5437:5461   */\n      tag_132\n        /* \"#utility.yul\":5455:5460   */\n      dup5\n        /* \"#utility.yul\":5437:5461   */\n      tag_35\n      jump\t// in\n    tag_132:\n        /* \"#utility.yul\":5428:5462   */\n      tag_58\n      jump\t// in\n    tag_131:\n        /* \"#utility.yul\":5410:5463   */\n      tag_35\n      jump\t// in\n    tag_130:\n        /* \"#utility.yul\":5397:5463   */\n      swap1\n      pop\n        /* \"#utility.yul\":5327:5469   */\n      swap2\n      swap1\n      pop\n      jump\t// out\n        /* \"#utility.yul\":5475:5550   */\n    tag_60:\n        /* \"#utility.yul\":5518:5521   */\n      0x00\n        /* \"#utility.yul\":5539:5544   */\n      dup2\n        /* \"#utility.yul\":5532:5544   */\n      swap1\n      pop\n        /* \"#utility.yul\":5475:5550   */\n      swap2\n      swap1\n      pop\n      jump\t// out\n        /* \"#utility.yul\":5556:5825   */\n    tag_61:\n        /* \"#utility.yul\":5666:5705   */\n      tag_135\n        /* \"#utility.yul\":5697:5704   */\n      dup4\n        /* \"#utility.yul\":5666:5705   */\n      tag_59\n      jump\t// in\n    tag_135:\n        /* \"#utility.yul\":5727:5818   */\n      tag_136\n        /* \"#utility.yul\":5776:5817   */\n      tag_137\n        /* \"#utility.yul\":5800:5816   */\n      dup3\n        /* \"#utility.yul\":5776:5817   */\n      tag_60\n      jump\t// in\n    tag_137:\n        /* \"#utility.yul\":5768:5774   */\n      dup5\n        /* \"#utility.yul\":5761:5765   */\n      dup5\n        /* \"#utility.yul\":5755:5766   */\n      sload\n        /* \"#utility.yul\":5727:5818   */\n      tag_57\n      jump\t// in\n    tag_136:\n        /* \"#utility.yul\":5721:5725   */\n      dup3\n        /* \"#utility.yul\":5714:5819   */\n      sstore\n        /* \"#utility.yul\":5632:5825   */\n      pop\n        /* \"#utility.yul\":5556:5825   */\n      pop\n      pop\n      pop\n      jump\t// out\n        /* \"#utility.yul\":5831:5904   */\n    tag_62:\n        /* \"#utility.yul\":5876:5879   */\n      0x00\n        /* \"#utility.yul\":5831:5904   */\n      swap1\n      jump\t// out\n        /* \"#utility.yul\":5910:6099   */\n    tag_63:\n        /* \"#utility.yul\":5987:6019   */\n      tag_140\n      tag_62\n      jump\t// in\n    tag_140:\n        /* \"#utility.yul\":6028:6093   */\n      tag_141\n        /* \"#utility.yul\":6086:6092   */\n      dup2\n        /* \"#utility.yul\":6078:6084   */\n      dup5\n        /* \"#utility.yul\":6072:6076   */\n      dup5\n        /* \"#utility.yul\":6028:6093   */\n      tag_61\n      jump\t// in\n    tag_141:\n        /* \"#utility.yul\":5963:6099   */\n      pop\n        /* \"#utility.yul\":5910:6099   */\n      pop\n      pop\n      jump\t// out\n        /* \"#utility.yul\":6105:6291   */\n    tag_64:\n        /* \"#utility.yul\":6165:6285   */\n    tag_143:\n        /* \"#utility.yul\":6182:6185   */\n      dup2\n        /* \"#utility.yul\":6175:6180   */\n      dup2\n        /* \"#utility.yul\":6172:6186   */\n      lt\n        /* \"#utility.yul\":6165:6285   */\n      iszero\n      tag_145\n      jumpi\n        /* \"#utility.yul\":6236:6275   */\n      tag_146\n        /* \"#utility.yul\":6273:6274   */\n      0x00\n        /* \"#utility.yul\":6266:6271   */\n      dup3\n        /* \"#utility.yul\":6236:6275   */\n      tag_63\n      jump\t// in\n    tag_146:\n        /* \"#utility.yul\":6209:6210   */\n      0x01\n        /* \"#utility.yul\":6202:6207   */\n      dup2\n        /* \"#utility.yul\":6198:6211   */\n      add\n        /* \"#utility.yul\":6189:6211   */\n      swap1\n      pop\n        /* \"#utility.yul\":6165:6285   */\n      jump(tag_143)\n    tag_145:\n        /* \"#utility.yul\":6105:6291   */\n      pop\n      pop\n      jump\t// out\n        /* \"#utility.yul\":6297:6840   */\n    tag_65:\n        /* \"#utility.yul\":6398:6400   */\n      0x1f\n        /* \"#utility.yul\":6393:6396   */\n      dup3\n        /* \"#utility.yul\":6390:6401   */\n      gt\n        /* \"#utility.yul\":6387:6833   */\n      iszero\n      tag_148\n      jumpi\n        /* \"#utility.yul\":6432:6470   */\n      tag_149\n        /* \"#utility.yul\":6464:6469   */\n      dup2\n        /* \"#utility.yul\":6432:6470   */\n      tag_54\n      jump\t// in\n    tag_149:\n        /* \"#utility.yul\":6516:6545   */\n      tag_150\n        /* \"#utility.yul\":6534:6544   */\n      dup5\n        /* \"#utility.yul\":6516:6545   */\n      tag_55\n      jump\t// in\n    tag_150:\n        /* \"#utility.yul\":6506:6514   */\n      dup2\n        /* \"#utility.yul\":6502:6546   */\n      add\n        /* \"#utility.yul\":6699:6701   */\n      0x20\n        /* \"#utility.yul\":6687:6697   */\n      dup6\n        /* \"#utility.yul\":6684:6702   */\n      lt\n        /* \"#utility.yul\":6681:6730   */\n      iszero\n      tag_151\n      jumpi\n        /* \"#utility.yul\":6720:6728   */\n      dup2\n        /* \"#utility.yul\":6705:6728   */\n      swap1\n      pop\n        /* \"#utility.yul\":6681:6730   */\n    tag_151:\n        /* \"#utility.yul\":6743:6823   */\n      tag_152\n        /* \"#utility.yul\":6799:6821   */\n      tag_153\n        /* \"#utility.yul\":6817:6820   */\n      dup6\n        /* \"#utility.yul\":6799:6821   */\n      tag_55\n      jump\t// in\n    tag_153:\n        /* \"#utility.yul\":6789:6797   */\n      dup4\n        /* \"#utility.yul\":6785:6822   */\n      add\n        /* \"#utility.yul\":6772:6783   */\n      dup3\n        /* \"#utility.yul\":6743:6823   */\n      tag_64\n      jump\t// in\n    tag_152:\n        /* \"#utility.yul\":6402:6833   */\n      pop\n      pop\n        /* \"#utility.yul\":6387:6833   */\n    tag_148:\n        /* \"#utility.yul\":6297:6840   */\n      pop\n      pop\n      pop\n      jump\t// out\n        /* \"#utility.yul\":6846:6963   */\n    tag_66:\n        /* \"#utility.yul\":6900:6908   */\n      0x00\n        /* \"#utility.yul\":6950:6955   */\n      dup3\n        /* \"#utility.yul\":6944:6948   */\n      dup3\n        /* \"#utility.yul\":6940:6956   */\n      shr\n        /* \"#utility.yul\":6919:6956   */\n      swap1\n      pop\n        /* \"#utility.yul\":6846:6963   */\n      swap3\n      swap2\n      pop\n      pop\n      jump\t// out\n        /* \"#utility.yul\":6969:7138   */\n    tag_67:\n        /* \"#utility.yul\":7013:7019   */\n      0x00\n        /* \"#utility.yul\":7046:7097   */\n      tag_156\n        /* \"#utility.yul\":7094:7095   */\n      0x00\n        /* \"#utility.yul\":7090:7096   */\n      not\n        /* \"#utility.yul\":7082:7087   */\n      dup5\n        /* \"#utility.yul\":7079:7080   */\n      0x08\n        /* \"#utility.yul\":7075:7088   */\n      mul\n        /* \"#utility.yul\":7046:7097   */\n      tag_66\n      jump\t// in\n    tag_156:\n        /* \"#utility.yul\":7042:7098   */\n      not\n        /* \"#utility.yul\":7127:7131   */\n      dup1\n        /* \"#utility.yul\":7121:7125   */\n      dup4\n        /* \"#utility.yul\":7117:7132   */\n      and\n        /* \"#utility.yul\":7107:7132   */\n      swap2\n      pop\n        /* \"#utility.yul\":7020:7138   */\n      pop\n        /* \"#utility.yul\":6969:7138   */\n      swap3\n      swap2\n      pop\n      pop\n      jump\t// out\n        /* \"#utility.yul\":7143:7438   */\n    tag_68:\n        /* \"#utility.yul\":7219:7223   */\n      0x00\n        /* \"#utility.yul\":7365:7394   */\n      tag_158\n        /* \"#utility.yul\":7390:7393   */\n      dup4\n        /* \"#utility.yul\":7384:7388   */\n      dup4\n        /* \"#utility.yul\":7365:7394   */\n      tag_67\n      jump\t// in\n    tag_158:\n        /* \"#utility.yul\":7357:7394   */\n      swap2\n      pop\n        /* \"#utility.yul\":7427:7430   */\n      dup3\n        /* \"#utility.yul\":7424:7425   */\n      0x02\n        /* \"#utility.yul\":7420:7431   */\n      mul\n        /* \"#utility.yul\":7414:7418   */\n      dup3\n        /* \"#utility.yul\":7411:7432   */\n      or\n        /* \"#utility.yul\":7403:7432   */\n      swap1\n      pop\n        /* \"#utility.yul\":7143:7438   */\n      swap3\n      swap2\n      pop\n      pop\n      jump\t// out\n        /* \"#utility.yul\":7443:8838   */\n    tag_34:\n        /* \"#utility.yul\":7560:7597   */\n      tag_160\n        /* \"#utility.yul\":7593:7596   */\n      dup3\n        /* \"#utility.yul\":7560:7597   */\n      tag_51\n      jump\t// in\n    tag_160:\n        /* \"#utility.yul\":7662:7680   */\n      0xffffffffffffffff\n        /* \"#utility.yul\":7654:7660   */\n      dup2\n        /* \"#utility.yul\":7651:7681   */\n      gt\n        /* \"#utility.yul\":7648:7704   */\n      iszero\n      tag_161\n      jumpi\n        /* \"#utility.yul\":7684:7702   */\n      tag_162\n      tag_43\n      jump\t// in\n    tag_162:\n        /* \"#utility.yul\":7648:7704   */\n    tag_161:\n        /* \"#utility.yul\":7728:7766   */\n      tag_163\n        /* \"#utility.yul\":7760:7764   */\n      dup3\n        /* \"#utility.yul\":7754:7765   */\n      sload\n        /* \"#utility.yul\":7728:7766   */\n      tag_53\n      jump\t// in\n    tag_163:\n        /* \"#utility.yul\":7813:7880   */\n      tag_164\n        /* \"#utility.yul\":7873:7879   */\n      dup3\n        /* \"#utility.yul\":7865:7871   */\n      dup3\n        /* \"#utility.yul\":7859:7863   */\n      dup6\n        /* \"#utility.yul\":7813:7880   */\n      tag_65\n      jump\t// in\n    tag_164:\n        /* \"#utility.yul\":7907:7908   */\n      0x00\n        /* \"#utility.yul\":7931:7935   */\n      0x20\n        /* \"#utility.yul\":7918:7935   */\n      swap1\n      pop\n        /* \"#utility.yul\":7963:7965   */\n      0x1f\n        /* \"#utility.yul\":7955:7961   */\n      dup4\n        /* \"#utility.yul\":7952:7966   */\n      gt\n        /* \"#utility.yul\":7980:7981   */\n      0x01\n        /* \"#utility.yul\":7975:8593   */\n      dup2\n      eq\n      tag_166\n      jumpi\n        /* \"#utility.yul\":8637:8638   */\n      0x00\n        /* \"#utility.yul\":8654:8660   */\n      dup5\n        /* \"#utility.yul\":8651:8728   */\n      iszero\n      tag_167\n      jumpi\n        /* \"#utility.yul\":8703:8712   */\n      dup3\n        /* \"#utility.yul\":8698:8701   */\n      dup8\n        /* \"#utility.yul\":8694:8713   */\n      add\n        /* \"#utility.yul\":8688:8714   */\n      mload\n        /* \"#utility.yul\":8679:8714   */\n      swap1\n      pop\n        /* \"#utility.yul\":8651:8728   */\n    tag_167:\n        /* \"#utility.yul\":8754:8821   */\n      tag_168\n        /* \"#utility.yul\":8814:8820   */\n      dup6\n        /* \"#utility.yul\":8807:8812   */\n      dup3\n        /* \"#utility.yul\":8754:8821   */\n      tag_68\n      jump\t// in\n    tag_168:\n        /* \"#utility.yul\":8748:8752   */\n      dup7\n        /* \"#utility.yul\":8741:8822   */\n      sstore\n        /* \"#utility.yul\":8610:8832   */\n      pop\n        /* \"#utility.yul\":7945:8832   */\n      jump(tag_165)\n        /* \"#utility.yul\":7975:8593   */\n    tag_166:\n        /* \"#utility.yul\":8027:8031   */\n      0x1f\n        /* \"#utility.yul\":8023:8032   */\n      not\n        /* \"#utility.yul\":8015:8021   */\n      dup5\n        /* \"#utility.yul\":8011:8033   */\n      and\n        /* \"#utility.yul\":8061:8098   */\n      tag_169\n        /* \"#utility.yul\":8093:8097   */\n      dup7\n        /* \"#utility.yul\":8061:8098   */\n      tag_54\n      jump\t// in\n    tag_169:\n        /* \"#utility.yul\":8120:8121   */\n      0x00\n        /* \"#utility.yul\":8134:8342   */\n    tag_170:\n        /* \"#utility.yul\":8148:8155   */\n      dup3\n        /* \"#utility.yul\":8145:8146   */\n      dup2\n        /* \"#utility.yul\":8142:8156   */\n      lt\n        /* \"#utility.yul\":8134:8342   */\n      iszero\n      tag_172\n      jumpi\n        /* \"#utility.yul\":8227:8236   */\n      dup5\n        /* \"#utility.yul\":8222:8225   */\n      dup10\n        /* \"#utility.yul\":8218:8237   */\n      add\n        /* \"#utility.yul\":8212:8238   */\n      mload\n        /* \"#utility.yul\":8204:8210   */\n      dup3\n        /* \"#utility.yul\":8197:8239   */\n      sstore\n        /* \"#utility.yul\":8278:8279   */\n      0x01\n        /* \"#utility.yul\":8270:8276   */\n      dup3\n        /* \"#utility.yul\":8266:8280   */\n      add\n        /* \"#utility.yul\":8256:8280   */\n      swap2\n      pop\n        /* \"#utility.yul\":8325:8327   */\n      0x20\n        /* \"#utility.yul\":8314:8323   */\n      dup6\n        /* \"#utility.yul\":8310:8328   */\n      add\n        /* \"#utility.yul\":8297:8328   */\n      swap5\n      pop\n        /* \"#utility.yul\":8171:8175   */\n      0x20\n        /* \"#utility.yul\":8168:8169   */\n      dup2\n        /* \"#utility.yul\":8164:8176   */\n      add\n        /* \"#utility.yul\":8159:8176   */\n      swap1\n      pop\n        /* \"#utility.yul\":8134:8342   */\n      jump(tag_170)\n    tag_172:\n        /* \"#utility.yul\":8370:8376   */\n      dup7\n        /* \"#utility.yul\":8361:8368   */\n      dup4\n        /* \"#utility.yul\":8358:8377   */\n      lt\n        /* \"#utility.yul\":8355:8534   */\n      iszero\n      tag_173\n      jumpi\n        /* \"#utility.yul\":8428:8437   */\n      dup5\n        /* \"#utility.yul\":8423:8426   */\n      dup10\n        /* \"#utility.yul\":8419:8438   */\n      add\n        /* \"#utility.yul\":8413:8439   */\n      mload\n        /* \"#utility.yul\":8471:8519   */\n      tag_174\n        /* \"#utility.yul\":8513:8517   */\n      0x1f\n        /* \"#utility.yul\":8505:8511   */\n      dup10\n        /* \"#utility.yul\":8501:8518   */\n      and\n        /* \"#utility.yul\":8490:8499   */\n      dup3\n        /* \"#utility.yul\":8471:8519   */\n      tag_67\n      jump\t// in\n    tag_174:\n        /* \"#utility.yul\":8463:8469   */\n      dup4\n        /* \"#utility.yul\":8456:8520   */\n      sstore\n        /* \"#utility.yul\":8378:8534   */\n      pop\n        /* \"#utility.yul\":8355:8534   */\n    tag_173:\n        /* \"#utility.yul\":8580:8581   */\n      0x01\n        /* \"#utility.yul\":8576:8577   */\n      0x02\n        /* \"#utility.yul\":8568:8574   */\n      dup9\n        /* \"#utility.yul\":8564:8578   */\n      mul\n        /* \"#utility.yul\":8560:8582   */\n      add\n        /* \"#utility.yul\":8554:8558   */\n      dup9\n        /* \"#utility.yul\":8547:8583   */\n      sstore\n        /* \"#utility.yul\":7982:8593   */\n      pop\n      pop\n      pop\n        /* \"#utility.yul\":7945:8832   */\n    tag_165:\n      pop\n        /* \"#utility.yul\":7535:8838   */\n      pop\n      pop\n      pop\n        /* \"#utility.yul\":7443:8838   */\n      pop\n      pop\n      jump\t// out\n\n    auxdata: 0xa264697066735822122056d147416ebef5e04d0a327f31b589744b264052589861bc5ee03b1bec712af564736f6c63430008160033\n}\n",
				"bytecode": {
					"linkReferences": {},
					"object": "60806040526040518060400160405280600381526020017f596f2100000000000000000000000000000000000000000000000000000000008152505f9081620000499190620002c1565b5034801562000056575f80fd5b50620003a5565b5f81519050919050565b7f4e487b71000000000000000000000000000000000000000000000000000000005f52604160045260245ffd5b7f4e487b71000000000000000000000000000000000000000000000000000000005f52602260045260245ffd5b5f6002820490506001821680620000d957607f821691505b602082108103620000ef57620000ee62000094565b5b50919050565b5f819050815f5260205f209050919050565b5f6020601f8301049050919050565b5f82821b905092915050565b5f60088302620001537fffffffffffffffffffffffffffffffffffffffffffffffffffffffffffffffff8262000116565b6200015f868362000116565b95508019841693508086168417925050509392505050565b5f819050919050565b5f819050919050565b5f620001a9620001a36200019d8462000177565b62000180565b62000177565b9050919050565b5f819050919050565b620001c48362000189565b620001dc620001d382620001b0565b84845462000122565b825550505050565b5f90565b620001f2620001e4565b620001ff818484620001b9565b505050565b5b8181101562000226576200021a5f82620001e8565b60018101905062000205565b5050565b601f82111562000275576200023f81620000f5565b6200024a8462000107565b810160208510156200025a578190505b62000272620002698562000107565b83018262000204565b50505b505050565b5f82821c905092915050565b5f620002975f19846008026200027a565b1980831691505092915050565b5f620002b1838362000286565b9150826002028217905092915050565b620002cc826200005d565b67ffffffffffffffff811115620002e857620002e762000067565b5b620002f48254620000c1565b620003018282856200022a565b5f60209050601f83116001811462000337575f841562000322578287015190505b6200032e8582620002a4565b8655506200039d565b601f1984166200034786620000f5565b5f5b82811015620003705784890151825560018201915060208501945060208101905062000349565b868310156200039057848901516200038c601f89168262000286565b8355505b6001600288020188555050505b505050505050565b61067080620003b35f395ff3fe608060405260043610610049575f3560e01c80630a70cae01461004d57806312065fe0146100775780631b9265b8146100a1578063368b8772146100ab578063b69ef8a8146100d3575b5f80fd5b348015610058575f80fd5b506100616100fd565b60405161006e919061015a565b60405180910390f35b348015610082575f80fd5b5061008b610104565b604051610098919061015a565b60405180910390f35b6100a9610110565b005b3480156100b6575f80fd5b506100d160048036038101906100cc91906102c0565b61012a565b005b3480156100de575f80fd5b506100e761013c565b6040516100f4919061015a565b60405180910390f35b5f47905090565b5f804790508091505090565b3460015f8282546101219190610334565b92505081905550565b805f9081610138919061056b565b5050565b60015481565b5f819050919050565b61015481610142565b82525050565b5f60208201905061016d5f83018461014b565b92915050565b5f604051905090565b5f80fd5b5f80fd5b5f80fd5b5f80fd5b5f601f19601f8301169050919050565b7f4e487b71000000000000000000000000000000000000000000000000000000005f52604160045260245ffd5b6101d28261018c565b810181811067ffffffffffffffff821117156101f1576101f061019c565b5b80604052505050565b5f610203610173565b905061020f82826101c9565b919050565b5f67ffffffffffffffff82111561022e5761022d61019c565b5b6102378261018c565b9050602081019050919050565b828183375f83830152505050565b5f61026461025f84610214565b6101fa565b9050828152602081018484840111156102805761027f610188565b5b61028b848285610244565b509392505050565b5f82601f8301126102a7576102a6610184565b5b81356102b7848260208601610252565b91505092915050565b5f602082840312156102d5576102d461017c565b5b5f82013567ffffffffffffffff8111156102f2576102f1610180565b5b6102fe84828501610293565b91505092915050565b7f4e487b71000000000000000000000000000000000000000000000000000000005f52601160045260245ffd5b5f61033e82610142565b915061034983610142565b925082820190508082111561036157610360610307565b5b92915050565b5f81519050919050565b7f4e487b71000000000000000000000000000000000000000000000000000000005f52602260045260245ffd5b5f60028204905060018216806103b557607f821691505b6020821081036103c8576103c7610371565b5b50919050565b5f819050815f5260205f209050919050565b5f6020601f8301049050919050565b5f82821b905092915050565b5f6008830261042a7fffffffffffffffffffffffffffffffffffffffffffffffffffffffffffffffff826103ef565b61043486836103ef565b95508019841693508086168417925050509392505050565b5f819050919050565b5f61046f61046a61046584610142565b61044c565b610142565b9050919050565b5f819050919050565b61048883610455565b61049c61049482610476565b8484546103fb565b825550505050565b5f90565b6104b06104a4565b6104bb81848461047f565b505050565b5b818110156104de576104d35f826104a8565b6001810190506104c1565b5050565b601f821115610523576104f4816103ce565b6104fd846103e0565b8101602085101561050c578190505b610520610518856103e0565b8301826104c0565b50505b505050565b5f82821c905092915050565b5f6105435f1984600802610528565b1980831691505092915050565b5f61055b8383610534565b9150826002028217905092915050565b61057482610367565b67ffffffffffffffff81111561058d5761058c61019c565b5b610597825461039e565b6105a28282856104e2565b5f60209050601f8311600181146105d3575f84156105c1578287015190505b6105cb8582610550565b865550610632565b601f1984166105e1866103ce565b5f5b82811015610608578489015182556001820191506020850194506020810190506105e3565b868310156106255784890151610621601f891682610534565b8355505b6001600288020188555050505b50505050505056fea264697066735822122056d147416ebef5e04d0a327f31b589744b264052589861bc5ee03b1bec712af564736f6c63430008160033",
					"opcodes": "PUSH1 0x80 PUSH1 0x40 MSTORE PUSH1 0x40 MLOAD DUP1 PUSH1 0x40 ADD PUSH1 0x40 MSTORE DUP1 PUSH1 0x3 DUP2 MSTORE PUSH1 0x20 ADD PUSH32 0x596F210000000000000000000000000000000000000000000000000000000000 DUP2 MSTORE POP PUSH0 SWAP1 DUP2 PUSH3 0x49 SWAP2 SWAP1 PUSH3 0x2C1 JUMP JUMPDEST POP CALLVALUE DUP1 ISZERO PUSH3 0x56 JUMPI PUSH0 DUP1 REVERT JUMPDEST POP PUSH3 0x3A5 JUMP JUMPDEST PUSH0 DUP2 MLOAD SWAP1 POP SWAP2 SWAP1 POP JUMP JUMPDEST PUSH32 0x4E487B7100000000000000000000000000000000000000000000000000000000 PUSH0 MSTORE PUSH1 0x41 PUSH1 0x4 MSTORE PUSH1 0x24 PUSH0 REVERT JUMPDEST PUSH32 0x4E487B7100000000000000000000000000000000000000000000000000000000 PUSH0 MSTORE PUSH1 0x22 PUSH1 0x4 MSTORE PUSH1 0x24 PUSH0 REVERT JUMPDEST PUSH0 PUSH1 0x2 DUP3 DIV SWAP1 POP PUSH1 0x1 DUP3 AND DUP1 PUSH3 0xD9 JUMPI PUSH1 0x7F DUP3 AND SWAP2 POP JUMPDEST PUSH1 0x20 DUP3 LT DUP2 SUB PUSH3 0xEF JUMPI PUSH3 0xEE PUSH3 0x94 JUMP JUMPDEST JUMPDEST POP SWAP2 SWAP1 POP JUMP JUMPDEST PUSH0 DUP2 SWAP1 POP DUP2 PUSH0 MSTORE PUSH1 0x20 PUSH0 KECCAK256 SWAP1 POP SWAP2 SWAP1 POP JUMP JUMPDEST PUSH0 PUSH1 0x20 PUSH1 0x1F DUP4 ADD DIV SWAP1 POP SWAP2 SWAP1 POP JUMP JUMPDEST PUSH0 DUP3 DUP3 SHL SWAP1 POP SWAP3 SWAP2 POP POP JUMP JUMPDEST PUSH0 PUSH1 0x8 DUP4 MUL PUSH3 0x153 PUSH32 0xFFFFFFFFFFFFFFFFFFFFFFFFFFFFFFFFFFFFFFFFFFFFFFFFFFFFFFFFFFFFFFFF DUP3 PUSH3 0x116 JUMP JUMPDEST PUSH3 0x15F DUP7 DUP4 PUSH3 0x116 JUMP JUMPDEST SWAP6 POP DUP1 NOT DUP5 AND SWAP4 POP DUP1 DUP7 AND DUP5 OR SWAP3 POP POP POP SWAP4 SWAP3 POP POP POP JUMP JUMPDEST PUSH0 DUP2 SWAP1 POP SWAP2 SWAP1 POP JUMP JUMPDEST PUSH0 DUP2 SWAP1 POP SWAP2 SWAP1 POP JUMP JUMPDEST PUSH0 PUSH3 0x1A9 PUSH3 0x1A3 PUSH3 0x19D DUP5 PUSH3 0x177 JUMP JUMPDEST PUSH3 0x180 JUMP JUMPDEST PUSH3 0x177 JUMP JUMPDEST SWAP1 POP SWAP2 SWAP1 POP JUMP JUMPDEST PUSH0 DUP2 SWAP1 POP SWAP2 SWAP1 POP JUMP JUMPDEST PUSH3 0x1C4 DUP4 PUSH3 0x189 JUMP JUMPDEST PUSH3 0x1DC PUSH3 0x1D3 DUP3 PUSH3 0x1B0 JUMP JUMPDEST DUP5 DUP5 SLOAD PUSH3 0x122 JUMP JUMPDEST DUP3 SSTORE POP POP POP POP JUMP JUMPDEST PUSH0 SWAP1 JUMP JUMPDEST PUSH3 0x1F2 PUSH3 0x1E4 JUMP JUMPDEST PUSH3 0x1FF DUP2 DUP5 DUP5 PUSH3 0x1B9 JUMP JUMPDEST POP POP POP JUMP JUMPDEST JUMPDEST DUP2 DUP2 LT ISZERO PUSH3 0x226 JUMPI PUSH3 0x21A PUSH0 DUP3 PUSH3 0x1E8 JUMP JUMPDEST PUSH1 0x1 DUP2 ADD SWAP1 POP PUSH3 0x205 JUMP JUMPDEST POP POP JUMP JUMPDEST PUSH1 0x1F DUP3 GT ISZERO PUSH3 0x275 JUMPI PUSH3 0x23F DUP2 PUSH3 0xF5 JUMP JUMPDEST PUSH3 0x24A DUP5 PUSH3 0x107 JUMP JUMPDEST DUP2 ADD PUSH1 0x20 DUP6 LT ISZERO PUSH3 0x25A JUMPI DUP2 SWAP1 POP JUMPDEST PUSH3 0x272 PUSH3 0x269 DUP6 PUSH3 0x107 JUMP JUMPDEST DUP4 ADD DUP3 PUSH3 0x204 JUMP JUMPDEST POP POP JUMPDEST POP POP POP JUMP JUMPDEST PUSH0 DUP3 DUP3 SHR SWAP1 POP SWAP3 SWAP2 POP POP JUMP JUMPDEST PUSH0 PUSH3 0x297 PUSH0 NOT DUP5 PUSH1 0x8 MUL PUSH3 0x27A JUMP JUMPDEST NOT DUP1 DUP4 AND SWAP2 POP POP SWAP3 SWAP2 POP POP JUMP JUMPDEST PUSH0 PUSH3 0x2B1 DUP4 DUP4 PUSH3 0x286 JUMP JUMPDEST SWAP2 POP DUP3 PUSH1 0x2 MUL DUP3 OR SWAP1 POP SWAP3 SWAP2 POP POP JUMP JUMPDEST PUSH3 0x2CC DUP3 PUSH3 0x5D JUMP JUMPDEST PUSH8 0xFFFFFFFFFFFFFFFF DUP2 GT ISZERO PUSH3 0x2E8 JUMPI PUSH3 0x2E7 PUSH3 0x67 JUMP JUMPDEST JUMPDEST PUSH3 0x2F4 DUP3 SLOAD PUSH3 0xC1 JUMP JUMPDEST PUSH3 0x301 DUP3 DUP3 DUP6 PUSH3 0x22A JUMP JUMPDEST PUSH0 PUSH1 0x20 SWAP1 POP PUSH1 0x1F DUP4 GT PUSH1 0x1 DUP2 EQ PUSH3 0x337 JUMPI PUSH0 DUP5 ISZERO PUSH3 0x322 JUMPI DUP3 DUP8 ADD MLOAD SWAP1 POP JUMPDEST PUSH3 0x32E DUP6 DUP3 PUSH3 0x2A4 JUMP JUMPDEST DUP7 SSTORE POP PUSH3 0x39D JUMP JUMPDEST PUSH1 0x1F NOT DUP5 AND PUSH3 0x347 DUP7 PUSH3 0xF5 JUMP JUMPDEST PUSH0 JUMPDEST DUP3 DUP2 LT ISZERO PUSH3 0x370 JUMPI DUP5 DUP10 ADD MLOAD DUP3 SSTORE PUSH1 0x1 DUP3 ADD SWAP2 POP PUSH1 0x20 DUP6 ADD SWAP5 POP PUSH1 0x20 DUP2 ADD SWAP1 POP PUSH3 0x349 JUMP JUMPDEST DUP7 DUP4 LT ISZERO PUSH3 0x390 JUMPI DUP5 DUP10 ADD MLOAD PUSH3 0x38C PUSH1 0x1F DUP10 AND DUP3 PUSH3 0x286 JUMP JUMPDEST DUP4 SSTORE POP JUMPDEST PUSH1 0x1 PUSH1 0x2 DUP9 MUL ADD DUP9 SSTORE POP POP POP JUMPDEST POP POP POP POP POP POP JUMP JUMPDEST PUSH2 0x670 DUP1 PUSH3 0x3B3 PUSH0 CODECOPY PUSH0 RETURN INVALID PUSH1 0x80 PUSH1 0x40 MSTORE PUSH1 0x4 CALLDATASIZE LT PUSH2 0x49 JUMPI PUSH0 CALLDATALOAD PUSH1 0xE0 SHR DUP1 PUSH4 0xA70CAE0 EQ PUSH2 0x4D JUMPI DUP1 PUSH4 0x12065FE0 EQ PUSH2 0x77 JUMPI DUP1 PUSH4 0x1B9265B8 EQ PUSH2 0xA1 JUMPI DUP1 PUSH4 0x368B8772 EQ PUSH2 0xAB JUMPI DUP1 PUSH4 0xB69EF8A8 EQ PUSH2 0xD3 JUMPI JUMPDEST PUSH0 DUP1 REVERT JUMPDEST CALLVALUE DUP1 ISZERO PUSH2 0x58 JUMPI PUSH0 DUP1 REVERT JUMPDEST POP PUSH2 0x61 PUSH2 0xFD JUMP JUMPDEST PUSH1 0x40 MLOAD PUSH2 0x6E SWAP2 SWAP1 PUSH2 0x15A JUMP JUMPDEST PUSH1 0x40 MLOAD DUP1 SWAP2 SUB SWAP1 RETURN JUMPDEST CALLVALUE DUP1 ISZERO PUSH2 0x82 JUMPI PUSH0 DUP1 REVERT JUMPDEST POP PUSH2 0x8B PUSH2 0x104 JUMP JUMPDEST PUSH1 0x40 MLOAD PUSH2 0x98 SWAP2 SWAP1 PUSH2 0x15A JUMP JUMPDEST PUSH1 0x40 MLOAD DUP1 SWAP2 SUB SWAP1 RETURN JUMPDEST PUSH2 0xA9 PUSH2 0x110 JUMP JUMPDEST STOP JUMPDEST CALLVALUE DUP1 ISZERO PUSH2 0xB6 JUMPI PUSH0 DUP1 REVERT JUMPDEST POP PUSH2 0xD1 PUSH1 0x4 DUP1 CALLDATASIZE SUB DUP2 ADD SWAP1 PUSH2 0xCC SWAP2 SWAP1 PUSH2 0x2C0 JUMP JUMPDEST PUSH2 0x12A JUMP JUMPDEST STOP JUMPDEST CALLVALUE DUP1 ISZERO PUSH2 0xDE JUMPI PUSH0 DUP1 REVERT JUMPDEST POP PUSH2 0xE7 PUSH2 0x13C JUMP JUMPDEST PUSH1 0x40 MLOAD PUSH2 0xF4 SWAP2 SWAP1 PUSH2 0x15A JUMP JUMPDEST PUSH1 0x40 MLOAD DUP1 SWAP2 SUB SWAP1 RETURN JUMPDEST PUSH0 SELFBALANCE SWAP1 POP SWAP1 JUMP JUMPDEST PUSH0 DUP1 SELFBALANCE SWAP1 POP DUP1 SWAP2 POP POP SWAP1 JUMP JUMPDEST CALLVALUE PUSH1 0x1 PUSH0 DUP3 DUP3 SLOAD PUSH2 0x121 SWAP2 SWAP1 PUSH2 0x334 JUMP JUMPDEST SWAP3 POP POP DUP2 SWAP1 SSTORE POP JUMP JUMPDEST DUP1 PUSH0 SWAP1 DUP2 PUSH2 0x138 SWAP2 SWAP1 PUSH2 0x56B JUMP JUMPDEST POP POP JUMP JUMPDEST PUSH1 0x1 SLOAD DUP2 JUMP JUMPDEST PUSH0 DUP2 SWAP1 POP SWAP2 SWAP1 POP JUMP JUMPDEST PUSH2 0x154 DUP2 PUSH2 0x142 JUMP JUMPDEST DUP3 MSTORE POP POP JUMP JUMPDEST PUSH0 PUSH1 0x20 DUP3 ADD SWAP1 POP PUSH2 0x16D PUSH0 DUP4 ADD DUP5 PUSH2 0x14B JUMP JUMPDEST SWAP3 SWAP2 POP POP JUMP JUMPDEST PUSH0 PUSH1 0x40 MLOAD SWAP1 POP SWAP1 JUMP JUMPDEST PUSH0 DUP1 REVERT JUMPDEST PUSH0 DUP1 REVERT JUMPDEST PUSH0 DUP1 REVERT JUMPDEST PUSH0 DUP1 REVERT JUMPDEST PUSH0 PUSH1 0x1F NOT PUSH1 0x1F DUP4 ADD AND SWAP1 POP SWAP2 SWAP1 POP JUMP JUMPDEST PUSH32 0x4E487B7100000000000000000000000000000000000000000000000000000000 PUSH0 MSTORE PUSH1 0x41 PUSH1 0x4 MSTORE PUSH1 0x24 PUSH0 REVERT JUMPDEST PUSH2 0x1D2 DUP3 PUSH2 0x18C JUMP JUMPDEST DUP2 ADD DUP2 DUP2 LT PUSH8 0xFFFFFFFFFFFFFFFF DUP3 GT OR ISZERO PUSH2 0x1F1 JUMPI PUSH2 0x1F0 PUSH2 0x19C JUMP JUMPDEST JUMPDEST DUP1 PUSH1 0x40 MSTORE POP POP POP JUMP JUMPDEST PUSH0 PUSH2 0x203 PUSH2 0x173 JUMP JUMPDEST SWAP1 POP PUSH2 0x20F DUP3 DUP3 PUSH2 0x1C9 JUMP JUMPDEST SWAP2 SWAP1 POP JUMP JUMPDEST PUSH0 PUSH8 0xFFFFFFFFFFFFFFFF DUP3 GT ISZERO PUSH2 0x22E JUMPI PUSH2 0x22D PUSH2 0x19C JUMP JUMPDEST JUMPDEST PUSH2 0x237 DUP3 PUSH2 0x18C JUMP JUMPDEST SWAP1 POP PUSH1 0x20 DUP2 ADD SWAP1 POP SWAP2 SWAP1 POP JUMP JUMPDEST DUP3 DUP2 DUP4 CALLDATACOPY PUSH0 DUP4 DUP4 ADD MSTORE POP POP POP JUMP JUMPDEST PUSH0 PUSH2 0x264 PUSH2 0x25F DUP5 PUSH2 0x214 JUMP JUMPDEST PUSH2 0x1FA JUMP JUMPDEST SWAP1 POP DUP3 DUP2 MSTORE PUSH1 0x20 DUP2 ADD DUP5 DUP5 DUP5 ADD GT ISZERO PUSH2 0x280 JUMPI PUSH2 0x27F PUSH2 0x188 JUMP JUMPDEST JUMPDEST PUSH2 0x28B DUP5 DUP3 DUP6 PUSH2 0x244 JUMP JUMPDEST POP SWAP4 SWAP3 POP POP POP JUMP JUMPDEST PUSH0 DUP3 PUSH1 0x1F DUP4 ADD SLT PUSH2 0x2A7 JUMPI PUSH2 0x2A6 PUSH2 0x184 JUMP JUMPDEST JUMPDEST DUP2 CALLDATALOAD PUSH2 0x2B7 DUP5 DUP3 PUSH1 0x20 DUP7 ADD PUSH2 0x252 JUMP JUMPDEST SWAP2 POP POP SWAP3 SWAP2 POP POP JUMP JUMPDEST PUSH0 PUSH1 0x20 DUP3 DUP5 SUB SLT ISZERO PUSH2 0x2D5 JUMPI PUSH2 0x2D4 PUSH2 0x17C JUMP JUMPDEST JUMPDEST PUSH0 DUP3 ADD CALLDATALOAD PUSH8 0xFFFFFFFFFFFFFFFF DUP2 GT ISZERO PUSH2 0x2F2 JUMPI PUSH2 0x2F1 PUSH2 0x180 JUMP JUMPDEST JUMPDEST PUSH2 0x2FE DUP5 DUP3 DUP6 ADD PUSH2 0x293 JUMP JUMPDEST SWAP2 POP POP SWAP3 SWAP2 POP POP JUMP JUMPDEST PUSH32 0x4E487B7100000000000000000000000000000000000000000000000000000000 PUSH0 MSTORE PUSH1 0x11 PUSH1 0x4 MSTORE PUSH1 0x24 PUSH0 REVERT JUMPDEST PUSH0 PUSH2 0x33E DUP3 PUSH2 0x142 JUMP JUMPDEST SWAP2 POP PUSH2 0x349 DUP4 PUSH2 0x142 JUMP JUMPDEST SWAP3 POP DUP3 DUP3 ADD SWAP1 POP DUP1 DUP3 GT ISZERO PUSH2 0x361 JUMPI PUSH2 0x360 PUSH2 0x307 JUMP JUMPDEST JUMPDEST SWAP3 SWAP2 POP POP JUMP JUMPDEST PUSH0 DUP2 MLOAD SWAP1 POP SWAP2 SWAP1 POP JUMP JUMPDEST PUSH32 0x4E487B7100000000000000000000000000000000000000000000000000000000 PUSH0 MSTORE PUSH1 0x22 PUSH1 0x4 MSTORE PUSH1 0x24 PUSH0 REVERT JUMPDEST PUSH0 PUSH1 0x2 DUP3 DIV SWAP1 POP PUSH1 0x1 DUP3 AND DUP1 PUSH2 0x3B5 JUMPI PUSH1 0x7F DUP3 AND SWAP2 POP JUMPDEST PUSH1 0x20 DUP3 LT DUP2 SUB PUSH2 0x3C8 JUMPI PUSH2 0x3C7 PUSH2 0x371 JUMP JUMPDEST JUMPDEST POP SWAP2 SWAP1 POP JUMP JUMPDEST PUSH0 DUP2 SWAP1 POP DUP2 PUSH0 MSTORE PUSH1 0x20 PUSH0 KECCAK256 SWAP1 POP SWAP2 SWAP1 POP JUMP JUMPDEST PUSH0 PUSH1 0x20 PUSH1 0x1F DUP4 ADD DIV SWAP1 POP SWAP2 SWAP1 POP JUMP JUMPDEST PUSH0 DUP3 DUP3 SHL SWAP1 POP SWAP3 SWAP2 POP POP JUMP JUMPDEST PUSH0 PUSH1 0x8 DUP4 MUL PUSH2 0x42A PUSH32 0xFFFFFFFFFFFFFFFFFFFFFFFFFFFFFFFFFFFFFFFFFFFFFFFFFFFFFFFFFFFFFFFF DUP3 PUSH2 0x3EF JUMP JUMPDEST PUSH2 0x434 DUP7 DUP4 PUSH2 0x3EF JUMP JUMPDEST SWAP6 POP DUP1 NOT DUP5 AND SWAP4 POP DUP1 DUP7 AND DUP5 OR SWAP3 POP POP POP SWAP4 SWAP3 POP POP POP JUMP JUMPDEST PUSH0 DUP2 SWAP1 POP SWAP2 SWAP1 POP JUMP JUMPDEST PUSH0 PUSH2 0x46F PUSH2 0x46A PUSH2 0x465 DUP5 PUSH2 0x142 JUMP JUMPDEST PUSH2 0x44C JUMP JUMPDEST PUSH2 0x142 JUMP JUMPDEST SWAP1 POP SWAP2 SWAP1 POP JUMP JUMPDEST PUSH0 DUP2 SWAP1 POP SWAP2 SWAP1 POP JUMP JUMPDEST PUSH2 0x488 DUP4 PUSH2 0x455 JUMP JUMPDEST PUSH2 0x49C PUSH2 0x494 DUP3 PUSH2 0x476 JUMP JUMPDEST DUP5 DUP5 SLOAD PUSH2 0x3FB JUMP JUMPDEST DUP3 SSTORE POP POP POP POP JUMP JUMPDEST PUSH0 SWAP1 JUMP JUMPDEST PUSH2 0x4B0 PUSH2 0x4A4 JUMP JUMPDEST PUSH2 0x4BB DUP2 DUP5 DUP5 PUSH2 0x47F JUMP JUMPDEST POP POP POP JUMP JUMPDEST JUMPDEST DUP2 DUP2 LT ISZERO PUSH2 0x4DE JUMPI PUSH2 0x4D3 PUSH0 DUP3 PUSH2 0x4A8 JUMP JUMPDEST PUSH1 0x1 DUP2 ADD SWAP1 POP PUSH2 0x4C1 JUMP JUMPDEST POP POP JUMP JUMPDEST PUSH1 0x1F DUP3 GT ISZERO PUSH2 0x523 JUMPI PUSH2 0x4F4 DUP2 PUSH2 0x3CE JUMP JUMPDEST PUSH2 0x4FD DUP5 PUSH2 0x3E0 JUMP JUMPDEST DUP2 ADD PUSH1 0x20 DUP6 LT ISZERO PUSH2 0x50C JUMPI DUP2 SWAP1 POP JUMPDEST PUSH2 0x520 PUSH2 0x518 DUP6 PUSH2 0x3E0 JUMP JUMPDEST DUP4 ADD DUP3 PUSH2 0x4C0 JUMP JUMPDEST POP POP JUMPDEST POP POP POP JUMP JUMPDEST PUSH0 DUP3 DUP3 SHR SWAP1 POP SWAP3 SWAP2 POP POP JUMP JUMPDEST PUSH0 PUSH2 0x543 PUSH0 NOT DUP5 PUSH1 0x8 MUL PUSH2 0x528 JUMP JUMPDEST NOT DUP1 DUP4 AND SWAP2 POP POP SWAP3 SWAP2 POP POP JUMP JUMPDEST PUSH0 PUSH2 0x55B DUP4 DUP4 PUSH2 0x534 JUMP JUMPDEST SWAP2 POP DUP3 PUSH1 0x2 MUL DUP3 OR SWAP1 POP SWAP3 SWAP2 POP POP JUMP JUMPDEST PUSH2 0x574 DUP3 PUSH2 0x367 JUMP JUMPDEST PUSH8 0xFFFFFFFFFFFFFFFF DUP2 GT ISZERO PUSH2 0x58D JUMPI PUSH2 0x58C PUSH2 0x19C JUMP JUMPDEST JUMPDEST PUSH2 0x597 DUP3 SLOAD PUSH2 0x39E JUMP JUMPDEST PUSH2 0x5A2 DUP3 DUP3 DUP6 PUSH2 0x4E2 JUMP JUMPDEST PUSH0 PUSH1 0x20 SWAP1 POP PUSH1 0x1F DUP4 GT PUSH1 0x1 DUP2 EQ PUSH2 0x5D3 JUMPI PUSH0 DUP5 ISZERO PUSH2 0x5C1 JUMPI DUP3 DUP8 ADD MLOAD SWAP1 POP JUMPDEST PUSH2 0x5CB DUP6 DUP3 PUSH2 0x550 JUMP JUMPDEST DUP7 SSTORE POP PUSH2 0x632 JUMP JUMPDEST PUSH1 0x1F NOT DUP5 AND PUSH2 0x5E1 DUP7 PUSH2 0x3CE JUMP JUMPDEST PUSH0 JUMPDEST DUP3 DUP2 LT ISZERO PUSH2 0x608 JUMPI DUP5 DUP10 ADD MLOAD DUP3 SSTORE PUSH1 0x1 DUP3 ADD SWAP2 POP PUSH1 0x20 DUP6 ADD SWAP5 POP PUSH1 0x20 DUP2 ADD SWAP1 POP PUSH2 0x5E3 JUMP JUMPDEST DUP7 DUP4 LT ISZERO PUSH2 0x625 JUMPI DUP5 DUP10 ADD MLOAD PUSH2 0x621 PUSH1 0x1F DUP10 AND DUP3 PUSH2 0x534 JUMP JUMPDEST DUP4 SSTORE POP JUMPDEST PUSH1 0x1 PUSH1 0x2 DUP9 MUL ADD DUP9 SSTORE POP POP POP JUMPDEST POP POP POP POP POP POP JUMP INVALID LOG2 PUSH5 0x6970667358 0x22 SLT KECCAK256 JUMP 0xD1 SELFBALANCE COINBASE PUSH15 0xBEF5E04D0A327F31B589744B264052 PC SWAP9 PUSH2 0xBC5E 0xE0 EXTCODESIZE SHL 0xEC PUSH18 0x2AF564736F6C634300081600330000000000 "
				},
				"gasEstimates": {
					"creation": {
						"codeDepositCost": "329600",
						"executionCost": "infinite",
						"totalCost": "infinite"
					},
					"external": {
						"balance()": "2491",
						"getBalance()": "347",
						"getBalance2()": "312",
						"pay()": "infinite",
						"setMessage(string)": "infinite"
					},
					"internal": {
						"getMessage()": "infinite",
						"rate(uint256)": "infinite"
					}
				},
				"methodIdentifiers": {
					"balance()": "b69ef8a8",
					"getBalance()": "12065fe0",
					"getBalance2()": "0a70cae0",
					"pay()": "1b9265b8",
					"setMessage(string)": "368b8772"
				}
			},
			"storageLayout": {
				"storage": [
					{
						"astId": 4,
						"contract": "syntax/function.sol:Demo",
						"label": "message",
						"offset": 0,
						"slot": "0",
						"type": "t_string_storage"
					},
					{
						"astId": 16,
						"contract": "syntax/function.sol:Demo",
						"label": "balance",
						"offset": 0,
						"slot": "1",
						"type": "t_uint256"
					}
				],
				"types": {
					"t_string_storage": {
						"encoding": "bytes",
						"label": "string",
						"numberOfBytes": "32"
					},
					"t_uint256": {
						"encoding": "inplace",
						"label": "uint256",
						"numberOfBytes": "32"
					}
				}
			},
			"userdoc": {
				"kind": "user",
				"methods": {},
				"version": 1
			}
		}
	}
}