{
	"syntax/enum.sol": {
		"Test": {
			"abi": [
				{
					"inputs": [
						{
							"internalType": "address",
							"name": "",
							"type": "address"
						}
					],
					"name": "balances",
					"outputs": [
						{
							"internalType": "uint256",
							"name": "totalPayments",
							"type": "uint256"
						}
					],
					"stateMutability": "view",
					"type": "function"
				},
				{
					"inputs": [
						{
							"internalType": "address",
							"name": "_addr",
							"type": "address"
						},
						{
							"internalType": "uint256",
							"name": "_index",
							"type": "uint256"
						}
					],
					"name": "getPayment",
					"outputs": [
						{
							"components": [
								{
									"internalType": "uint256",
									"name": "amount",
									"type": "uint256"
								},
								{
									"internalType": "uint256",
									"name": "timestamp",
									"type": "uint256"
								},
								{
									"internalType": "address",
									"name": "from",
									"type": "address"
								},
								{
									"internalType": "string",
									"name": "message",
									"type": "string"
								}
							],
							"internalType": "struct Test.Payment",
							"name": "",
							"type": "tuple"
						}
					],
					"stateMutability": "view",
					"type": "function"
				},
				{
					"inputs": [
						{
							"internalType": "string",
							"name": "message",
							"type": "string"
						}
					],
					"name": "pay",
					"outputs": [],
					"stateMutability": "payable",
					"type": "function"
				}
			],
			"devdoc": {
				"kind": "dev",
				"methods": {},
				"version": 1
			},
			"evm": {
				"assembly": "    /* \"syntax/enum.sol\":58:1766  contract Test {... */\n  mstore(0x40, 0x80)\n  callvalue\n  dup1\n  iszero\n  tag_1\n  jumpi\n  0x00\n  dup1\n  revert\ntag_1:\n  pop\n  dataSize(sub_0)\n  dup1\n  dataOffset(sub_0)\n  0x00\n  codecopy\n  0x00\n  return\nstop\n\nsub_0: assembly {\n        /* \"syntax/enum.sol\":58:1766  contract Test {... */\n      mstore(0x40, 0x80)\n      jumpi(tag_1, lt(calldatasize, 0x04))\n      shr(0xe0, calldataload(0x00))\n      dup1\n      0x27e235e3\n      eq\n      tag_2\n      jumpi\n      dup1\n      0x2b66d72e\n      eq\n      tag_3\n      jumpi\n      dup1\n      0x977a767c\n      eq\n      tag_4\n      jumpi\n    tag_1:\n      0x00\n      dup1\n      revert\n        /* \"syntax/enum.sol\":319:362  mapping(address => Balance) public balances */\n    tag_2:\n      callvalue\n      dup1\n      iszero\n      tag_5\n      jumpi\n      0x00\n      dup1\n      revert\n    tag_5:\n      pop\n      tag_6\n      0x04\n      dup1\n      calldatasize\n      sub\n      dup2\n      add\n      swap1\n      tag_7\n      swap2\n      swap1\n      tag_8\n      jump\t// in\n    tag_7:\n      tag_9\n      jump\t// in\n    tag_6:\n      mload(0x40)\n      tag_10\n      swap2\n      swap1\n      tag_11\n      jump\t// in\n    tag_10:\n      mload(0x40)\n      dup1\n      swap2\n      sub\n      swap1\n      return\n        /* \"syntax/enum.sol\":523:928  function pay(string memory message) public payable {... */\n    tag_3:\n      tag_12\n      0x04\n      dup1\n      calldatasize\n      sub\n      dup2\n      add\n      swap1\n      tag_13\n      swap2\n      swap1\n      tag_14\n      jump\t// in\n    tag_13:\n      tag_15\n      jump\t// in\n    tag_12:\n      stop\n        /* \"syntax/enum.sol\":371:513  function getPayment(address _addr, uint _index) public view returns(Payment memory) {... */\n    tag_4:\n      callvalue\n      dup1\n      iszero\n      tag_16\n      jumpi\n      0x00\n      dup1\n      revert\n    tag_16:\n      pop\n      tag_17\n      0x04\n      dup1\n      calldatasize\n      sub\n      dup2\n      add\n      swap1\n      tag_18\n      swap2\n      swap1\n      tag_19\n      jump\t// in\n    tag_18:\n      tag_20\n      jump\t// in\n    tag_17:\n      mload(0x40)\n      tag_21\n      swap2\n      swap1\n      tag_22\n      jump\t// in\n    tag_21:\n      mload(0x40)\n      dup1\n      swap2\n      sub\n      swap1\n      return\n        /* \"syntax/enum.sol\":319:362  mapping(address => Balance) public balances */\n    tag_9:\n      mstore(0x20, 0x00)\n      dup1\n      0x00\n      mstore\n      keccak256(0x00, 0x40)\n      0x00\n      swap2\n      pop\n      swap1\n      pop\n      dup1\n      0x00\n      add\n      sload\n      swap1\n      pop\n      dup2\n      jump\t// out\n        /* \"syntax/enum.sol\":523:928  function pay(string memory message) public payable {... */\n    tag_15:\n        /* \"syntax/enum.sol\":585:600  uint paymentNum */\n      0x00\n        /* \"syntax/enum.sol\":603:611  balances */\n      dup1\n        /* \"syntax/enum.sol\":603:623  balances[msg.sender] */\n      0x00\n        /* \"syntax/enum.sol\":612:622  msg.sender */\n      caller\n        /* \"syntax/enum.sol\":603:623  balances[msg.sender] */\n      0xffffffffffffffffffffffffffffffffffffffff\n      and\n      0xffffffffffffffffffffffffffffffffffffffff\n      and\n      dup2\n      mstore\n      0x20\n      add\n      swap1\n      dup2\n      mstore\n      0x20\n      add\n      0x00\n      keccak256\n        /* \"syntax/enum.sol\":603:637  balances[msg.sender].totalPayments */\n      0x00\n      add\n      sload\n        /* \"syntax/enum.sol\":585:637  uint paymentNum = balances[msg.sender].totalPayments */\n      swap1\n      pop\n        /* \"syntax/enum.sol\":649:657  balances */\n      0x00\n        /* \"syntax/enum.sol\":649:669  balances[msg.sender] */\n      dup1\n        /* \"syntax/enum.sol\":658:668  msg.sender */\n      caller\n        /* \"syntax/enum.sol\":649:669  balances[msg.sender] */\n      0xffffffffffffffffffffffffffffffffffffffff\n      and\n      0xffffffffffffffffffffffffffffffffffffffff\n      and\n      dup2\n      mstore\n      0x20\n      add\n      swap1\n      dup2\n      mstore\n      0x20\n      add\n      0x00\n      keccak256\n        /* \"syntax/enum.sol\":649:683  balances[msg.sender].totalPayments */\n      0x00\n      add\n      0x00\n        /* \"syntax/enum.sol\":649:685  balances[msg.sender].totalPayments++ */\n      dup2\n      sload\n      dup1\n      swap3\n      swap2\n      swap1\n      tag_24\n      swap1\n      tag_25\n      jump\t// in\n    tag_24:\n      swap2\n      swap1\n      pop\n      sstore\n      pop\n        /* \"syntax/enum.sol\":698:723  Payment memory newPayment */\n      0x00\n        /* \"syntax/enum.sol\":726:845  Payment(... */\n      mload(0x40)\n      dup1\n      0x80\n      add\n      0x40\n      mstore\n      dup1\n        /* \"syntax/enum.sol\":748:757  msg.value */\n      callvalue\n        /* \"syntax/enum.sol\":726:845  Payment(... */\n      dup2\n      mstore\n      0x20\n      add\n        /* \"syntax/enum.sol\":772:787  block.timestamp */\n      timestamp\n        /* \"syntax/enum.sol\":726:845  Payment(... */\n      dup2\n      mstore\n      0x20\n      add\n        /* \"syntax/enum.sol\":802:812  msg.sender */\n      caller\n        /* \"syntax/enum.sol\":726:845  Payment(... */\n      0xffffffffffffffffffffffffffffffffffffffff\n      and\n      dup2\n      mstore\n      0x20\n      add\n        /* \"syntax/enum.sol\":827:834  message */\n      dup5\n        /* \"syntax/enum.sol\":726:845  Payment(... */\n      dup2\n      mstore\n      pop\n        /* \"syntax/enum.sol\":698:845  Payment memory newPayment = Payment(... */\n      swap1\n      pop\n        /* \"syntax/enum.sol\":910:920  newPayment */\n      dup1\n        /* \"syntax/enum.sol\":866:874  balances */\n      0x00\n        /* \"syntax/enum.sol\":866:886  balances[msg.sender] */\n      dup1\n        /* \"syntax/enum.sol\":875:885  msg.sender */\n      caller\n        /* \"syntax/enum.sol\":866:886  balances[msg.sender] */\n      0xffffffffffffffffffffffffffffffffffffffff\n      and\n      0xffffffffffffffffffffffffffffffffffffffff\n      and\n      dup2\n      mstore\n      0x20\n      add\n      swap1\n      dup2\n      mstore\n      0x20\n      add\n      0x00\n      keccak256\n        /* \"syntax/enum.sol\":866:895  balances[msg.sender].payments */\n      0x01\n      add\n        /* \"syntax/enum.sol\":866:907  balances[msg.sender].payments[paymentNum] */\n      0x00\n        /* \"syntax/enum.sol\":896:906  paymentNum */\n      dup5\n        /* \"syntax/enum.sol\":866:907  balances[msg.sender].payments[paymentNum] */\n      dup2\n      mstore\n      0x20\n      add\n      swap1\n      dup2\n      mstore\n      0x20\n      add\n      0x00\n      keccak256\n        /* \"syntax/enum.sol\":866:920  balances[msg.sender].payments[paymentNum] = newPayment */\n      0x00\n      dup3\n      add\n      mload\n      dup2\n      0x00\n      add\n      sstore\n      0x20\n      dup3\n      add\n      mload\n      dup2\n      0x01\n      add\n      sstore\n      0x40\n      dup3\n      add\n      mload\n      dup2\n      0x02\n      add\n      exp(0x0100, 0x00)\n      dup2\n      sload\n      dup2\n      0xffffffffffffffffffffffffffffffffffffffff\n      mul\n      not\n      and\n      swap1\n      dup4\n      0xffffffffffffffffffffffffffffffffffffffff\n      and\n      mul\n      or\n      swap1\n      sstore\n      pop\n      0x60\n      dup3\n      add\n      mload\n      dup2\n      0x03\n      add\n      swap1\n      dup2\n      tag_26\n      swap2\n      swap1\n      tag_27\n      jump\t// in\n    tag_26:\n      pop\n      swap1\n      pop\n      pop\n        /* \"syntax/enum.sol\":574:928  {... */\n      pop\n      pop\n        /* \"syntax/enum.sol\":523:928  function pay(string memory message) public payable {... */\n      pop\n      jump\t// out\n        /* \"syntax/enum.sol\":371:513  function getPayment(address _addr, uint _index) public view returns(Payment memory) {... */\n    tag_20:\n        /* \"syntax/enum.sol\":439:453  Payment memory */\n      tag_28\n      tag_29\n      jump\t// in\n    tag_28:\n        /* \"syntax/enum.sol\":473:481  balances */\n      0x00\n        /* \"syntax/enum.sol\":473:488  balances[_addr] */\n      dup1\n        /* \"syntax/enum.sol\":482:487  _addr */\n      dup5\n        /* \"syntax/enum.sol\":473:488  balances[_addr] */\n      0xffffffffffffffffffffffffffffffffffffffff\n      and\n      0xffffffffffffffffffffffffffffffffffffffff\n      and\n      dup2\n      mstore\n      0x20\n      add\n      swap1\n      dup2\n      mstore\n      0x20\n      add\n      0x00\n      keccak256\n        /* \"syntax/enum.sol\":473:497  balances[_addr].payments */\n      0x01\n      add\n        /* \"syntax/enum.sol\":473:505  balances[_addr].payments[_index] */\n      0x00\n        /* \"syntax/enum.sol\":498:504  _index */\n      dup4\n        /* \"syntax/enum.sol\":473:505  balances[_addr].payments[_index] */\n      dup2\n      mstore\n      0x20\n      add\n      swap1\n      dup2\n      mstore\n      0x20\n      add\n      0x00\n      keccak256\n        /* \"syntax/enum.sol\":466:505  return balances[_addr].payments[_index] */\n      mload(0x40)\n      dup1\n      0x80\n      add\n      0x40\n      mstore\n      swap1\n      dup2\n      0x00\n      dup3\n      add\n      sload\n      dup2\n      mstore\n      0x20\n      add\n      0x01\n      dup3\n      add\n      sload\n      dup2\n      mstore\n      0x20\n      add\n      0x02\n      dup3\n      add\n      0x00\n      swap1\n      sload\n      swap1\n      0x0100\n      exp\n      swap1\n      div\n      0xffffffffffffffffffffffffffffffffffffffff\n      and\n      0xffffffffffffffffffffffffffffffffffffffff\n      and\n      0xffffffffffffffffffffffffffffffffffffffff\n      and\n      dup2\n      mstore\n      0x20\n      add\n      0x03\n      dup3\n      add\n      dup1\n      sload\n      tag_31\n      swap1\n      tag_32\n      jump\t// in\n    tag_31:\n      dup1\n      0x1f\n      add\n      0x20\n      dup1\n      swap2\n      div\n      mul\n      0x20\n      add\n      mload(0x40)\n      swap1\n      dup2\n      add\n      0x40\n      mstore\n      dup1\n      swap3\n      swap2\n      swap1\n      dup2\n      dup2\n      mstore\n      0x20\n      add\n      dup3\n      dup1\n      sload\n      tag_33\n      swap1\n      tag_32\n      jump\t// in\n    tag_33:\n      dup1\n      iszero\n      tag_34\n      jumpi\n      dup1\n      0x1f\n      lt\n      tag_35\n      jumpi\n      0x0100\n      dup1\n      dup4\n      sload\n      div\n      mul\n      dup4\n      mstore\n      swap2\n      0x20\n      add\n      swap2\n      jump(tag_34)\n    tag_35:\n      dup3\n      add\n      swap2\n      swap1\n      0x00\n      mstore\n      keccak256(0x00, 0x20)\n      swap1\n    tag_36:\n      dup2\n      sload\n      dup2\n      mstore\n      swap1\n      0x01\n      add\n      swap1\n      0x20\n      add\n      dup1\n      dup4\n      gt\n      tag_36\n      jumpi\n      dup3\n      swap1\n      sub\n      0x1f\n      and\n      dup3\n      add\n      swap2\n    tag_34:\n      pop\n      pop\n      pop\n      pop\n      pop\n      dup2\n      mstore\n      pop\n      pop\n      swap1\n      pop\n        /* \"syntax/enum.sol\":371:513  function getPayment(address _addr, uint _index) public view returns(Payment memory) {... */\n      swap3\n      swap2\n      pop\n      pop\n      jump\t// out\n    tag_29:\n      mload(0x40)\n      dup1\n      0x80\n      add\n      0x40\n      mstore\n      dup1\n      0x00\n      dup2\n      mstore\n      0x20\n      add\n      0x00\n      dup2\n      mstore\n      0x20\n      add\n      and(0xffffffffffffffffffffffffffffffffffffffff, 0x00)\n      dup2\n      mstore\n      0x20\n      add\n      0x60\n      dup2\n      mstore\n      pop\n      swap1\n      jump\t// out\n        /* \"#utility.yul\":7:82   */\n    tag_37:\n        /* \"#utility.yul\":40:46   */\n      0x00\n        /* \"#utility.yul\":73:75   */\n      0x40\n        /* \"#utility.yul\":67:76   */\n      mload\n        /* \"#utility.yul\":57:76   */\n      swap1\n      pop\n        /* \"#utility.yul\":7:82   */\n      swap1\n      jump\t// out\n        /* \"#utility.yul\":88:205   */\n    tag_38:\n        /* \"#utility.yul\":197:198   */\n      0x00\n        /* \"#utility.yul\":194:195   */\n      dup1\n        /* \"#utility.yul\":187:199   */\n      revert\n        /* \"#utility.yul\":211:328   */\n    tag_39:\n        /* \"#utility.yul\":320:321   */\n      0x00\n        /* \"#utility.yul\":317:318   */\n      dup1\n        /* \"#utility.yul\":310:322   */\n      revert\n        /* \"#utility.yul\":334:460   */\n    tag_40:\n        /* \"#utility.yul\":371:378   */\n      0x00\n        /* \"#utility.yul\":411:453   */\n      0xffffffffffffffffffffffffffffffffffffffff\n        /* \"#utility.yul\":404:409   */\n      dup3\n        /* \"#utility.yul\":400:454   */\n      and\n        /* \"#utility.yul\":389:454   */\n      swap1\n      pop\n        /* \"#utility.yul\":334:460   */\n      swap2\n      swap1\n      pop\n      jump\t// out\n        /* \"#utility.yul\":466:562   */\n    tag_41:\n        /* \"#utility.yul\":503:510   */\n      0x00\n        /* \"#utility.yul\":532:556   */\n      tag_88\n        /* \"#utility.yul\":550:555   */\n      dup3\n        /* \"#utility.yul\":532:556   */\n      tag_40\n      jump\t// in\n    tag_88:\n        /* \"#utility.yul\":521:556   */\n      swap1\n      pop\n        /* \"#utility.yul\":466:562   */\n      swap2\n      swap1\n      pop\n      jump\t// out\n        /* \"#utility.yul\":568:690   */\n    tag_42:\n        /* \"#utility.yul\":641:665   */\n      tag_90\n        /* \"#utility.yul\":659:664   */\n      dup2\n        /* \"#utility.yul\":641:665   */\n      tag_41\n      jump\t// in\n    tag_90:\n        /* \"#utility.yul\":634:639   */\n      dup2\n        /* \"#utility.yul\":631:666   */\n      eq\n        /* \"#utility.yul\":621:684   */\n      tag_91\n      jumpi\n        /* \"#utility.yul\":680:681   */\n      0x00\n        /* \"#utility.yul\":677:678   */\n      dup1\n        /* \"#utility.yul\":670:682   */\n      revert\n        /* \"#utility.yul\":621:684   */\n    tag_91:\n        /* \"#utility.yul\":568:690   */\n      pop\n      jump\t// out\n        /* \"#utility.yul\":696:835   */\n    tag_43:\n        /* \"#utility.yul\":742:747   */\n      0x00\n        /* \"#utility.yul\":780:786   */\n      dup2\n        /* \"#utility.yul\":767:787   */\n      calldataload\n        /* \"#utility.yul\":758:787   */\n      swap1\n      pop\n        /* \"#utility.yul\":796:829   */\n      tag_93\n        /* \"#utility.yul\":823:828   */\n      dup2\n        /* \"#utility.yul\":796:829   */\n      tag_42\n      jump\t// in\n    tag_93:\n        /* \"#utility.yul\":696:835   */\n      swap3\n      swap2\n      pop\n      pop\n      jump\t// out\n        /* \"#utility.yul\":841:1170   */\n    tag_8:\n        /* \"#utility.yul\":900:906   */\n      0x00\n        /* \"#utility.yul\":949:951   */\n      0x20\n        /* \"#utility.yul\":937:946   */\n      dup3\n        /* \"#utility.yul\":928:935   */\n      dup5\n        /* \"#utility.yul\":924:947   */\n      sub\n        /* \"#utility.yul\":920:952   */\n      slt\n        /* \"#utility.yul\":917:1036   */\n      iszero\n      tag_95\n      jumpi\n        /* \"#utility.yul\":955:1034   */\n      tag_96\n      tag_38\n      jump\t// in\n    tag_96:\n        /* \"#utility.yul\":917:1036   */\n    tag_95:\n        /* \"#utility.yul\":1075:1076   */\n      0x00\n        /* \"#utility.yul\":1100:1153   */\n      tag_97\n        /* \"#utility.yul\":1145:1152   */\n      dup5\n        /* \"#utility.yul\":1136:1142   */\n      dup3\n        /* \"#utility.yul\":1125:1134   */\n      dup6\n        /* \"#utility.yul\":1121:1143   */\n      add\n        /* \"#utility.yul\":1100:1153   */\n      tag_43\n      jump\t// in\n    tag_97:\n        /* \"#utility.yul\":1090:1153   */\n      swap2\n      pop\n        /* \"#utility.yul\":1046:1163   */\n      pop\n        /* \"#utility.yul\":841:1170   */\n      swap3\n      swap2\n      pop\n      pop\n      jump\t// out\n        /* \"#utility.yul\":1176:1253   */\n    tag_44:\n        /* \"#utility.yul\":1213:1220   */\n      0x00\n        /* \"#utility.yul\":1242:1247   */\n      dup2\n        /* \"#utility.yul\":1231:1247   */\n      swap1\n      pop\n        /* \"#utility.yul\":1176:1253   */\n      swap2\n      swap1\n      pop\n      jump\t// out\n        /* \"#utility.yul\":1259:1377   */\n    tag_45:\n        /* \"#utility.yul\":1346:1370   */\n      tag_100\n        /* \"#utility.yul\":1364:1369   */\n      dup2\n        /* \"#utility.yul\":1346:1370   */\n      tag_44\n      jump\t// in\n    tag_100:\n        /* \"#utility.yul\":1341:1344   */\n      dup3\n        /* \"#utility.yul\":1334:1371   */\n      mstore\n        /* \"#utility.yul\":1259:1377   */\n      pop\n      pop\n      jump\t// out\n        /* \"#utility.yul\":1383:1605   */\n    tag_11:\n        /* \"#utility.yul\":1476:1480   */\n      0x00\n        /* \"#utility.yul\":1514:1516   */\n      0x20\n        /* \"#utility.yul\":1503:1512   */\n      dup3\n        /* \"#utility.yul\":1499:1517   */\n      add\n        /* \"#utility.yul\":1491:1517   */\n      swap1\n      pop\n        /* \"#utility.yul\":1527:1598   */\n      tag_102\n        /* \"#utility.yul\":1595:1596   */\n      0x00\n        /* \"#utility.yul\":1584:1593   */\n      dup4\n        /* \"#utility.yul\":1580:1597   */\n      add\n        /* \"#utility.yul\":1571:1577   */\n      dup5\n        /* \"#utility.yul\":1527:1598   */\n      tag_45\n      jump\t// in\n    tag_102:\n        /* \"#utility.yul\":1383:1605   */\n      swap3\n      swap2\n      pop\n      pop\n      jump\t// out\n        /* \"#utility.yul\":1611:1728   */\n    tag_46:\n        /* \"#utility.yul\":1720:1721   */\n      0x00\n        /* \"#utility.yul\":1717:1718   */\n      dup1\n        /* \"#utility.yul\":1710:1722   */\n      revert\n        /* \"#utility.yul\":1734:1851   */\n    tag_47:\n        /* \"#utility.yul\":1843:1844   */\n      0x00\n        /* \"#utility.yul\":1840:1841   */\n      dup1\n        /* \"#utility.yul\":1833:1845   */\n      revert\n        /* \"#utility.yul\":1857:1959   */\n    tag_48:\n        /* \"#utility.yul\":1898:1904   */\n      0x00\n        /* \"#utility.yul\":1949:1951   */\n      0x1f\n        /* \"#utility.yul\":1945:1952   */\n      not\n        /* \"#utility.yul\":1940:1942   */\n      0x1f\n        /* \"#utility.yul\":1933:1938   */\n      dup4\n        /* \"#utility.yul\":1929:1943   */\n      add\n        /* \"#utility.yul\":1925:1953   */\n      and\n        /* \"#utility.yul\":1915:1953   */\n      swap1\n      pop\n        /* \"#utility.yul\":1857:1959   */\n      swap2\n      swap1\n      pop\n      jump\t// out\n        /* \"#utility.yul\":1965:2145   */\n    tag_49:\n        /* \"#utility.yul\":2013:2090   */\n      0x4e487b7100000000000000000000000000000000000000000000000000000000\n        /* \"#utility.yul\":2010:2011   */\n      0x00\n        /* \"#utility.yul\":2003:2091   */\n      mstore\n        /* \"#utility.yul\":2110:2114   */\n      0x41\n        /* \"#utility.yul\":2107:2108   */\n      0x04\n        /* \"#utility.yul\":2100:2115   */\n      mstore\n        /* \"#utility.yul\":2134:2138   */\n      0x24\n        /* \"#utility.yul\":2131:2132   */\n      0x00\n        /* \"#utility.yul\":2124:2139   */\n      revert\n        /* \"#utility.yul\":2151:2432   */\n    tag_50:\n        /* \"#utility.yul\":2234:2261   */\n      tag_108\n        /* \"#utility.yul\":2256:2260   */\n      dup3\n        /* \"#utility.yul\":2234:2261   */\n      tag_48\n      jump\t// in\n    tag_108:\n        /* \"#utility.yul\":2226:2232   */\n      dup2\n        /* \"#utility.yul\":2222:2262   */\n      add\n        /* \"#utility.yul\":2364:2370   */\n      dup2\n        /* \"#utility.yul\":2352:2362   */\n      dup2\n        /* \"#utility.yul\":2349:2371   */\n      lt\n        /* \"#utility.yul\":2328:2346   */\n      0xffffffffffffffff\n        /* \"#utility.yul\":2316:2326   */\n      dup3\n        /* \"#utility.yul\":2313:2347   */\n      gt\n        /* \"#utility.yul\":2310:2372   */\n      or\n        /* \"#utility.yul\":2307:2395   */\n      iszero\n      tag_109\n      jumpi\n        /* \"#utility.yul\":2375:2393   */\n      tag_110\n      tag_49\n      jump\t// in\n    tag_110:\n        /* \"#utility.yul\":2307:2395   */\n    tag_109:\n        /* \"#utility.yul\":2415:2425   */\n      dup1\n        /* \"#utility.yul\":2411:2413   */\n      0x40\n        /* \"#utility.yul\":2404:2426   */\n      mstore\n        /* \"#utility.yul\":2194:2432   */\n      pop\n        /* \"#utility.yul\":2151:2432   */\n      pop\n      pop\n      jump\t// out\n        /* \"#utility.yul\":2438:2567   */\n    tag_51:\n        /* \"#utility.yul\":2472:2478   */\n      0x00\n        /* \"#utility.yul\":2499:2519   */\n      tag_112\n      tag_37\n      jump\t// in\n    tag_112:\n        /* \"#utility.yul\":2489:2519   */\n      swap1\n      pop\n        /* \"#utility.yul\":2528:2561   */\n      tag_113\n        /* \"#utility.yul\":2556:2560   */\n      dup3\n        /* \"#utility.yul\":2548:2554   */\n      dup3\n        /* \"#utility.yul\":2528:2561   */\n      tag_50\n      jump\t// in\n    tag_113:\n        /* \"#utility.yul\":2438:2567   */\n      swap2\n      swap1\n      pop\n      jump\t// out\n        /* \"#utility.yul\":2573:2881   */\n    tag_52:\n        /* \"#utility.yul\":2635:2639   */\n      0x00\n        /* \"#utility.yul\":2725:2743   */\n      0xffffffffffffffff\n        /* \"#utility.yul\":2717:2723   */\n      dup3\n        /* \"#utility.yul\":2714:2744   */\n      gt\n        /* \"#utility.yul\":2711:2767   */\n      iszero\n      tag_115\n      jumpi\n        /* \"#utility.yul\":2747:2765   */\n      tag_116\n      tag_49\n      jump\t// in\n    tag_116:\n        /* \"#utility.yul\":2711:2767   */\n    tag_115:\n        /* \"#utility.yul\":2785:2814   */\n      tag_117\n        /* \"#utility.yul\":2807:2813   */\n      dup3\n        /* \"#utility.yul\":2785:2814   */\n      tag_48\n      jump\t// in\n    tag_117:\n        /* \"#utility.yul\":2777:2814   */\n      swap1\n      pop\n        /* \"#utility.yul\":2869:2873   */\n      0x20\n        /* \"#utility.yul\":2863:2867   */\n      dup2\n        /* \"#utility.yul\":2859:2874   */\n      add\n        /* \"#utility.yul\":2851:2874   */\n      swap1\n      pop\n        /* \"#utility.yul\":2573:2881   */\n      swap2\n      swap1\n      pop\n      jump\t// out\n        /* \"#utility.yul\":2887:3033   */\n    tag_53:\n        /* \"#utility.yul\":2984:2990   */\n      dup3\n        /* \"#utility.yul\":2979:2982   */\n      dup2\n        /* \"#utility.yul\":2974:2977   */\n      dup4\n        /* \"#utility.yul\":2961:2991   */\n      calldatacopy\n        /* \"#utility.yul\":3025:3026   */\n      0x00\n        /* \"#utility.yul\":3016:3022   */\n      dup4\n        /* \"#utility.yul\":3011:3014   */\n      dup4\n        /* \"#utility.yul\":3007:3023   */\n      add\n        /* \"#utility.yul\":3000:3027   */\n      mstore\n        /* \"#utility.yul\":2887:3033   */\n      pop\n      pop\n      pop\n      jump\t// out\n        /* \"#utility.yul\":3039:3464   */\n    tag_54:\n        /* \"#utility.yul\":3117:3122   */\n      0x00\n        /* \"#utility.yul\":3142:3208   */\n      tag_120\n        /* \"#utility.yul\":3158:3207   */\n      tag_121\n        /* \"#utility.yul\":3200:3206   */\n      dup5\n        /* \"#utility.yul\":3158:3207   */\n      tag_52\n      jump\t// in\n    tag_121:\n        /* \"#utility.yul\":3142:3208   */\n      tag_51\n      jump\t// in\n    tag_120:\n        /* \"#utility.yul\":3133:3208   */\n      swap1\n      pop\n        /* \"#utility.yul\":3231:3237   */\n      dup3\n        /* \"#utility.yul\":3224:3229   */\n      dup2\n        /* \"#utility.yul\":3217:3238   */\n      mstore\n        /* \"#utility.yul\":3269:3273   */\n      0x20\n        /* \"#utility.yul\":3262:3267   */\n      dup2\n        /* \"#utility.yul\":3258:3274   */\n      add\n        /* \"#utility.yul\":3307:3310   */\n      dup5\n        /* \"#utility.yul\":3298:3304   */\n      dup5\n        /* \"#utility.yul\":3293:3296   */\n      dup5\n        /* \"#utility.yul\":3289:3305   */\n      add\n        /* \"#utility.yul\":3286:3311   */\n      gt\n        /* \"#utility.yul\":3283:3395   */\n      iszero\n      tag_122\n      jumpi\n        /* \"#utility.yul\":3314:3393   */\n      tag_123\n      tag_47\n      jump\t// in\n    tag_123:\n        /* \"#utility.yul\":3283:3395   */\n    tag_122:\n        /* \"#utility.yul\":3404:3458   */\n      tag_124\n        /* \"#utility.yul\":3451:3457   */\n      dup5\n        /* \"#utility.yul\":3446:3449   */\n      dup3\n        /* \"#utility.yul\":3441:3444   */\n      dup6\n        /* \"#utility.yul\":3404:3458   */\n      tag_53\n      jump\t// in\n    tag_124:\n        /* \"#utility.yul\":3123:3464   */\n      pop\n        /* \"#utility.yul\":3039:3464   */\n      swap4\n      swap3\n      pop\n      pop\n      pop\n      jump\t// out\n        /* \"#utility.yul\":3484:3824   */\n    tag_55:\n        /* \"#utility.yul\":3540:3545   */\n      0x00\n        /* \"#utility.yul\":3589:3592   */\n      dup3\n        /* \"#utility.yul\":3582:3586   */\n      0x1f\n        /* \"#utility.yul\":3574:3580   */\n      dup4\n        /* \"#utility.yul\":3570:3587   */\n      add\n        /* \"#utility.yul\":3566:3593   */\n      slt\n        /* \"#utility.yul\":3556:3678   */\n      tag_126\n      jumpi\n        /* \"#utility.yul\":3597:3676   */\n      tag_127\n      tag_46\n      jump\t// in\n    tag_127:\n        /* \"#utility.yul\":3556:3678   */\n    tag_126:\n        /* \"#utility.yul\":3714:3720   */\n      dup2\n        /* \"#utility.yul\":3701:3721   */\n      calldataload\n        /* \"#utility.yul\":3739:3818   */\n      tag_128\n        /* \"#utility.yul\":3814:3817   */\n      dup5\n        /* \"#utility.yul\":3806:3812   */\n      dup3\n        /* \"#utility.yul\":3799:3803   */\n      0x20\n        /* \"#utility.yul\":3791:3797   */\n      dup7\n        /* \"#utility.yul\":3787:3804   */\n      add\n        /* \"#utility.yul\":3739:3818   */\n      tag_54\n      jump\t// in\n    tag_128:\n        /* \"#utility.yul\":3730:3818   */\n      swap2\n      pop\n        /* \"#utility.yul\":3546:3824   */\n      pop\n        /* \"#utility.yul\":3484:3824   */\n      swap3\n      swap2\n      pop\n      pop\n      jump\t// out\n        /* \"#utility.yul\":3830:4339   */\n    tag_14:\n        /* \"#utility.yul\":3899:3905   */\n      0x00\n        /* \"#utility.yul\":3948:3950   */\n      0x20\n        /* \"#utility.yul\":3936:3945   */\n      dup3\n        /* \"#utility.yul\":3927:3934   */\n      dup5\n        /* \"#utility.yul\":3923:3946   */\n      sub\n        /* \"#utility.yul\":3919:3951   */\n      slt\n        /* \"#utility.yul\":3916:4035   */\n      iszero\n      tag_130\n      jumpi\n        /* \"#utility.yul\":3954:4033   */\n      tag_131\n      tag_38\n      jump\t// in\n    tag_131:\n        /* \"#utility.yul\":3916:4035   */\n    tag_130:\n        /* \"#utility.yul\":4102:4103   */\n      0x00\n        /* \"#utility.yul\":4091:4100   */\n      dup3\n        /* \"#utility.yul\":4087:4104   */\n      add\n        /* \"#utility.yul\":4074:4105   */\n      calldataload\n        /* \"#utility.yul\":4132:4150   */\n      0xffffffffffffffff\n        /* \"#utility.yul\":4124:4130   */\n      dup2\n        /* \"#utility.yul\":4121:4151   */\n      gt\n        /* \"#utility.yul\":4118:4235   */\n      iszero\n      tag_132\n      jumpi\n        /* \"#utility.yul\":4154:4233   */\n      tag_133\n      tag_39\n      jump\t// in\n    tag_133:\n        /* \"#utility.yul\":4118:4235   */\n    tag_132:\n        /* \"#utility.yul\":4259:4322   */\n      tag_134\n        /* \"#utility.yul\":4314:4321   */\n      dup5\n        /* \"#utility.yul\":4305:4311   */\n      dup3\n        /* \"#utility.yul\":4294:4303   */\n      dup6\n        /* \"#utility.yul\":4290:4312   */\n      add\n        /* \"#utility.yul\":4259:4322   */\n      tag_55\n      jump\t// in\n    tag_134:\n        /* \"#utility.yul\":4249:4322   */\n      swap2\n      pop\n        /* \"#utility.yul\":4045:4332   */\n      pop\n        /* \"#utility.yul\":3830:4339   */\n      swap3\n      swap2\n      pop\n      pop\n      jump\t// out\n        /* \"#utility.yul\":4345:4467   */\n    tag_56:\n        /* \"#utility.yul\":4418:4442   */\n      tag_136\n        /* \"#utility.yul\":4436:4441   */\n      dup2\n        /* \"#utility.yul\":4418:4442   */\n      tag_44\n      jump\t// in\n    tag_136:\n        /* \"#utility.yul\":4411:4416   */\n      dup2\n        /* \"#utility.yul\":4408:4443   */\n      eq\n        /* \"#utility.yul\":4398:4461   */\n      tag_137\n      jumpi\n        /* \"#utility.yul\":4457:4458   */\n      0x00\n        /* \"#utility.yul\":4454:4455   */\n      dup1\n        /* \"#utility.yul\":4447:4459   */\n      revert\n        /* \"#utility.yul\":4398:4461   */\n    tag_137:\n        /* \"#utility.yul\":4345:4467   */\n      pop\n      jump\t// out\n        /* \"#utility.yul\":4473:4612   */\n    tag_57:\n        /* \"#utility.yul\":4519:4524   */\n      0x00\n        /* \"#utility.yul\":4557:4563   */\n      dup2\n        /* \"#utility.yul\":4544:4564   */\n      calldataload\n        /* \"#utility.yul\":4535:4564   */\n      swap1\n      pop\n        /* \"#utility.yul\":4573:4606   */\n      tag_139\n        /* \"#utility.yul\":4600:4605   */\n      dup2\n        /* \"#utility.yul\":4573:4606   */\n      tag_56\n      jump\t// in\n    tag_139:\n        /* \"#utility.yul\":4473:4612   */\n      swap3\n      swap2\n      pop\n      pop\n      jump\t// out\n        /* \"#utility.yul\":4618:5092   */\n    tag_19:\n        /* \"#utility.yul\":4686:4692   */\n      0x00\n        /* \"#utility.yul\":4694:4700   */\n      dup1\n        /* \"#utility.yul\":4743:4745   */\n      0x40\n        /* \"#utility.yul\":4731:4740   */\n      dup4\n        /* \"#utility.yul\":4722:4729   */\n      dup6\n        /* \"#utility.yul\":4718:4741   */\n      sub\n        /* \"#utility.yul\":4714:4746   */\n      slt\n        /* \"#utility.yul\":4711:4830   */\n      iszero\n      tag_141\n      jumpi\n        /* \"#utility.yul\":4749:4828   */\n      tag_142\n      tag_38\n      jump\t// in\n    tag_142:\n        /* \"#utility.yul\":4711:4830   */\n    tag_141:\n        /* \"#utility.yul\":4869:4870   */\n      0x00\n        /* \"#utility.yul\":4894:4947   */\n      tag_143\n        /* \"#utility.yul\":4939:4946   */\n      dup6\n        /* \"#utility.yul\":4930:4936   */\n      dup3\n        /* \"#utility.yul\":4919:4928   */\n      dup7\n        /* \"#utility.yul\":4915:4937   */\n      add\n        /* \"#utility.yul\":4894:4947   */\n      tag_43\n      jump\t// in\n    tag_143:\n        /* \"#utility.yul\":4884:4947   */\n      swap3\n      pop\n        /* \"#utility.yul\":4840:4957   */\n      pop\n        /* \"#utility.yul\":4996:4998   */\n      0x20\n        /* \"#utility.yul\":5022:5075   */\n      tag_144\n        /* \"#utility.yul\":5067:5074   */\n      dup6\n        /* \"#utility.yul\":5058:5064   */\n      dup3\n        /* \"#utility.yul\":5047:5056   */\n      dup7\n        /* \"#utility.yul\":5043:5065   */\n      add\n        /* \"#utility.yul\":5022:5075   */\n      tag_57\n      jump\t// in\n    tag_144:\n        /* \"#utility.yul\":5012:5075   */\n      swap2\n      pop\n        /* \"#utility.yul\":4967:5085   */\n      pop\n        /* \"#utility.yul\":4618:5092   */\n      swap3\n      pop\n      swap3\n      swap1\n      pop\n      jump\t// out\n        /* \"#utility.yul\":5098:5206   */\n    tag_58:\n        /* \"#utility.yul\":5175:5199   */\n      tag_146\n        /* \"#utility.yul\":5193:5198   */\n      dup2\n        /* \"#utility.yul\":5175:5199   */\n      tag_44\n      jump\t// in\n    tag_146:\n        /* \"#utility.yul\":5170:5173   */\n      dup3\n        /* \"#utility.yul\":5163:5200   */\n      mstore\n        /* \"#utility.yul\":5098:5206   */\n      pop\n      pop\n      jump\t// out\n        /* \"#utility.yul\":5212:5320   */\n    tag_59:\n        /* \"#utility.yul\":5289:5313   */\n      tag_148\n        /* \"#utility.yul\":5307:5312   */\n      dup2\n        /* \"#utility.yul\":5289:5313   */\n      tag_41\n      jump\t// in\n    tag_148:\n        /* \"#utility.yul\":5284:5287   */\n      dup3\n        /* \"#utility.yul\":5277:5314   */\n      mstore\n        /* \"#utility.yul\":5212:5320   */\n      pop\n      pop\n      jump\t// out\n        /* \"#utility.yul\":5326:5425   */\n    tag_60:\n        /* \"#utility.yul\":5378:5384   */\n      0x00\n        /* \"#utility.yul\":5412:5417   */\n      dup2\n        /* \"#utility.yul\":5406:5418   */\n      mload\n        /* \"#utility.yul\":5396:5418   */\n      swap1\n      pop\n        /* \"#utility.yul\":5326:5425   */\n      swap2\n      swap1\n      pop\n      jump\t// out\n        /* \"#utility.yul\":5431:5590   */\n    tag_61:\n        /* \"#utility.yul\":5505:5516   */\n      0x00\n        /* \"#utility.yul\":5539:5545   */\n      dup3\n        /* \"#utility.yul\":5534:5537   */\n      dup3\n        /* \"#utility.yul\":5527:5546   */\n      mstore\n        /* \"#utility.yul\":5579:5583   */\n      0x20\n        /* \"#utility.yul\":5574:5577   */\n      dup3\n        /* \"#utility.yul\":5570:5584   */\n      add\n        /* \"#utility.yul\":5555:5584   */\n      swap1\n      pop\n        /* \"#utility.yul\":5431:5590   */\n      swap3\n      swap2\n      pop\n      pop\n      jump\t// out\n        /* \"#utility.yul\":5596:5842   */\n    tag_62:\n        /* \"#utility.yul\":5677:5678   */\n      0x00\n        /* \"#utility.yul\":5687:5800   */\n    tag_152:\n        /* \"#utility.yul\":5701:5707   */\n      dup4\n        /* \"#utility.yul\":5698:5699   */\n      dup2\n        /* \"#utility.yul\":5695:5708   */\n      lt\n        /* \"#utility.yul\":5687:5800   */\n      iszero\n      tag_154\n      jumpi\n        /* \"#utility.yul\":5786:5787   */\n      dup1\n        /* \"#utility.yul\":5781:5784   */\n      dup3\n        /* \"#utility.yul\":5777:5788   */\n      add\n        /* \"#utility.yul\":5771:5789   */\n      mload\n        /* \"#utility.yul\":5767:5768   */\n      dup2\n        /* \"#utility.yul\":5762:5765   */\n      dup5\n        /* \"#utility.yul\":5758:5769   */\n      add\n        /* \"#utility.yul\":5751:5790   */\n      mstore\n        /* \"#utility.yul\":5723:5725   */\n      0x20\n        /* \"#utility.yul\":5720:5721   */\n      dup2\n        /* \"#utility.yul\":5716:5726   */\n      add\n        /* \"#utility.yul\":5711:5726   */\n      swap1\n      pop\n        /* \"#utility.yul\":5687:5800   */\n      jump(tag_152)\n    tag_154:\n        /* \"#utility.yul\":5834:5835   */\n      0x00\n        /* \"#utility.yul\":5825:5831   */\n      dup5\n        /* \"#utility.yul\":5820:5823   */\n      dup5\n        /* \"#utility.yul\":5816:5832   */\n      add\n        /* \"#utility.yul\":5809:5836   */\n      mstore\n        /* \"#utility.yul\":5658:5842   */\n      pop\n        /* \"#utility.yul\":5596:5842   */\n      pop\n      pop\n      pop\n      jump\t// out\n        /* \"#utility.yul\":5848:6205   */\n    tag_63:\n        /* \"#utility.yul\":5926:5929   */\n      0x00\n        /* \"#utility.yul\":5954:5993   */\n      tag_156\n        /* \"#utility.yul\":5987:5992   */\n      dup3\n        /* \"#utility.yul\":5954:5993   */\n      tag_60\n      jump\t// in\n    tag_156:\n        /* \"#utility.yul\":6009:6070   */\n      tag_157\n        /* \"#utility.yul\":6063:6069   */\n      dup2\n        /* \"#utility.yul\":6058:6061   */\n      dup6\n        /* \"#utility.yul\":6009:6070   */\n      tag_61\n      jump\t// in\n    tag_157:\n        /* \"#utility.yul\":6002:6070   */\n      swap4\n      pop\n        /* \"#utility.yul\":6079:6144   */\n      tag_158\n        /* \"#utility.yul\":6137:6143   */\n      dup2\n        /* \"#utility.yul\":6132:6135   */\n      dup6\n        /* \"#utility.yul\":6125:6129   */\n      0x20\n        /* \"#utility.yul\":6118:6123   */\n      dup7\n        /* \"#utility.yul\":6114:6130   */\n      add\n        /* \"#utility.yul\":6079:6144   */\n      tag_62\n      jump\t// in\n    tag_158:\n        /* \"#utility.yul\":6169:6198   */\n      tag_159\n        /* \"#utility.yul\":6191:6197   */\n      dup2\n        /* \"#utility.yul\":6169:6198   */\n      tag_48\n      jump\t// in\n    tag_159:\n        /* \"#utility.yul\":6164:6167   */\n      dup5\n        /* \"#utility.yul\":6160:6199   */\n      add\n        /* \"#utility.yul\":6153:6199   */\n      swap2\n      pop\n        /* \"#utility.yul\":5930:6205   */\n      pop\n        /* \"#utility.yul\":5848:6205   */\n      swap3\n      swap2\n      pop\n      pop\n      jump\t// out\n        /* \"#utility.yul\":6261:7221   */\n    tag_64:\n        /* \"#utility.yul\":6376:6379   */\n      0x00\n        /* \"#utility.yul\":6412:6416   */\n      0x80\n        /* \"#utility.yul\":6407:6410   */\n      dup4\n        /* \"#utility.yul\":6403:6417   */\n      add\n        /* \"#utility.yul\":6501:6505   */\n      0x00\n        /* \"#utility.yul\":6494:6499   */\n      dup4\n        /* \"#utility.yul\":6490:6506   */\n      add\n        /* \"#utility.yul\":6484:6507   */\n      mload\n        /* \"#utility.yul\":6520:6583   */\n      tag_161\n        /* \"#utility.yul\":6577:6581   */\n      0x00\n        /* \"#utility.yul\":6572:6575   */\n      dup7\n        /* \"#utility.yul\":6568:6582   */\n      add\n        /* \"#utility.yul\":6554:6566   */\n      dup3\n        /* \"#utility.yul\":6520:6583   */\n      tag_58\n      jump\t// in\n    tag_161:\n        /* \"#utility.yul\":6427:6593   */\n      pop\n        /* \"#utility.yul\":6680:6684   */\n      0x20\n        /* \"#utility.yul\":6673:6678   */\n      dup4\n        /* \"#utility.yul\":6669:6685   */\n      add\n        /* \"#utility.yul\":6663:6686   */\n      mload\n        /* \"#utility.yul\":6699:6762   */\n      tag_162\n        /* \"#utility.yul\":6756:6760   */\n      0x20\n        /* \"#utility.yul\":6751:6754   */\n      dup7\n        /* \"#utility.yul\":6747:6761   */\n      add\n        /* \"#utility.yul\":6733:6745   */\n      dup3\n        /* \"#utility.yul\":6699:6762   */\n      tag_58\n      jump\t// in\n    tag_162:\n        /* \"#utility.yul\":6603:6772   */\n      pop\n        /* \"#utility.yul\":6854:6858   */\n      0x40\n        /* \"#utility.yul\":6847:6852   */\n      dup4\n        /* \"#utility.yul\":6843:6859   */\n      add\n        /* \"#utility.yul\":6837:6860   */\n      mload\n        /* \"#utility.yul\":6873:6936   */\n      tag_163\n        /* \"#utility.yul\":6930:6934   */\n      0x40\n        /* \"#utility.yul\":6925:6928   */\n      dup7\n        /* \"#utility.yul\":6921:6935   */\n      add\n        /* \"#utility.yul\":6907:6919   */\n      dup3\n        /* \"#utility.yul\":6873:6936   */\n      tag_59\n      jump\t// in\n    tag_163:\n        /* \"#utility.yul\":6782:6946   */\n      pop\n        /* \"#utility.yul\":7031:7035   */\n      0x60\n        /* \"#utility.yul\":7024:7029   */\n      dup4\n        /* \"#utility.yul\":7020:7036   */\n      add\n        /* \"#utility.yul\":7014:7037   */\n      mload\n        /* \"#utility.yul\":7084:7087   */\n      dup5\n        /* \"#utility.yul\":7078:7082   */\n      dup3\n        /* \"#utility.yul\":7074:7088   */\n      sub\n        /* \"#utility.yul\":7067:7071   */\n      0x60\n        /* \"#utility.yul\":7062:7065   */\n      dup7\n        /* \"#utility.yul\":7058:7072   */\n      add\n        /* \"#utility.yul\":7051:7089   */\n      mstore\n        /* \"#utility.yul\":7110:7183   */\n      tag_164\n        /* \"#utility.yul\":7178:7182   */\n      dup3\n        /* \"#utility.yul\":7164:7176   */\n      dup3\n        /* \"#utility.yul\":7110:7183   */\n      tag_63\n      jump\t// in\n    tag_164:\n        /* \"#utility.yul\":7102:7183   */\n      swap2\n      pop\n        /* \"#utility.yul\":6956:7194   */\n      pop\n        /* \"#utility.yul\":7211:7215   */\n      dup1\n        /* \"#utility.yul\":7204:7215   */\n      swap2\n      pop\n        /* \"#utility.yul\":6381:7221   */\n      pop\n        /* \"#utility.yul\":6261:7221   */\n      swap3\n      swap2\n      pop\n      pop\n      jump\t// out\n        /* \"#utility.yul\":7227:7592   */\n    tag_22:\n        /* \"#utility.yul\":7366:7370   */\n      0x00\n        /* \"#utility.yul\":7404:7406   */\n      0x20\n        /* \"#utility.yul\":7393:7402   */\n      dup3\n        /* \"#utility.yul\":7389:7407   */\n      add\n        /* \"#utility.yul\":7381:7407   */\n      swap1\n      pop\n        /* \"#utility.yul\":7453:7462   */\n      dup2\n        /* \"#utility.yul\":7447:7451   */\n      dup2\n        /* \"#utility.yul\":7443:7463   */\n      sub\n        /* \"#utility.yul\":7439:7440   */\n      0x00\n        /* \"#utility.yul\":7428:7437   */\n      dup4\n        /* \"#utility.yul\":7424:7441   */\n      add\n        /* \"#utility.yul\":7417:7464   */\n      mstore\n        /* \"#utility.yul\":7481:7585   */\n      tag_166\n        /* \"#utility.yul\":7580:7584   */\n      dup2\n        /* \"#utility.yul\":7571:7577   */\n      dup5\n        /* \"#utility.yul\":7481:7585   */\n      tag_64\n      jump\t// in\n    tag_166:\n        /* \"#utility.yul\":7473:7585   */\n      swap1\n      pop\n        /* \"#utility.yul\":7227:7592   */\n      swap3\n      swap2\n      pop\n      pop\n      jump\t// out\n        /* \"#utility.yul\":7598:7778   */\n    tag_65:\n        /* \"#utility.yul\":7646:7723   */\n      0x4e487b7100000000000000000000000000000000000000000000000000000000\n        /* \"#utility.yul\":7643:7644   */\n      0x00\n        /* \"#utility.yul\":7636:7724   */\n      mstore\n        /* \"#utility.yul\":7743:7747   */\n      0x11\n        /* \"#utility.yul\":7740:7741   */\n      0x04\n        /* \"#utility.yul\":7733:7748   */\n      mstore\n        /* \"#utility.yul\":7767:7771   */\n      0x24\n        /* \"#utility.yul\":7764:7765   */\n      0x00\n        /* \"#utility.yul\":7757:7772   */\n      revert\n        /* \"#utility.yul\":7784:8017   */\n    tag_25:\n        /* \"#utility.yul\":7823:7826   */\n      0x00\n        /* \"#utility.yul\":7846:7870   */\n      tag_169\n        /* \"#utility.yul\":7864:7869   */\n      dup3\n        /* \"#utility.yul\":7846:7870   */\n      tag_44\n      jump\t// in\n    tag_169:\n        /* \"#utility.yul\":7837:7870   */\n      swap2\n      pop\n        /* \"#utility.yul\":7892:7958   */\n      0xffffffffffffffffffffffffffffffffffffffffffffffffffffffffffffffff\n        /* \"#utility.yul\":7885:7890   */\n      dup3\n        /* \"#utility.yul\":7882:7959   */\n      sub\n        /* \"#utility.yul\":7879:7982   */\n      tag_170\n      jumpi\n        /* \"#utility.yul\":7962:7980   */\n      tag_171\n      tag_65\n      jump\t// in\n    tag_171:\n        /* \"#utility.yul\":7879:7982   */\n    tag_170:\n        /* \"#utility.yul\":8009:8010   */\n      0x01\n        /* \"#utility.yul\":8002:8007   */\n      dup3\n        /* \"#utility.yul\":7998:8011   */\n      add\n        /* \"#utility.yul\":7991:8011   */\n      swap1\n      pop\n        /* \"#utility.yul\":7784:8017   */\n      swap2\n      swap1\n      pop\n      jump\t// out\n        /* \"#utility.yul\":8023:8203   */\n    tag_66:\n        /* \"#utility.yul\":8071:8148   */\n      0x4e487b7100000000000000000000000000000000000000000000000000000000\n        /* \"#utility.yul\":8068:8069   */\n      0x00\n        /* \"#utility.yul\":8061:8149   */\n      mstore\n        /* \"#utility.yul\":8168:8172   */\n      0x22\n        /* \"#utility.yul\":8165:8166   */\n      0x04\n        /* \"#utility.yul\":8158:8173   */\n      mstore\n        /* \"#utility.yul\":8192:8196   */\n      0x24\n        /* \"#utility.yul\":8189:8190   */\n      0x00\n        /* \"#utility.yul\":8182:8197   */\n      revert\n        /* \"#utility.yul\":8209:8529   */\n    tag_32:\n        /* \"#utility.yul\":8253:8259   */\n      0x00\n        /* \"#utility.yul\":8290:8291   */\n      0x02\n        /* \"#utility.yul\":8284:8288   */\n      dup3\n        /* \"#utility.yul\":8280:8292   */\n      div\n        /* \"#utility.yul\":8270:8292   */\n      swap1\n      pop\n        /* \"#utility.yul\":8337:8338   */\n      0x01\n        /* \"#utility.yul\":8331:8335   */\n      dup3\n        /* \"#utility.yul\":8327:8339   */\n      and\n        /* \"#utility.yul\":8358:8376   */\n      dup1\n        /* \"#utility.yul\":8348:8429   */\n      tag_174\n      jumpi\n        /* \"#utility.yul\":8414:8418   */\n      0x7f\n        /* \"#utility.yul\":8406:8412   */\n      dup3\n        /* \"#utility.yul\":8402:8419   */\n      and\n        /* \"#utility.yul\":8392:8419   */\n      swap2\n      pop\n        /* \"#utility.yul\":8348:8429   */\n    tag_174:\n        /* \"#utility.yul\":8476:8478   */\n      0x20\n        /* \"#utility.yul\":8468:8474   */\n      dup3\n        /* \"#utility.yul\":8465:8479   */\n      lt\n        /* \"#utility.yul\":8445:8463   */\n      dup2\n        /* \"#utility.yul\":8442:8480   */\n      sub\n        /* \"#utility.yul\":8439:8523   */\n      tag_175\n      jumpi\n        /* \"#utility.yul\":8495:8513   */\n      tag_176\n      tag_66\n      jump\t// in\n    tag_176:\n        /* \"#utility.yul\":8439:8523   */\n    tag_175:\n        /* \"#utility.yul\":8260:8529   */\n      pop\n        /* \"#utility.yul\":8209:8529   */\n      swap2\n      swap1\n      pop\n      jump\t// out\n        /* \"#utility.yul\":8535:8676   */\n    tag_67:\n        /* \"#utility.yul\":8584:8588   */\n      0x00\n        /* \"#utility.yul\":8607:8610   */\n      dup2\n        /* \"#utility.yul\":8599:8610   */\n      swap1\n      pop\n        /* \"#utility.yul\":8630:8633   */\n      dup2\n        /* \"#utility.yul\":8627:8628   */\n      0x00\n        /* \"#utility.yul\":8620:8634   */\n      mstore\n        /* \"#utility.yul\":8664:8668   */\n      0x20\n        /* \"#utility.yul\":8661:8662   */\n      0x00\n        /* \"#utility.yul\":8651:8669   */\n      keccak256\n        /* \"#utility.yul\":8643:8669   */\n      swap1\n      pop\n        /* \"#utility.yul\":8535:8676   */\n      swap2\n      swap1\n      pop\n      jump\t// out\n        /* \"#utility.yul\":8682:8775   */\n    tag_68:\n        /* \"#utility.yul\":8719:8725   */\n      0x00\n        /* \"#utility.yul\":8766:8768   */\n      0x20\n        /* \"#utility.yul\":8761:8763   */\n      0x1f\n        /* \"#utility.yul\":8754:8759   */\n      dup4\n        /* \"#utility.yul\":8750:8764   */\n      add\n        /* \"#utility.yul\":8746:8769   */\n      div\n        /* \"#utility.yul\":8736:8769   */\n      swap1\n      pop\n        /* \"#utility.yul\":8682:8775   */\n      swap2\n      swap1\n      pop\n      jump\t// out\n        /* \"#utility.yul\":8781:8888   */\n    tag_69:\n        /* \"#utility.yul\":8825:8833   */\n      0x00\n        /* \"#utility.yul\":8875:8880   */\n      dup3\n        /* \"#utility.yul\":8869:8873   */\n      dup3\n        /* \"#utility.yul\":8865:8881   */\n      shl\n        /* \"#utility.yul\":8844:8881   */\n      swap1\n      pop\n        /* \"#utility.yul\":8781:8888   */\n      swap3\n      swap2\n      pop\n      pop\n      jump\t// out\n        /* \"#utility.yul\":8894:9287   */\n    tag_70:\n        /* \"#utility.yul\":8963:8969   */\n      0x00\n        /* \"#utility.yul\":9013:9014   */\n      0x08\n        /* \"#utility.yul\":9001:9011   */\n      dup4\n        /* \"#utility.yul\":8997:9015   */\n      mul\n        /* \"#utility.yul\":9036:9133   */\n      tag_181\n        /* \"#utility.yul\":9066:9132   */\n      0xffffffffffffffffffffffffffffffffffffffffffffffffffffffffffffffff\n        /* \"#utility.yul\":9055:9064   */\n      dup3\n        /* \"#utility.yul\":9036:9133   */\n      tag_69\n      jump\t// in\n    tag_181:\n        /* \"#utility.yul\":9154:9193   */\n      tag_182\n        /* \"#utility.yul\":9184:9192   */\n      dup7\n        /* \"#utility.yul\":9173:9182   */\n      dup4\n        /* \"#utility.yul\":9154:9193   */\n      tag_69\n      jump\t// in\n    tag_182:\n        /* \"#utility.yul\":9142:9193   */\n      swap6\n      pop\n        /* \"#utility.yul\":9226:9230   */\n      dup1\n        /* \"#utility.yul\":9222:9231   */\n      not\n        /* \"#utility.yul\":9215:9220   */\n      dup5\n        /* \"#utility.yul\":9211:9232   */\n      and\n        /* \"#utility.yul\":9202:9232   */\n      swap4\n      pop\n        /* \"#utility.yul\":9275:9279   */\n      dup1\n        /* \"#utility.yul\":9265:9273   */\n      dup7\n        /* \"#utility.yul\":9261:9280   */\n      and\n        /* \"#utility.yul\":9254:9259   */\n      dup5\n        /* \"#utility.yul\":9251:9281   */\n      or\n        /* \"#utility.yul\":9241:9281   */\n      swap3\n      pop\n        /* \"#utility.yul\":8970:9287   */\n      pop\n      pop\n        /* \"#utility.yul\":8894:9287   */\n      swap4\n      swap3\n      pop\n      pop\n      pop\n      jump\t// out\n        /* \"#utility.yul\":9293:9353   */\n    tag_71:\n        /* \"#utility.yul\":9321:9324   */\n      0x00\n        /* \"#utility.yul\":9342:9347   */\n      dup2\n        /* \"#utility.yul\":9335:9347   */\n      swap1\n      pop\n        /* \"#utility.yul\":9293:9353   */\n      swap2\n      swap1\n      pop\n      jump\t// out\n        /* \"#utility.yul\":9359:9501   */\n    tag_72:\n        /* \"#utility.yul\":9409:9418   */\n      0x00\n        /* \"#utility.yul\":9442:9495   */\n      tag_185\n        /* \"#utility.yul\":9460:9494   */\n      tag_186\n        /* \"#utility.yul\":9469:9493   */\n      tag_187\n        /* \"#utility.yul\":9487:9492   */\n      dup5\n        /* \"#utility.yul\":9469:9493   */\n      tag_44\n      jump\t// in\n    tag_187:\n        /* \"#utility.yul\":9460:9494   */\n      tag_71\n      jump\t// in\n    tag_186:\n        /* \"#utility.yul\":9442:9495   */\n      tag_44\n      jump\t// in\n    tag_185:\n        /* \"#utility.yul\":9429:9495   */\n      swap1\n      pop\n        /* \"#utility.yul\":9359:9501   */\n      swap2\n      swap1\n      pop\n      jump\t// out\n        /* \"#utility.yul\":9507:9582   */\n    tag_73:\n        /* \"#utility.yul\":9550:9553   */\n      0x00\n        /* \"#utility.yul\":9571:9576   */\n      dup2\n        /* \"#utility.yul\":9564:9576   */\n      swap1\n      pop\n        /* \"#utility.yul\":9507:9582   */\n      swap2\n      swap1\n      pop\n      jump\t// out\n        /* \"#utility.yul\":9588:9857   */\n    tag_74:\n        /* \"#utility.yul\":9698:9737   */\n      tag_190\n        /* \"#utility.yul\":9729:9736   */\n      dup4\n        /* \"#utility.yul\":9698:9737   */\n      tag_72\n      jump\t// in\n    tag_190:\n        /* \"#utility.yul\":9759:9850   */\n      tag_191\n        /* \"#utility.yul\":9808:9849   */\n      tag_192\n        /* \"#utility.yul\":9832:9848   */\n      dup3\n        /* \"#utility.yul\":9808:9849   */\n      tag_73\n      jump\t// in\n    tag_192:\n        /* \"#utility.yul\":9800:9806   */\n      dup5\n        /* \"#utility.yul\":9793:9797   */\n      dup5\n        /* \"#utility.yul\":9787:9798   */\n      sload\n        /* \"#utility.yul\":9759:9850   */\n      tag_70\n      jump\t// in\n    tag_191:\n        /* \"#utility.yul\":9753:9757   */\n      dup3\n        /* \"#utility.yul\":9746:9851   */\n      sstore\n        /* \"#utility.yul\":9664:9857   */\n      pop\n        /* \"#utility.yul\":9588:9857   */\n      pop\n      pop\n      pop\n      jump\t// out\n        /* \"#utility.yul\":9863:9936   */\n    tag_75:\n        /* \"#utility.yul\":9908:9911   */\n      0x00\n        /* \"#utility.yul\":9863:9936   */\n      swap1\n      jump\t// out\n        /* \"#utility.yul\":9942:10131   */\n    tag_76:\n        /* \"#utility.yul\":10019:10051   */\n      tag_195\n      tag_75\n      jump\t// in\n    tag_195:\n        /* \"#utility.yul\":10060:10125   */\n      tag_196\n        /* \"#utility.yul\":10118:10124   */\n      dup2\n        /* \"#utility.yul\":10110:10116   */\n      dup5\n        /* \"#utility.yul\":10104:10108   */\n      dup5\n        /* \"#utility.yul\":10060:10125   */\n      tag_74\n      jump\t// in\n    tag_196:\n        /* \"#utility.yul\":9995:10131   */\n      pop\n        /* \"#utility.yul\":9942:10131   */\n      pop\n      pop\n      jump\t// out\n        /* \"#utility.yul\":10137:10323   */\n    tag_77:\n        /* \"#utility.yul\":10197:10317   */\n    tag_198:\n        /* \"#utility.yul\":10214:10217   */\n      dup2\n        /* \"#utility.yul\":10207:10212   */\n      dup2\n        /* \"#utility.yul\":10204:10218   */\n      lt\n        /* \"#utility.yul\":10197:10317   */\n      iszero\n      tag_200\n      jumpi\n        /* \"#utility.yul\":10268:10307   */\n      tag_201\n        /* \"#utility.yul\":10305:10306   */\n      0x00\n        /* \"#utility.yul\":10298:10303   */\n      dup3\n        /* \"#utility.yul\":10268:10307   */\n      tag_76\n      jump\t// in\n    tag_201:\n        /* \"#utility.yul\":10241:10242   */\n      0x01\n        /* \"#utility.yul\":10234:10239   */\n      dup2\n        /* \"#utility.yul\":10230:10243   */\n      add\n        /* \"#utility.yul\":10221:10243   */\n      swap1\n      pop\n        /* \"#utility.yul\":10197:10317   */\n      jump(tag_198)\n    tag_200:\n        /* \"#utility.yul\":10137:10323   */\n      pop\n      pop\n      jump\t// out\n        /* \"#utility.yul\":10329:10872   */\n    tag_78:\n        /* \"#utility.yul\":10430:10432   */\n      0x1f\n        /* \"#utility.yul\":10425:10428   */\n      dup3\n        /* \"#utility.yul\":10422:10433   */\n      gt\n        /* \"#utility.yul\":10419:10865   */\n      iszero\n      tag_203\n      jumpi\n        /* \"#utility.yul\":10464:10502   */\n      tag_204\n        /* \"#utility.yul\":10496:10501   */\n      dup2\n        /* \"#utility.yul\":10464:10502   */\n      tag_67\n      jump\t// in\n    tag_204:\n        /* \"#utility.yul\":10548:10577   */\n      tag_205\n        /* \"#utility.yul\":10566:10576   */\n      dup5\n        /* \"#utility.yul\":10548:10577   */\n      tag_68\n      jump\t// in\n    tag_205:\n        /* \"#utility.yul\":10538:10546   */\n      dup2\n        /* \"#utility.yul\":10534:10578   */\n      add\n        /* \"#utility.yul\":10731:10733   */\n      0x20\n        /* \"#utility.yul\":10719:10729   */\n      dup6\n        /* \"#utility.yul\":10716:10734   */\n      lt\n        /* \"#utility.yul\":10713:10762   */\n      iszero\n      tag_206\n      jumpi\n        /* \"#utility.yul\":10752:10760   */\n      dup2\n        /* \"#utility.yul\":10737:10760   */\n      swap1\n      pop\n        /* \"#utility.yul\":10713:10762   */\n    tag_206:\n        /* \"#utility.yul\":10775:10855   */\n      tag_207\n        /* \"#utility.yul\":10831:10853   */\n      tag_208\n        /* \"#utility.yul\":10849:10852   */\n      dup6\n        /* \"#utility.yul\":10831:10853   */\n      tag_68\n      jump\t// in\n    tag_208:\n        /* \"#utility.yul\":10821:10829   */\n      dup4\n        /* \"#utility.yul\":10817:10854   */\n      add\n        /* \"#utility.yul\":10804:10815   */\n      dup3\n        /* \"#utility.yul\":10775:10855   */\n      tag_77\n      jump\t// in\n    tag_207:\n        /* \"#utility.yul\":10434:10865   */\n      pop\n      pop\n        /* \"#utility.yul\":10419:10865   */\n    tag_203:\n        /* \"#utility.yul\":10329:10872   */\n      pop\n      pop\n      pop\n      jump\t// out\n        /* \"#utility.yul\":10878:10995   */\n    tag_79:\n        /* \"#utility.yul\":10932:10940   */\n      0x00\n        /* \"#utility.yul\":10982:10987   */\n      dup3\n        /* \"#utility.yul\":10976:10980   */\n      dup3\n        /* \"#utility.yul\":10972:10988   */\n      shr\n        /* \"#utility.yul\":10951:10988   */\n      swap1\n      pop\n        /* \"#utility.yul\":10878:10995   */\n      swap3\n      swap2\n      pop\n      pop\n      jump\t// out\n        /* \"#utility.yul\":11001:11170   */\n    tag_80:\n        /* \"#utility.yul\":11045:11051   */\n      0x00\n        /* \"#utility.yul\":11078:11129   */\n      tag_211\n        /* \"#utility.yul\":11126:11127   */\n      0x00\n        /* \"#utility.yul\":11122:11128   */\n      not\n        /* \"#utility.yul\":11114:11119   */\n      dup5\n        /* \"#utility.yul\":11111:11112   */\n      0x08\n        /* \"#utility.yul\":11107:11120   */\n      mul\n        /* \"#utility.yul\":11078:11129   */\n      tag_79\n      jump\t// in\n    tag_211:\n        /* \"#utility.yul\":11074:11130   */\n      not\n        /* \"#utility.yul\":11159:11163   */\n      dup1\n        /* \"#utility.yul\":11153:11157   */\n      dup4\n        /* \"#utility.yul\":11149:11164   */\n      and\n        /* \"#utility.yul\":11139:11164   */\n      swap2\n      pop\n        /* \"#utility.yul\":11052:11170   */\n      pop\n        /* \"#utility.yul\":11001:11170   */\n      swap3\n      swap2\n      pop\n      pop\n      jump\t// out\n        /* \"#utility.yul\":11175:11470   */\n    tag_81:\n        /* \"#utility.yul\":11251:11255   */\n      0x00\n        /* \"#utility.yul\":11397:11426   */\n      tag_213\n        /* \"#utility.yul\":11422:11425   */\n      dup4\n        /* \"#utility.yul\":11416:11420   */\n      dup4\n        /* \"#utility.yul\":11397:11426   */\n      tag_80\n      jump\t// in\n    tag_213:\n        /* \"#utility.yul\":11389:11426   */\n      swap2\n      pop\n        /* \"#utility.yul\":11459:11462   */\n      dup3\n        /* \"#utility.yul\":11456:11457   */\n      0x02\n        /* \"#utility.yul\":11452:11463   */\n      mul\n        /* \"#utility.yul\":11446:11450   */\n      dup3\n        /* \"#utility.yul\":11443:11464   */\n      or\n        /* \"#utility.yul\":11435:11464   */\n      swap1\n      pop\n        /* \"#utility.yul\":11175:11470   */\n      swap3\n      swap2\n      pop\n      pop\n      jump\t// out\n        /* \"#utility.yul\":11475:12870   */\n    tag_27:\n        /* \"#utility.yul\":11592:11629   */\n      tag_215\n        /* \"#utility.yul\":11625:11628   */\n      dup3\n        /* \"#utility.yul\":11592:11629   */\n      tag_60\n      jump\t// in\n    tag_215:\n        /* \"#utility.yul\":11694:11712   */\n      0xffffffffffffffff\n        /* \"#utility.yul\":11686:11692   */\n      dup2\n        /* \"#utility.yul\":11683:11713   */\n      gt\n        /* \"#utility.yul\":11680:11736   */\n      iszero\n      tag_216\n      jumpi\n        /* \"#utility.yul\":11716:11734   */\n      tag_217\n      tag_49\n      jump\t// in\n    tag_217:\n        /* \"#utility.yul\":11680:11736   */\n    tag_216:\n        /* \"#utility.yul\":11760:11798   */\n      tag_218\n        /* \"#utility.yul\":11792:11796   */\n      dup3\n        /* \"#utility.yul\":11786:11797   */\n      sload\n        /* \"#utility.yul\":11760:11798   */\n      tag_32\n      jump\t// in\n    tag_218:\n        /* \"#utility.yul\":11845:11912   */\n      tag_219\n        /* \"#utility.yul\":11905:11911   */\n      dup3\n        /* \"#utility.yul\":11897:11903   */\n      dup3\n        /* \"#utility.yul\":11891:11895   */\n      dup6\n        /* \"#utility.yul\":11845:11912   */\n      tag_78\n      jump\t// in\n    tag_219:\n        /* \"#utility.yul\":11939:11940   */\n      0x00\n        /* \"#utility.yul\":11963:11967   */\n      0x20\n        /* \"#utility.yul\":11950:11967   */\n      swap1\n      pop\n        /* \"#utility.yul\":11995:11997   */\n      0x1f\n        /* \"#utility.yul\":11987:11993   */\n      dup4\n        /* \"#utility.yul\":11984:11998   */\n      gt\n        /* \"#utility.yul\":12012:12013   */\n      0x01\n        /* \"#utility.yul\":12007:12625   */\n      dup2\n      eq\n      tag_221\n      jumpi\n        /* \"#utility.yul\":12669:12670   */\n      0x00\n        /* \"#utility.yul\":12686:12692   */\n      dup5\n        /* \"#utility.yul\":12683:12760   */\n      iszero\n      tag_222\n      jumpi\n        /* \"#utility.yul\":12735:12744   */\n      dup3\n        /* \"#utility.yul\":12730:12733   */\n      dup8\n        /* \"#utility.yul\":12726:12745   */\n      add\n        /* \"#utility.yul\":12720:12746   */\n      mload\n        /* \"#utility.yul\":12711:12746   */\n      swap1\n      pop\n        /* \"#utility.yul\":12683:12760   */\n    tag_222:\n        /* \"#utility.yul\":12786:12853   */\n      tag_223\n        /* \"#utility.yul\":12846:12852   */\n      dup6\n        /* \"#utility.yul\":12839:12844   */\n      dup3\n        /* \"#utility.yul\":12786:12853   */\n      tag_81\n      jump\t// in\n    tag_223:\n        /* \"#utility.yul\":12780:12784   */\n      dup7\n        /* \"#utility.yul\":12773:12854   */\n      sstore\n        /* \"#utility.yul\":12642:12864   */\n      pop\n        /* \"#utility.yul\":11977:12864   */\n      jump(tag_220)\n        /* \"#utility.yul\":12007:12625   */\n    tag_221:\n        /* \"#utility.yul\":12059:12063   */\n      0x1f\n        /* \"#utility.yul\":12055:12064   */\n      not\n        /* \"#utility.yul\":12047:12053   */\n      dup5\n        /* \"#utility.yul\":12043:12065   */\n      and\n        /* \"#utility.yul\":12093:12130   */\n      tag_224\n        /* \"#utility.yul\":12125:12129   */\n      dup7\n        /* \"#utility.yul\":12093:12130   */\n      tag_67\n      jump\t// in\n    tag_224:\n        /* \"#utility.yul\":12152:12153   */\n      0x00\n        /* \"#utility.yul\":12166:12374   */\n    tag_225:\n        /* \"#utility.yul\":12180:12187   */\n      dup3\n        /* \"#utility.yul\":12177:12178   */\n      dup2\n        /* \"#utility.yul\":12174:12188   */\n      lt\n        /* \"#utility.yul\":12166:12374   */\n      iszero\n      tag_227\n      jumpi\n        /* \"#utility.yul\":12259:12268   */\n      dup5\n        /* \"#utility.yul\":12254:12257   */\n      dup10\n        /* \"#utility.yul\":12250:12269   */\n      add\n        /* \"#utility.yul\":12244:12270   */\n      mload\n        /* \"#utility.yul\":12236:12242   */\n      dup3\n        /* \"#utility.yul\":12229:12271   */\n      sstore\n        /* \"#utility.yul\":12310:12311   */\n      0x01\n        /* \"#utility.yul\":12302:12308   */\n      dup3\n        /* \"#utility.yul\":12298:12312   */\n      add\n        /* \"#utility.yul\":12288:12312   */\n      swap2\n      pop\n        /* \"#utility.yul\":12357:12359   */\n      0x20\n        /* \"#utility.yul\":12346:12355   */\n      dup6\n        /* \"#utility.yul\":12342:12360   */\n      add\n        /* \"#utility.yul\":12329:12360   */\n      swap5\n      pop\n        /* \"#utility.yul\":12203:12207   */\n      0x20\n        /* \"#utility.yul\":12200:12201   */\n      dup2\n        /* \"#utility.yul\":12196:12208   */\n      add\n        /* \"#utility.yul\":12191:12208   */\n      swap1\n      pop\n        /* \"#utility.yul\":12166:12374   */\n      jump(tag_225)\n    tag_227:\n        /* \"#utility.yul\":12402:12408   */\n      dup7\n        /* \"#utility.yul\":12393:12400   */\n      dup4\n        /* \"#utility.yul\":12390:12409   */\n      lt\n        /* \"#utility.yul\":12387:12566   */\n      iszero\n      tag_228\n      jumpi\n        /* \"#utility.yul\":12460:12469   */\n      dup5\n        /* \"#utility.yul\":12455:12458   */\n      dup10\n        /* \"#utility.yul\":12451:12470   */\n      add\n        /* \"#utility.yul\":12445:12471   */\n      mload\n        /* \"#utility.yul\":12503:12551   */\n      tag_229\n        /* \"#utility.yul\":12545:12549   */\n      0x1f\n        /* \"#utility.yul\":12537:12543   */\n      dup10\n        /* \"#utility.yul\":12533:12550   */\n      and\n        /* \"#utility.yul\":12522:12531   */\n      dup3\n        /* \"#utility.yul\":12503:12551   */\n      tag_80\n      jump\t// in\n    tag_229:\n        /* \"#utility.yul\":12495:12501   */\n      dup4\n        /* \"#utility.yul\":12488:12552   */\n      sstore\n        /* \"#utility.yul\":12410:12566   */\n      pop\n        /* \"#utility.yul\":12387:12566   */\n    tag_228:\n        /* \"#utility.yul\":12612:12613   */\n      0x01\n        /* \"#utility.yul\":12608:12609   */\n      0x02\n        /* \"#utility.yul\":12600:12606   */\n      dup9\n        /* \"#utility.yul\":12596:12610   */\n      mul\n        /* \"#utility.yul\":12592:12614   */\n      add\n        /* \"#utility.yul\":12586:12590   */\n      dup9\n        /* \"#utility.yul\":12579:12615   */\n      sstore\n        /* \"#utility.yul\":12014:12625   */\n      pop\n      pop\n      pop\n        /* \"#utility.yul\":11977:12864   */\n    tag_220:\n      pop\n        /* \"#utility.yul\":11567:12870   */\n      pop\n      pop\n      pop\n        /* \"#utility.yul\":11475:12870   */\n      pop\n      pop\n      jump\t// out\n\n    auxdata: 0xa264697066735822122024447013af4f529219f8313b079a0b905c6db16b9e7a10e87ac706cf31467f4c64736f6c63430008120033\n}\n",
				"bytecode": {
					"linkReferences": {},
					"object": "608060405234801561001057600080fd5b50610bb3806100206000396000f3fe6080604052600436106100345760003560e01c806327e235e3146100395780632b66d72e14610076578063977a767c14610092575b600080fd5b34801561004557600080fd5b50610060600480360381019061005b91906104aa565b6100cf565b60405161006d91906104f0565b60405180910390f35b610090600480360381019061008b9190610651565b6100ed565b005b34801561009e57600080fd5b506100b960048036038101906100b491906106c6565b610291565b6040516100c69190610806565b60405180910390f35b60006020528060005260406000206000915090508060000154905081565b60008060003373ffffffffffffffffffffffffffffffffffffffff1673ffffffffffffffffffffffffffffffffffffffff1681526020019081526020016000206000015490506000803373ffffffffffffffffffffffffffffffffffffffff1673ffffffffffffffffffffffffffffffffffffffff168152602001908152602001600020600001600081548092919061018590610857565b9190505550600060405180608001604052803481526020014281526020013373ffffffffffffffffffffffffffffffffffffffff168152602001848152509050806000803373ffffffffffffffffffffffffffffffffffffffff1673ffffffffffffffffffffffffffffffffffffffff1681526020019081526020016000206001016000848152602001908152602001600020600082015181600001556020820151816001015560408201518160020160006101000a81548173ffffffffffffffffffffffffffffffffffffffff021916908373ffffffffffffffffffffffffffffffffffffffff16021790555060608201518160030190816102889190610aab565b50905050505050565b6102996103fa565b6000808473ffffffffffffffffffffffffffffffffffffffff1673ffffffffffffffffffffffffffffffffffffffff168152602001908152602001600020600101600083815260200190815260200160002060405180608001604052908160008201548152602001600182015481526020016002820160009054906101000a900473ffffffffffffffffffffffffffffffffffffffff1673ffffffffffffffffffffffffffffffffffffffff1673ffffffffffffffffffffffffffffffffffffffff168152602001600382018054610370906108ce565b80601f016020809104026020016040519081016040528092919081815260200182805461039c906108ce565b80156103e95780601f106103be576101008083540402835291602001916103e9565b820191906000526020600020905b8154815290600101906020018083116103cc57829003601f168201915b505050505081525050905092915050565b60405180608001604052806000815260200160008152602001600073ffffffffffffffffffffffffffffffffffffffff168152602001606081525090565b6000604051905090565b600080fd5b600080fd5b600073ffffffffffffffffffffffffffffffffffffffff82169050919050565b60006104778261044c565b9050919050565b6104878161046c565b811461049257600080fd5b50565b6000813590506104a48161047e565b92915050565b6000602082840312156104c0576104bf610442565b5b60006104ce84828501610495565b91505092915050565b6000819050919050565b6104ea816104d7565b82525050565b600060208201905061050560008301846104e1565b92915050565b600080fd5b600080fd5b6000601f19601f8301169050919050565b7f4e487b7100000000000000000000000000000000000000000000000000000000600052604160045260246000fd5b61055e82610515565b810181811067ffffffffffffffff8211171561057d5761057c610526565b5b80604052505050565b6000610590610438565b905061059c8282610555565b919050565b600067ffffffffffffffff8211156105bc576105bb610526565b5b6105c582610515565b9050602081019050919050565b82818337600083830152505050565b60006105f46105ef846105a1565b610586565b9050828152602081018484840111156106105761060f610510565b5b61061b8482856105d2565b509392505050565b600082601f8301126106385761063761050b565b5b81356106488482602086016105e1565b91505092915050565b60006020828403121561066757610666610442565b5b600082013567ffffffffffffffff81111561068557610684610447565b5b61069184828501610623565b91505092915050565b6106a3816104d7565b81146106ae57600080fd5b50565b6000813590506106c08161069a565b92915050565b600080604083850312156106dd576106dc610442565b5b60006106eb85828601610495565b92505060206106fc858286016106b1565b9150509250929050565b61070f816104d7565b82525050565b61071e8161046c565b82525050565b600081519050919050565b600082825260208201905092915050565b60005b8381101561075e578082015181840152602081019050610743565b60008484015250505050565b600061077582610724565b61077f818561072f565b935061078f818560208601610740565b61079881610515565b840191505092915050565b60006080830160008301516107bb6000860182610706565b5060208301516107ce6020860182610706565b5060408301516107e16040860182610715565b50606083015184820360608601526107f9828261076a565b9150508091505092915050565b6000602082019050818103600083015261082081846107a3565b905092915050565b7f4e487b7100000000000000000000000000000000000000000000000000000000600052601160045260246000fd5b6000610862826104d7565b91507fffffffffffffffffffffffffffffffffffffffffffffffffffffffffffffffff820361089457610893610828565b5b600182019050919050565b7f4e487b7100000000000000000000000000000000000000000000000000000000600052602260045260246000fd5b600060028204905060018216806108e657607f821691505b6020821081036108f9576108f861089f565b5b50919050565b60008190508160005260206000209050919050565b60006020601f8301049050919050565b600082821b905092915050565b6000600883026109617fffffffffffffffffffffffffffffffffffffffffffffffffffffffffffffffff82610924565b61096b8683610924565b95508019841693508086168417925050509392505050565b6000819050919050565b60006109a86109a361099e846104d7565b610983565b6104d7565b9050919050565b6000819050919050565b6109c28361098d565b6109d66109ce826109af565b848454610931565b825550505050565b600090565b6109eb6109de565b6109f68184846109b9565b505050565b5b81811015610a1a57610a0f6000826109e3565b6001810190506109fc565b5050565b601f821115610a5f57610a30816108ff565b610a3984610914565b81016020851015610a48578190505b610a5c610a5485610914565b8301826109fb565b50505b505050565b600082821c905092915050565b6000610a8260001984600802610a64565b1980831691505092915050565b6000610a9b8383610a71565b9150826002028217905092915050565b610ab482610724565b67ffffffffffffffff811115610acd57610acc610526565b5b610ad782546108ce565b610ae2828285610a1e565b600060209050601f831160018114610b155760008415610b03578287015190505b610b0d8582610a8f565b865550610b75565b601f198416610b23866108ff565b60005b82811015610b4b57848901518255600182019150602085019450602081019050610b26565b86831015610b685784890151610b64601f891682610a71565b8355505b6001600288020188555050505b50505050505056fea264697066735822122024447013af4f529219f8313b079a0b905c6db16b9e7a10e87ac706cf31467f4c64736f6c63430008120033",
					"opcodes": "PUSH1 0x80 PUSH1 0x40 MSTORE CALLVALUE DUP1 ISZERO PUSH2 0x10 JUMPI PUSH1 0x0 DUP1 REVERT JUMPDEST POP PUSH2 0xBB3 DUP1 PUSH2 0x20 PUSH1 0x0 CODECOPY PUSH1 0x0 RETURN INVALID PUSH1 0x80 PUSH1 0x40 MSTORE PUSH1 0x4 CALLDATASIZE LT PUSH2 0x34 JUMPI PUSH1 0x0 CALLDATALOAD PUSH1 0xE0 SHR DUP1 PUSH4 0x27E235E3 EQ PUSH2 0x39 JUMPI DUP1 PUSH4 0x2B66D72E EQ PUSH2 0x76 JUMPI DUP1 PUSH4 0x977A767C EQ PUSH2 0x92 JUMPI JUMPDEST PUSH1 0x0 DUP1 REVERT JUMPDEST CALLVALUE DUP1 ISZERO PUSH2 0x45 JUMPI PUSH1 0x0 DUP1 REVERT JUMPDEST POP PUSH2 0x60 PUSH1 0x4 DUP1 CALLDATASIZE SUB DUP2 ADD SWAP1 PUSH2 0x5B SWAP2 SWAP1 PUSH2 0x4AA JUMP JUMPDEST PUSH2 0xCF JUMP JUMPDEST PUSH1 0x40 MLOAD PUSH2 0x6D SWAP2 SWAP1 PUSH2 0x4F0 JUMP JUMPDEST PUSH1 0x40 MLOAD DUP1 SWAP2 SUB SWAP1 RETURN JUMPDEST PUSH2 0x90 PUSH1 0x4 DUP1 CALLDATASIZE SUB DUP2 ADD SWAP1 PUSH2 0x8B SWAP2 SWAP1 PUSH2 0x651 JUMP JUMPDEST PUSH2 0xED JUMP JUMPDEST STOP JUMPDEST CALLVALUE DUP1 ISZERO PUSH2 0x9E JUMPI PUSH1 0x0 DUP1 REVERT JUMPDEST POP PUSH2 0xB9 PUSH1 0x4 DUP1 CALLDATASIZE SUB DUP2 ADD SWAP1 PUSH2 0xB4 SWAP2 SWAP1 PUSH2 0x6C6 JUMP JUMPDEST PUSH2 0x291 JUMP JUMPDEST PUSH1 0x40 MLOAD PUSH2 0xC6 SWAP2 SWAP1 PUSH2 0x806 JUMP JUMPDEST PUSH1 0x40 MLOAD DUP1 SWAP2 SUB SWAP1 RETURN JUMPDEST PUSH1 0x0 PUSH1 0x20 MSTORE DUP1 PUSH1 0x0 MSTORE PUSH1 0x40 PUSH1 0x0 KECCAK256 PUSH1 0x0 SWAP2 POP SWAP1 POP DUP1 PUSH1 0x0 ADD SLOAD SWAP1 POP DUP2 JUMP JUMPDEST PUSH1 0x0 DUP1 PUSH1 0x0 CALLER PUSH20 0xFFFFFFFFFFFFFFFFFFFFFFFFFFFFFFFFFFFFFFFF AND PUSH20 0xFFFFFFFFFFFFFFFFFFFFFFFFFFFFFFFFFFFFFFFF AND DUP2 MSTORE PUSH1 0x20 ADD SWAP1 DUP2 MSTORE PUSH1 0x20 ADD PUSH1 0x0 KECCAK256 PUSH1 0x0 ADD SLOAD SWAP1 POP PUSH1 0x0 DUP1 CALLER PUSH20 0xFFFFFFFFFFFFFFFFFFFFFFFFFFFFFFFFFFFFFFFF AND PUSH20 0xFFFFFFFFFFFFFFFFFFFFFFFFFFFFFFFFFFFFFFFF AND DUP2 MSTORE PUSH1 0x20 ADD SWAP1 DUP2 MSTORE PUSH1 0x20 ADD PUSH1 0x0 KECCAK256 PUSH1 0x0 ADD PUSH1 0x0 DUP2 SLOAD DUP1 SWAP3 SWAP2 SWAP1 PUSH2 0x185 SWAP1 PUSH2 0x857 JUMP JUMPDEST SWAP2 SWAP1 POP SSTORE POP PUSH1 0x0 PUSH1 0x40 MLOAD DUP1 PUSH1 0x80 ADD PUSH1 0x40 MSTORE DUP1 CALLVALUE DUP2 MSTORE PUSH1 0x20 ADD TIMESTAMP DUP2 MSTORE PUSH1 0x20 ADD CALLER PUSH20 0xFFFFFFFFFFFFFFFFFFFFFFFFFFFFFFFFFFFFFFFF AND DUP2 MSTORE PUSH1 0x20 ADD DUP5 DUP2 MSTORE POP SWAP1 POP DUP1 PUSH1 0x0 DUP1 CALLER PUSH20 0xFFFFFFFFFFFFFFFFFFFFFFFFFFFFFFFFFFFFFFFF AND PUSH20 0xFFFFFFFFFFFFFFFFFFFFFFFFFFFFFFFFFFFFFFFF AND DUP2 MSTORE PUSH1 0x20 ADD SWAP1 DUP2 MSTORE PUSH1 0x20 ADD PUSH1 0x0 KECCAK256 PUSH1 0x1 ADD PUSH1 0x0 DUP5 DUP2 MSTORE PUSH1 0x20 ADD SWAP1 DUP2 MSTORE PUSH1 0x20 ADD PUSH1 0x0 KECCAK256 PUSH1 0x0 DUP3 ADD MLOAD DUP2 PUSH1 0x0 ADD SSTORE PUSH1 0x20 DUP3 ADD MLOAD DUP2 PUSH1 0x1 ADD SSTORE PUSH1 0x40 DUP3 ADD MLOAD DUP2 PUSH1 0x2 ADD PUSH1 0x0 PUSH2 0x100 EXP DUP2 SLOAD DUP2 PUSH20 0xFFFFFFFFFFFFFFFFFFFFFFFFFFFFFFFFFFFFFFFF MUL NOT AND SWAP1 DUP4 PUSH20 0xFFFFFFFFFFFFFFFFFFFFFFFFFFFFFFFFFFFFFFFF AND MUL OR SWAP1 SSTORE POP PUSH1 0x60 DUP3 ADD MLOAD DUP2 PUSH1 0x3 ADD SWAP1 DUP2 PUSH2 0x288 SWAP2 SWAP1 PUSH2 0xAAB JUMP JUMPDEST POP SWAP1 POP POP POP POP POP JUMP JUMPDEST PUSH2 0x299 PUSH2 0x3FA JUMP JUMPDEST PUSH1 0x0 DUP1 DUP5 PUSH20 0xFFFFFFFFFFFFFFFFFFFFFFFFFFFFFFFFFFFFFFFF AND PUSH20 0xFFFFFFFFFFFFFFFFFFFFFFFFFFFFFFFFFFFFFFFF AND DUP2 MSTORE PUSH1 0x20 ADD SWAP1 DUP2 MSTORE PUSH1 0x20 ADD PUSH1 0x0 KECCAK256 PUSH1 0x1 ADD PUSH1 0x0 DUP4 DUP2 MSTORE PUSH1 0x20 ADD SWAP1 DUP2 MSTORE PUSH1 0x20 ADD PUSH1 0x0 KECCAK256 PUSH1 0x40 MLOAD DUP1 PUSH1 0x80 ADD PUSH1 0x40 MSTORE SWAP1 DUP2 PUSH1 0x0 DUP3 ADD SLOAD DUP2 MSTORE PUSH1 0x20 ADD PUSH1 0x1 DUP3 ADD SLOAD DUP2 MSTORE PUSH1 0x20 ADD PUSH1 0x2 DUP3 ADD PUSH1 0x0 SWAP1 SLOAD SWAP1 PUSH2 0x100 EXP SWAP1 DIV PUSH20 0xFFFFFFFFFFFFFFFFFFFFFFFFFFFFFFFFFFFFFFFF AND PUSH20 0xFFFFFFFFFFFFFFFFFFFFFFFFFFFFFFFFFFFFFFFF AND PUSH20 0xFFFFFFFFFFFFFFFFFFFFFFFFFFFFFFFFFFFFFFFF AND DUP2 MSTORE PUSH1 0x20 ADD PUSH1 0x3 DUP3 ADD DUP1 SLOAD PUSH2 0x370 SWAP1 PUSH2 0x8CE JUMP JUMPDEST DUP1 PUSH1 0x1F ADD PUSH1 0x20 DUP1 SWAP2 DIV MUL PUSH1 0x20 ADD PUSH1 0x40 MLOAD SWAP1 DUP2 ADD PUSH1 0x40 MSTORE DUP1 SWAP3 SWAP2 SWAP1 DUP2 DUP2 MSTORE PUSH1 0x20 ADD DUP3 DUP1 SLOAD PUSH2 0x39C SWAP1 PUSH2 0x8CE JUMP JUMPDEST DUP1 ISZERO PUSH2 0x3E9 JUMPI DUP1 PUSH1 0x1F LT PUSH2 0x3BE JUMPI PUSH2 0x100 DUP1 DUP4 SLOAD DIV MUL DUP4 MSTORE SWAP2 PUSH1 0x20 ADD SWAP2 PUSH2 0x3E9 JUMP JUMPDEST DUP3 ADD SWAP2 SWAP1 PUSH1 0x0 MSTORE PUSH1 0x20 PUSH1 0x0 KECCAK256 SWAP1 JUMPDEST DUP2 SLOAD DUP2 MSTORE SWAP1 PUSH1 0x1 ADD SWAP1 PUSH1 0x20 ADD DUP1 DUP4 GT PUSH2 0x3CC JUMPI DUP3 SWAP1 SUB PUSH1 0x1F AND DUP3 ADD SWAP2 JUMPDEST POP POP POP POP POP DUP2 MSTORE POP POP SWAP1 POP SWAP3 SWAP2 POP POP JUMP JUMPDEST PUSH1 0x40 MLOAD DUP1 PUSH1 0x80 ADD PUSH1 0x40 MSTORE DUP1 PUSH1 0x0 DUP2 MSTORE PUSH1 0x20 ADD PUSH1 0x0 DUP2 MSTORE PUSH1 0x20 ADD PUSH1 0x0 PUSH20 0xFFFFFFFFFFFFFFFFFFFFFFFFFFFFFFFFFFFFFFFF AND DUP2 MSTORE PUSH1 0x20 ADD PUSH1 0x60 DUP2 MSTORE POP SWAP1 JUMP JUMPDEST PUSH1 0x0 PUSH1 0x40 MLOAD SWAP1 POP SWAP1 JUMP JUMPDEST PUSH1 0x0 DUP1 REVERT JUMPDEST PUSH1 0x0 DUP1 REVERT JUMPDEST PUSH1 0x0 PUSH20 0xFFFFFFFFFFFFFFFFFFFFFFFFFFFFFFFFFFFFFFFF DUP3 AND SWAP1 POP SWAP2 SWAP1 POP JUMP JUMPDEST PUSH1 0x0 PUSH2 0x477 DUP3 PUSH2 0x44C JUMP JUMPDEST SWAP1 POP SWAP2 SWAP1 POP JUMP JUMPDEST PUSH2 0x487 DUP2 PUSH2 0x46C JUMP JUMPDEST DUP2 EQ PUSH2 0x492 JUMPI PUSH1 0x0 DUP1 REVERT JUMPDEST POP JUMP JUMPDEST PUSH1 0x0 DUP2 CALLDATALOAD SWAP1 POP PUSH2 0x4A4 DUP2 PUSH2 0x47E JUMP JUMPDEST SWAP3 SWAP2 POP POP JUMP JUMPDEST PUSH1 0x0 PUSH1 0x20 DUP3 DUP5 SUB SLT ISZERO PUSH2 0x4C0 JUMPI PUSH2 0x4BF PUSH2 0x442 JUMP JUMPDEST JUMPDEST PUSH1 0x0 PUSH2 0x4CE DUP5 DUP3 DUP6 ADD PUSH2 0x495 JUMP JUMPDEST SWAP2 POP POP SWAP3 SWAP2 POP POP JUMP JUMPDEST PUSH1 0x0 DUP2 SWAP1 POP SWAP2 SWAP1 POP JUMP JUMPDEST PUSH2 0x4EA DUP2 PUSH2 0x4D7 JUMP JUMPDEST DUP3 MSTORE POP POP JUMP JUMPDEST PUSH1 0x0 PUSH1 0x20 DUP3 ADD SWAP1 POP PUSH2 0x505 PUSH1 0x0 DUP4 ADD DUP5 PUSH2 0x4E1 JUMP JUMPDEST SWAP3 SWAP2 POP POP JUMP JUMPDEST PUSH1 0x0 DUP1 REVERT JUMPDEST PUSH1 0x0 DUP1 REVERT JUMPDEST PUSH1 0x0 PUSH1 0x1F NOT PUSH1 0x1F DUP4 ADD AND SWAP1 POP SWAP2 SWAP1 POP JUMP JUMPDEST PUSH32 0x4E487B7100000000000000000000000000000000000000000000000000000000 PUSH1 0x0 MSTORE PUSH1 0x41 PUSH1 0x4 MSTORE PUSH1 0x24 PUSH1 0x0 REVERT JUMPDEST PUSH2 0x55E DUP3 PUSH2 0x515 JUMP JUMPDEST DUP2 ADD DUP2 DUP2 LT PUSH8 0xFFFFFFFFFFFFFFFF DUP3 GT OR ISZERO PUSH2 0x57D JUMPI PUSH2 0x57C PUSH2 0x526 JUMP JUMPDEST JUMPDEST DUP1 PUSH1 0x40 MSTORE POP POP POP JUMP JUMPDEST PUSH1 0x0 PUSH2 0x590 PUSH2 0x438 JUMP JUMPDEST SWAP1 POP PUSH2 0x59C DUP3 DUP3 PUSH2 0x555 JUMP JUMPDEST SWAP2 SWAP1 POP JUMP JUMPDEST PUSH1 0x0 PUSH8 0xFFFFFFFFFFFFFFFF DUP3 GT ISZERO PUSH2 0x5BC JUMPI PUSH2 0x5BB PUSH2 0x526 JUMP JUMPDEST JUMPDEST PUSH2 0x5C5 DUP3 PUSH2 0x515 JUMP JUMPDEST SWAP1 POP PUSH1 0x20 DUP2 ADD SWAP1 POP SWAP2 SWAP1 POP JUMP JUMPDEST DUP3 DUP2 DUP4 CALLDATACOPY PUSH1 0x0 DUP4 DUP4 ADD MSTORE POP POP POP JUMP JUMPDEST PUSH1 0x0 PUSH2 0x5F4 PUSH2 0x5EF DUP5 PUSH2 0x5A1 JUMP JUMPDEST PUSH2 0x586 JUMP JUMPDEST SWAP1 POP DUP3 DUP2 MSTORE PUSH1 0x20 DUP2 ADD DUP5 DUP5 DUP5 ADD GT ISZERO PUSH2 0x610 JUMPI PUSH2 0x60F PUSH2 0x510 JUMP JUMPDEST JUMPDEST PUSH2 0x61B DUP5 DUP3 DUP6 PUSH2 0x5D2 JUMP JUMPDEST POP SWAP4 SWAP3 POP POP POP JUMP JUMPDEST PUSH1 0x0 DUP3 PUSH1 0x1F DUP4 ADD SLT PUSH2 0x638 JUMPI PUSH2 0x637 PUSH2 0x50B JUMP JUMPDEST JUMPDEST DUP2 CALLDATALOAD PUSH2 0x648 DUP5 DUP3 PUSH1 0x20 DUP7 ADD PUSH2 0x5E1 JUMP JUMPDEST SWAP2 POP POP SWAP3 SWAP2 POP POP JUMP JUMPDEST PUSH1 0x0 PUSH1 0x20 DUP3 DUP5 SUB SLT ISZERO PUSH2 0x667 JUMPI PUSH2 0x666 PUSH2 0x442 JUMP JUMPDEST JUMPDEST PUSH1 0x0 DUP3 ADD CALLDATALOAD PUSH8 0xFFFFFFFFFFFFFFFF DUP2 GT ISZERO PUSH2 0x685 JUMPI PUSH2 0x684 PUSH2 0x447 JUMP JUMPDEST JUMPDEST PUSH2 0x691 DUP5 DUP3 DUP6 ADD PUSH2 0x623 JUMP JUMPDEST SWAP2 POP POP SWAP3 SWAP2 POP POP JUMP JUMPDEST PUSH2 0x6A3 DUP2 PUSH2 0x4D7 JUMP JUMPDEST DUP2 EQ PUSH2 0x6AE JUMPI PUSH1 0x0 DUP1 REVERT JUMPDEST POP JUMP JUMPDEST PUSH1 0x0 DUP2 CALLDATALOAD SWAP1 POP PUSH2 0x6C0 DUP2 PUSH2 0x69A JUMP JUMPDEST SWAP3 SWAP2 POP POP JUMP JUMPDEST PUSH1 0x0 DUP1 PUSH1 0x40 DUP4 DUP6 SUB SLT ISZERO PUSH2 0x6DD JUMPI PUSH2 0x6DC PUSH2 0x442 JUMP JUMPDEST JUMPDEST PUSH1 0x0 PUSH2 0x6EB DUP6 DUP3 DUP7 ADD PUSH2 0x495 JUMP JUMPDEST SWAP3 POP POP PUSH1 0x20 PUSH2 0x6FC DUP6 DUP3 DUP7 ADD PUSH2 0x6B1 JUMP JUMPDEST SWAP2 POP POP SWAP3 POP SWAP3 SWAP1 POP JUMP JUMPDEST PUSH2 0x70F DUP2 PUSH2 0x4D7 JUMP JUMPDEST DUP3 MSTORE POP POP JUMP JUMPDEST PUSH2 0x71E DUP2 PUSH2 0x46C JUMP JUMPDEST DUP3 MSTORE POP POP JUMP JUMPDEST PUSH1 0x0 DUP2 MLOAD SWAP1 POP SWAP2 SWAP1 POP JUMP JUMPDEST PUSH1 0x0 DUP3 DUP3 MSTORE PUSH1 0x20 DUP3 ADD SWAP1 POP SWAP3 SWAP2 POP POP JUMP JUMPDEST PUSH1 0x0 JUMPDEST DUP4 DUP2 LT ISZERO PUSH2 0x75E JUMPI DUP1 DUP3 ADD MLOAD DUP2 DUP5 ADD MSTORE PUSH1 0x20 DUP2 ADD SWAP1 POP PUSH2 0x743 JUMP JUMPDEST PUSH1 0x0 DUP5 DUP5 ADD MSTORE POP POP POP POP JUMP JUMPDEST PUSH1 0x0 PUSH2 0x775 DUP3 PUSH2 0x724 JUMP JUMPDEST PUSH2 0x77F DUP2 DUP6 PUSH2 0x72F JUMP JUMPDEST SWAP4 POP PUSH2 0x78F DUP2 DUP6 PUSH1 0x20 DUP7 ADD PUSH2 0x740 JUMP JUMPDEST PUSH2 0x798 DUP2 PUSH2 0x515 JUMP JUMPDEST DUP5 ADD SWAP2 POP POP SWAP3 SWAP2 POP POP JUMP JUMPDEST PUSH1 0x0 PUSH1 0x80 DUP4 ADD PUSH1 0x0 DUP4 ADD MLOAD PUSH2 0x7BB PUSH1 0x0 DUP7 ADD DUP3 PUSH2 0x706 JUMP JUMPDEST POP PUSH1 0x20 DUP4 ADD MLOAD PUSH2 0x7CE PUSH1 0x20 DUP7 ADD DUP3 PUSH2 0x706 JUMP JUMPDEST POP PUSH1 0x40 DUP4 ADD MLOAD PUSH2 0x7E1 PUSH1 0x40 DUP7 ADD DUP3 PUSH2 0x715 JUMP JUMPDEST POP PUSH1 0x60 DUP4 ADD MLOAD DUP5 DUP3 SUB PUSH1 0x60 DUP7 ADD MSTORE PUSH2 0x7F9 DUP3 DUP3 PUSH2 0x76A JUMP JUMPDEST SWAP2 POP POP DUP1 SWAP2 POP POP SWAP3 SWAP2 POP POP JUMP JUMPDEST PUSH1 0x0 PUSH1 0x20 DUP3 ADD SWAP1 POP DUP2 DUP2 SUB PUSH1 0x0 DUP4 ADD MSTORE PUSH2 0x820 DUP2 DUP5 PUSH2 0x7A3 JUMP JUMPDEST SWAP1 POP SWAP3 SWAP2 POP POP JUMP JUMPDEST PUSH32 0x4E487B7100000000000000000000000000000000000000000000000000000000 PUSH1 0x0 MSTORE PUSH1 0x11 PUSH1 0x4 MSTORE PUSH1 0x24 PUSH1 0x0 REVERT JUMPDEST PUSH1 0x0 PUSH2 0x862 DUP3 PUSH2 0x4D7 JUMP JUMPDEST SWAP2 POP PUSH32 0xFFFFFFFFFFFFFFFFFFFFFFFFFFFFFFFFFFFFFFFFFFFFFFFFFFFFFFFFFFFFFFFF DUP3 SUB PUSH2 0x894 JUMPI PUSH2 0x893 PUSH2 0x828 JUMP JUMPDEST JUMPDEST PUSH1 0x1 DUP3 ADD SWAP1 POP SWAP2 SWAP1 POP JUMP JUMPDEST PUSH32 0x4E487B7100000000000000000000000000000000000000000000000000000000 PUSH1 0x0 MSTORE PUSH1 0x22 PUSH1 0x4 MSTORE PUSH1 0x24 PUSH1 0x0 REVERT JUMPDEST PUSH1 0x0 PUSH1 0x2 DUP3 DIV SWAP1 POP PUSH1 0x1 DUP3 AND DUP1 PUSH2 0x8E6 JUMPI PUSH1 0x7F DUP3 AND SWAP2 POP JUMPDEST PUSH1 0x20 DUP3 LT DUP2 SUB PUSH2 0x8F9 JUMPI PUSH2 0x8F8 PUSH2 0x89F JUMP JUMPDEST JUMPDEST POP SWAP2 SWAP1 POP JUMP JUMPDEST PUSH1 0x0 DUP2 SWAP1 POP DUP2 PUSH1 0x0 MSTORE PUSH1 0x20 PUSH1 0x0 KECCAK256 SWAP1 POP SWAP2 SWAP1 POP JUMP JUMPDEST PUSH1 0x0 PUSH1 0x20 PUSH1 0x1F DUP4 ADD DIV SWAP1 POP SWAP2 SWAP1 POP JUMP JUMPDEST PUSH1 0x0 DUP3 DUP3 SHL SWAP1 POP SWAP3 SWAP2 POP POP JUMP JUMPDEST PUSH1 0x0 PUSH1 0x8 DUP4 MUL PUSH2 0x961 PUSH32 0xFFFFFFFFFFFFFFFFFFFFFFFFFFFFFFFFFFFFFFFFFFFFFFFFFFFFFFFFFFFFFFFF DUP3 PUSH2 0x924 JUMP JUMPDEST PUSH2 0x96B DUP7 DUP4 PUSH2 0x924 JUMP JUMPDEST SWAP6 POP DUP1 NOT DUP5 AND SWAP4 POP DUP1 DUP7 AND DUP5 OR SWAP3 POP POP POP SWAP4 SWAP3 POP POP POP JUMP JUMPDEST PUSH1 0x0 DUP2 SWAP1 POP SWAP2 SWAP1 POP JUMP JUMPDEST PUSH1 0x0 PUSH2 0x9A8 PUSH2 0x9A3 PUSH2 0x99E DUP5 PUSH2 0x4D7 JUMP JUMPDEST PUSH2 0x983 JUMP JUMPDEST PUSH2 0x4D7 JUMP JUMPDEST SWAP1 POP SWAP2 SWAP1 POP JUMP JUMPDEST PUSH1 0x0 DUP2 SWAP1 POP SWAP2 SWAP1 POP JUMP JUMPDEST PUSH2 0x9C2 DUP4 PUSH2 0x98D JUMP JUMPDEST PUSH2 0x9D6 PUSH2 0x9CE DUP3 PUSH2 0x9AF JUMP JUMPDEST DUP5 DUP5 SLOAD PUSH2 0x931 JUMP JUMPDEST DUP3 SSTORE POP POP POP POP JUMP JUMPDEST PUSH1 0x0 SWAP1 JUMP JUMPDEST PUSH2 0x9EB PUSH2 0x9DE JUMP JUMPDEST PUSH2 0x9F6 DUP2 DUP5 DUP5 PUSH2 0x9B9 JUMP JUMPDEST POP POP POP JUMP JUMPDEST JUMPDEST DUP2 DUP2 LT ISZERO PUSH2 0xA1A JUMPI PUSH2 0xA0F PUSH1 0x0 DUP3 PUSH2 0x9E3 JUMP JUMPDEST PUSH1 0x1 DUP2 ADD SWAP1 POP PUSH2 0x9FC JUMP JUMPDEST POP POP JUMP JUMPDEST PUSH1 0x1F DUP3 GT ISZERO PUSH2 0xA5F JUMPI PUSH2 0xA30 DUP2 PUSH2 0x8FF JUMP JUMPDEST PUSH2 0xA39 DUP5 PUSH2 0x914 JUMP JUMPDEST DUP2 ADD PUSH1 0x20 DUP6 LT ISZERO PUSH2 0xA48 JUMPI DUP2 SWAP1 POP JUMPDEST PUSH2 0xA5C PUSH2 0xA54 DUP6 PUSH2 0x914 JUMP JUMPDEST DUP4 ADD DUP3 PUSH2 0x9FB JUMP JUMPDEST POP POP JUMPDEST POP POP POP JUMP JUMPDEST PUSH1 0x0 DUP3 DUP3 SHR SWAP1 POP SWAP3 SWAP2 POP POP JUMP JUMPDEST PUSH1 0x0 PUSH2 0xA82 PUSH1 0x0 NOT DUP5 PUSH1 0x8 MUL PUSH2 0xA64 JUMP JUMPDEST NOT DUP1 DUP4 AND SWAP2 POP POP SWAP3 SWAP2 POP POP JUMP JUMPDEST PUSH1 0x0 PUSH2 0xA9B DUP4 DUP4 PUSH2 0xA71 JUMP JUMPDEST SWAP2 POP DUP3 PUSH1 0x2 MUL DUP3 OR SWAP1 POP SWAP3 SWAP2 POP POP JUMP JUMPDEST PUSH2 0xAB4 DUP3 PUSH2 0x724 JUMP JUMPDEST PUSH8 0xFFFFFFFFFFFFFFFF DUP2 GT ISZERO PUSH2 0xACD JUMPI PUSH2 0xACC PUSH2 0x526 JUMP JUMPDEST JUMPDEST PUSH2 0xAD7 DUP3 SLOAD PUSH2 0x8CE JUMP JUMPDEST PUSH2 0xAE2 DUP3 DUP3 DUP6 PUSH2 0xA1E JUMP JUMPDEST PUSH1 0x0 PUSH1 0x20 SWAP1 POP PUSH1 0x1F DUP4 GT PUSH1 0x1 DUP2 EQ PUSH2 0xB15 JUMPI PUSH1 0x0 DUP5 ISZERO PUSH2 0xB03 JUMPI DUP3 DUP8 ADD MLOAD SWAP1 POP JUMPDEST PUSH2 0xB0D DUP6 DUP3 PUSH2 0xA8F JUMP JUMPDEST DUP7 SSTORE POP PUSH2 0xB75 JUMP JUMPDEST PUSH1 0x1F NOT DUP5 AND PUSH2 0xB23 DUP7 PUSH2 0x8FF JUMP JUMPDEST PUSH1 0x0 JUMPDEST DUP3 DUP2 LT ISZERO PUSH2 0xB4B JUMPI DUP5 DUP10 ADD MLOAD DUP3 SSTORE PUSH1 0x1 DUP3 ADD SWAP2 POP PUSH1 0x20 DUP6 ADD SWAP5 POP PUSH1 0x20 DUP2 ADD SWAP1 POP PUSH2 0xB26 JUMP JUMPDEST DUP7 DUP4 LT ISZERO PUSH2 0xB68 JUMPI DUP5 DUP10 ADD MLOAD PUSH2 0xB64 PUSH1 0x1F DUP10 AND DUP3 PUSH2 0xA71 JUMP JUMPDEST DUP4 SSTORE POP JUMPDEST PUSH1 0x1 PUSH1 0x2 DUP9 MUL ADD DUP9 SSTORE POP POP POP JUMPDEST POP POP POP POP POP POP JUMP INVALID LOG2 PUSH5 0x6970667358 0x22 SLT KECCAK256 0x24 PREVRANDAO PUSH17 0x13AF4F529219F8313B079A0B905C6DB16B SWAP15 PUSH27 0x10E87AC706CF31467F4C64736F6C63430008120033000000000000 "
				},
				"gasEstimates": {
					"creation": {
						"codeDepositCost": "599000",
						"executionCost": "632",
						"totalCost": "599632"
					},
					"external": {
						"balances(address)": "2806",
						"getPayment(address,uint256)": "infinite",
						"pay(string)": "infinite"
					}
				},
				"methodIdentifiers": {
					"balances(address)": "27e235e3",
					"getPayment(address,uint256)": "977a767c",
					"pay(string)": "2b66d72e"
				}
			},
			"storageLayout": {
				"storage": [
					{
						"astId": 23,
						"contract": "syntax/enum.sol:Test",
						"label": "balances",
						"offset": 0,
						"slot": "0",
						"type": "t_mapping(t_address,t_struct(Balance)18_storage)"
					}
				],
				"types": {
					"t_address": {
						"encoding": "inplace",
						"label": "address",
						"numberOfBytes": "20"
					},
					"t_mapping(t_address,t_struct(Balance)18_storage)": {
						"encoding": "mapping",
						"key": "t_address",
						"label": "mapping(address => struct Test.Balance)",
						"numberOfBytes": "32",
						"value": "t_struct(Balance)18_storage"
					},
					"t_mapping(t_uint256,t_struct(Payment)10_storage)": {
						"encoding": "mapping",
						"key": "t_uint256",
						"label": "mapping(uint256 => struct Test.Payment)",
						"numberOfBytes": "32",
						"value": "t_struct(Payment)10_storage"
					},
					"t_string_storage": {
						"encoding": "bytes",
						"label": "string",
						"numberOfBytes": "32"
					},
					"t_struct(Balance)18_storage": {
						"encoding": "inplace",
						"label": "struct Test.Balance",
						"members": [
							{
								"astId": 12,
								"contract": "syntax/enum.sol:Test",
								"label": "totalPayments",
								"offset": 0,
								"slot": "0",
								"type": "t_uint256"
							},
							{
								"astId": 17,
								"contract": "syntax/enum.sol:Test",
								"label": "payments",
								"offset": 0,
								"slot": "1",
								"type": "t_mapping(t_uint256,t_struct(Payment)10_storage)"
							}
						],
						"numberOfBytes": "64"
					},
					"t_struct(Payment)10_storage": {
						"encoding": "inplace",
						"label": "struct Test.Payment",
						"members": [
							{
								"astId": 3,
								"contract": "syntax/enum.sol:Test",
								"label": "amount",
								"offset": 0,
								"slot": "0",
								"type": "t_uint256"
							},
							{
								"astId": 5,
								"contract": "syntax/enum.sol:Test",
								"label": "timestamp",
								"offset": 0,
								"slot": "1",
								"type": "t_uint256"
							},
							{
								"astId": 7,
								"contract": "syntax/enum.sol:Test",
								"label": "from",
								"offset": 0,
								"slot": "2",
								"type": "t_address"
							},
							{
								"astId": 9,
								"contract": "syntax/enum.sol:Test",
								"label": "message",
								"offset": 0,
								"slot": "3",
								"type": "t_string_storage"
							}
						],
						"numberOfBytes": "128"
					},
					"t_uint256": {
						"encoding": "inplace",
						"label": "uint256",
						"numberOfBytes": "32"
					}
				}
			},
			"userdoc": {
				"kind": "user",
				"methods": {},
				"version": 1
			}
		}
	}
}