{
  "_format": "hh-sol-artifact-1",
  "contractName": "Payments",
  "sourceName": "contracts/Payments.sol",
  "abi": [
    {
      "inputs": [
        {
          "internalType": "address",
          "name": "",
          "type": "address"
        }
      ],
      "name": "balances",
      "outputs": [
        {
          "internalType": "uint256",
          "name": "totalPayments",
          "type": "uint256"
        }
      ],
      "stateMutability": "view",
      "type": "function"
    },
    {
      "inputs": [],
      "name": "currentBalance",
      "outputs": [
        {
          "internalType": "uint256",
          "name": "",
          "type": "uint256"
        }
      ],
      "stateMutability": "view",
      "type": "function"
    },
    {
      "inputs": [
        {
          "internalType": "address",
          "name": "_addr",
          "type": "address"
        },
        {
          "internalType": "uint256",
          "name": "_index",
          "type": "uint256"
        }
      ],
      "name": "getPayment",
      "outputs": [
        {
          "components": [
            {
              "internalType": "uint256",
              "name": "amount",
              "type": "uint256"
            },
            {
              "internalType": "uint256",
              "name": "timestamp",
              "type": "uint256"
            },
            {
              "internalType": "address",
              "name": "from",
              "type": "address"
            },
            {
              "internalType": "string",
              "name": "message",
              "type": "string"
            }
          ],
          "internalType": "struct Payments.Payment",
          "name": "",
          "type": "tuple"
        }
      ],
      "stateMutability": "view",
      "type": "function"
    },
    {
      "inputs": [
        {
          "internalType": "string",
          "name": "message",
          "type": "string"
        }
      ],
      "name": "pay",
      "outputs": [],
      "stateMutability": "payable",
      "type": "function"
    }
  ],
  "bytecode": "0x608060405234801561001057600080fd5b50610bee806100206000396000f3fe60806040526004361061003f5760003560e01c806327e235e3146100445780632b66d72e14610081578063977a767c1461009d578063ce845d1d146100da575b600080fd5b34801561005057600080fd5b5061006b600480360381019061006691906104e5565b610105565b604051610078919061052b565b60405180910390f35b61009b6004803603810190610096919061068c565b610123565b005b3480156100a957600080fd5b506100c460048036038101906100bf9190610701565b6102c7565b6040516100d19190610841565b60405180910390f35b3480156100e657600080fd5b506100ef610430565b6040516100fc919061052b565b60405180910390f35b60006020528060005260406000206000915090508060000154905081565b60008060003373ffffffffffffffffffffffffffffffffffffffff1673ffffffffffffffffffffffffffffffffffffffff1681526020019081526020016000206000015490506000803373ffffffffffffffffffffffffffffffffffffffff1673ffffffffffffffffffffffffffffffffffffffff16815260200190815260200160002060000160008154809291906101bb90610892565b9190505550600060405180608001604052803481526020014281526020013373ffffffffffffffffffffffffffffffffffffffff168152602001848152509050806000803373ffffffffffffffffffffffffffffffffffffffff1673ffffffffffffffffffffffffffffffffffffffff1681526020019081526020016000206001016000848152602001908152602001600020600082015181600001556020820151816001015560408201518160020160006101000a81548173ffffffffffffffffffffffffffffffffffffffff021916908373ffffffffffffffffffffffffffffffffffffffff16021790555060608201518160030190816102be9190610ae6565b50905050505050565b6102cf610435565b6000808473ffffffffffffffffffffffffffffffffffffffff1673ffffffffffffffffffffffffffffffffffffffff168152602001908152602001600020600101600083815260200190815260200160002060405180608001604052908160008201548152602001600182015481526020016002820160009054906101000a900473ffffffffffffffffffffffffffffffffffffffff1673ffffffffffffffffffffffffffffffffffffffff1673ffffffffffffffffffffffffffffffffffffffff1681526020016003820180546103a690610909565b80601f01602080910402602001604051908101604052809291908181526020018280546103d290610909565b801561041f5780601f106103f45761010080835404028352916020019161041f565b820191906000526020600020905b81548152906001019060200180831161040257829003601f168201915b505050505081525050905092915050565b600090565b60405180608001604052806000815260200160008152602001600073ffffffffffffffffffffffffffffffffffffffff168152602001606081525090565b6000604051905090565b600080fd5b600080fd5b600073ffffffffffffffffffffffffffffffffffffffff82169050919050565b60006104b282610487565b9050919050565b6104c2816104a7565b81146104cd57600080fd5b50565b6000813590506104df816104b9565b92915050565b6000602082840312156104fb576104fa61047d565b5b6000610509848285016104d0565b91505092915050565b6000819050919050565b61052581610512565b82525050565b6000602082019050610540600083018461051c565b92915050565b600080fd5b600080fd5b6000601f19601f8301169050919050565b7f4e487b7100000000000000000000000000000000000000000000000000000000600052604160045260246000fd5b61059982610550565b810181811067ffffffffffffffff821117156105b8576105b7610561565b5b80604052505050565b60006105cb610473565b90506105d78282610590565b919050565b600067ffffffffffffffff8211156105f7576105f6610561565b5b61060082610550565b9050602081019050919050565b82818337600083830152505050565b600061062f61062a846105dc565b6105c1565b90508281526020810184848401111561064b5761064a61054b565b5b61065684828561060d565b509392505050565b600082601f83011261067357610672610546565b5b813561068384826020860161061c565b91505092915050565b6000602082840312156106a2576106a161047d565b5b600082013567ffffffffffffffff8111156106c0576106bf610482565b5b6106cc8482850161065e565b91505092915050565b6106de81610512565b81146106e957600080fd5b50565b6000813590506106fb816106d5565b92915050565b600080604083850312156107185761071761047d565b5b6000610726858286016104d0565b9250506020610737858286016106ec565b9150509250929050565b61074a81610512565b82525050565b610759816104a7565b82525050565b600081519050919050565b600082825260208201905092915050565b60005b8381101561079957808201518184015260208101905061077e565b60008484015250505050565b60006107b08261075f565b6107ba818561076a565b93506107ca81856020860161077b565b6107d381610550565b840191505092915050565b60006080830160008301516107f66000860182610741565b5060208301516108096020860182610741565b50604083015161081c6040860182610750565b506060830151848203606086015261083482826107a5565b9150508091505092915050565b6000602082019050818103600083015261085b81846107de565b905092915050565b7f4e487b7100000000000000000000000000000000000000000000000000000000600052601160045260246000fd5b600061089d82610512565b91507fffffffffffffffffffffffffffffffffffffffffffffffffffffffffffffffff82036108cf576108ce610863565b5b600182019050919050565b7f4e487b7100000000000000000000000000000000000000000000000000000000600052602260045260246000fd5b6000600282049050600182168061092157607f821691505b602082108103610934576109336108da565b5b50919050565b60008190508160005260206000209050919050565b60006020601f8301049050919050565b600082821b905092915050565b60006008830261099c7fffffffffffffffffffffffffffffffffffffffffffffffffffffffffffffffff8261095f565b6109a6868361095f565b95508019841693508086168417925050509392505050565b6000819050919050565b60006109e36109de6109d984610512565b6109be565b610512565b9050919050565b6000819050919050565b6109fd836109c8565b610a11610a09826109ea565b84845461096c565b825550505050565b600090565b610a26610a19565b610a318184846109f4565b505050565b5b81811015610a5557610a4a600082610a1e565b600181019050610a37565b5050565b601f821115610a9a57610a6b8161093a565b610a748461094f565b81016020851015610a83578190505b610a97610a8f8561094f565b830182610a36565b50505b505050565b600082821c905092915050565b6000610abd60001984600802610a9f565b1980831691505092915050565b6000610ad68383610aac565b9150826002028217905092915050565b610aef8261075f565b67ffffffffffffffff811115610b0857610b07610561565b5b610b128254610909565b610b1d828285610a59565b600060209050601f831160018114610b505760008415610b3e578287015190505b610b488582610aca565b865550610bb0565b601f198416610b5e8661093a565b60005b82811015610b8657848901518255600182019150602085019450602081019050610b61565b86831015610ba35784890151610b9f601f891682610aac565b8355505b6001600288020188555050505b50505050505056fea2646970667358221220e60b91b82df598de89b11370e1971bc6ffbf2b978b6c5277dbeefd064e874c1f64736f6c63430008130033",
  "linkReferences": {},
  "deployedLinkReferences": {}
}